{
  "_format": "hh-sol-artifact-1",
  "contractName": "NFTwitter",
  "sourceName": "contracts/NFTwitter.sol",
  "abi": [
    {
      "inputs": [],
      "stateMutability": "nonpayable",
      "type": "constructor"
    },
    {
      "anonymous": false,
      "inputs": [
        {
          "indexed": true,
          "internalType": "address",
          "name": "owner",
          "type": "address"
        },
        {
          "indexed": true,
          "internalType": "address",
          "name": "approved",
          "type": "address"
        },
        {
          "indexed": true,
          "internalType": "uint256",
          "name": "tokenId",
          "type": "uint256"
        }
      ],
      "name": "Approval",
      "type": "event"
    },
    {
      "anonymous": false,
      "inputs": [
        {
          "indexed": true,
          "internalType": "address",
          "name": "owner",
          "type": "address"
        },
        {
          "indexed": true,
          "internalType": "address",
          "name": "operator",
          "type": "address"
        },
        {
          "indexed": false,
          "internalType": "bool",
          "name": "approved",
          "type": "bool"
        }
      ],
      "name": "ApprovalForAll",
      "type": "event"
    },
    {
      "anonymous": false,
      "inputs": [
        {
          "indexed": true,
          "internalType": "address",
          "name": "previousOwner",
          "type": "address"
        },
        {
          "indexed": true,
          "internalType": "address",
          "name": "newOwner",
          "type": "address"
        }
      ],
      "name": "OwnershipTransferred",
      "type": "event"
    },
    {
      "anonymous": false,
      "inputs": [
        {
          "indexed": true,
          "internalType": "address",
          "name": "from",
          "type": "address"
        },
        {
          "indexed": true,
          "internalType": "address",
          "name": "to",
          "type": "address"
        },
        {
          "indexed": true,
          "internalType": "uint256",
          "name": "tokenId",
          "type": "uint256"
        }
      ],
      "name": "Transfer",
      "type": "event"
    },
    {
      "anonymous": false,
      "inputs": [
        {
          "indexed": false,
          "internalType": "uint256",
          "name": "tweetId",
          "type": "uint256"
        }
      ],
      "name": "newTweet",
      "type": "event"
    },
    {
      "anonymous": false,
      "inputs": [
        {
          "indexed": false,
          "internalType": "uint256",
          "name": "tweetId",
          "type": "uint256"
        }
      ],
      "name": "tweetDeleted",
      "type": "event"
    },
    {
      "anonymous": false,
      "inputs": [
        {
          "indexed": false,
          "internalType": "uint256",
          "name": "tweetId",
          "type": "uint256"
        },
        {
          "indexed": false,
          "internalType": "address",
          "name": "liker",
          "type": "address"
        },
        {
          "indexed": false,
          "internalType": "uint256",
          "name": "newNbLikes",
          "type": "uint256"
        }
      ],
      "name": "tweetLiked",
      "type": "event"
    },
    {
      "anonymous": false,
      "inputs": [
        {
          "indexed": false,
          "internalType": "uint256",
          "name": "tweetId",
          "type": "uint256"
        },
        {
          "indexed": false,
          "internalType": "address",
          "name": "liker",
          "type": "address"
        },
        {
          "indexed": false,
          "internalType": "uint256",
          "name": "newNbLikes",
          "type": "uint256"
        }
      ],
      "name": "tweetUnliked",
      "type": "event"
    },
    {
      "inputs": [
        {
          "internalType": "address",
          "name": "to",
          "type": "address"
        },
        {
          "internalType": "uint256",
          "name": "tokenId",
          "type": "uint256"
        }
      ],
      "name": "approve",
      "outputs": [],
      "stateMutability": "nonpayable",
      "type": "function"
    },
    {
      "inputs": [
        {
          "internalType": "address",
          "name": "owner",
          "type": "address"
        }
      ],
      "name": "balanceOf",
      "outputs": [
        {
          "internalType": "uint256",
          "name": "",
          "type": "uint256"
        }
      ],
      "stateMutability": "view",
      "type": "function"
    },
    {
      "inputs": [
        {
          "internalType": "uint256",
          "name": "_tokenId",
          "type": "uint256"
        }
      ],
      "name": "deleteTweet",
      "outputs": [],
      "stateMutability": "nonpayable",
      "type": "function"
    },
    {
      "inputs": [
        {
          "internalType": "uint256",
          "name": "_tokenId",
          "type": "uint256"
        }
      ],
      "name": "didILikedTweet",
      "outputs": [
        {
          "internalType": "bool",
          "name": "liked",
          "type": "bool"
        }
      ],
      "stateMutability": "view",
      "type": "function"
    },
    {
      "inputs": [
        {
          "internalType": "address",
          "name": "user",
          "type": "address"
        },
        {
          "internalType": "uint256",
          "name": "_tokenId",
          "type": "uint256"
        }
      ],
      "name": "didUserLikedTweet",
      "outputs": [
        {
          "internalType": "bool",
          "name": "liked",
          "type": "bool"
        }
      ],
      "stateMutability": "view",
      "type": "function"
    },
    {
      "inputs": [
        {
          "internalType": "uint256",
          "name": "tokenId",
          "type": "uint256"
        }
      ],
      "name": "getApproved",
      "outputs": [
        {
          "internalType": "address",
          "name": "",
          "type": "address"
        }
      ],
      "stateMutability": "view",
      "type": "function"
    },
    {
      "inputs": [
        {
          "internalType": "uint256",
          "name": "_tokenId",
          "type": "uint256"
        }
      ],
      "name": "getReplies",
      "outputs": [
        {
          "components": [
            {
              "internalType": "uint256",
              "name": "tweetId",
              "type": "uint256"
            },
            {
              "internalType": "uint256",
              "name": "parentId",
              "type": "uint256"
            },
            {
              "internalType": "string",
              "name": "content",
              "type": "string"
            },
            {
              "internalType": "uint256",
              "name": "timestamp",
              "type": "uint256"
            },
            {
              "internalType": "address",
              "name": "author",
              "type": "address"
            },
            {
              "internalType": "address",
              "name": "owner",
              "type": "address"
            },
            {
              "internalType": "uint256",
              "name": "likes",
              "type": "uint256"
            }
          ],
          "internalType": "struct NFTwitter.Tweet[]",
          "name": "",
          "type": "tuple[]"
        }
      ],
      "stateMutability": "view",
      "type": "function"
    },
    {
      "inputs": [
        {
          "internalType": "uint256",
          "name": "_tokenId",
          "type": "uint256"
        }
      ],
      "name": "getTweet",
      "outputs": [
        {
          "components": [
            {
              "internalType": "uint256",
              "name": "tweetId",
              "type": "uint256"
            },
            {
              "internalType": "uint256",
              "name": "parentId",
              "type": "uint256"
            },
            {
              "internalType": "string",
              "name": "content",
              "type": "string"
            },
            {
              "internalType": "uint256",
              "name": "timestamp",
              "type": "uint256"
            },
            {
              "internalType": "address",
              "name": "author",
              "type": "address"
            },
            {
              "internalType": "address",
              "name": "owner",
              "type": "address"
            },
            {
              "internalType": "uint256",
              "name": "likes",
              "type": "uint256"
            }
          ],
          "internalType": "struct NFTwitter.Tweet",
          "name": "",
          "type": "tuple"
        }
      ],
      "stateMutability": "view",
      "type": "function"
    },
    {
      "inputs": [],
      "name": "getTweets",
      "outputs": [
        {
          "components": [
            {
              "internalType": "uint256",
              "name": "tweetId",
              "type": "uint256"
            },
            {
              "internalType": "uint256",
              "name": "parentId",
              "type": "uint256"
            },
            {
              "internalType": "string",
              "name": "content",
              "type": "string"
            },
            {
              "internalType": "uint256",
              "name": "timestamp",
              "type": "uint256"
            },
            {
              "internalType": "address",
              "name": "author",
              "type": "address"
            },
            {
              "internalType": "address",
              "name": "owner",
              "type": "address"
            },
            {
              "internalType": "uint256",
              "name": "likes",
              "type": "uint256"
            }
          ],
          "internalType": "struct NFTwitter.Tweet[]",
          "name": "tweetsList",
          "type": "tuple[]"
        },
        {
          "internalType": "bool[]",
          "name": "likedBySender",
          "type": "bool[]"
        }
      ],
      "stateMutability": "view",
      "type": "function"
    },
    {
      "inputs": [
        {
          "internalType": "address",
          "name": "owner",
          "type": "address"
        }
      ],
      "name": "getTweetsOfOwner",
      "outputs": [
        {
          "components": [
            {
              "internalType": "uint256",
              "name": "tweetId",
              "type": "uint256"
            },
            {
              "internalType": "uint256",
              "name": "parentId",
              "type": "uint256"
            },
            {
              "internalType": "string",
              "name": "content",
              "type": "string"
            },
            {
              "internalType": "uint256",
              "name": "timestamp",
              "type": "uint256"
            },
            {
              "internalType": "address",
              "name": "author",
              "type": "address"
            },
            {
              "internalType": "address",
              "name": "owner",
              "type": "address"
            },
            {
              "internalType": "uint256",
              "name": "likes",
              "type": "uint256"
            }
          ],
          "internalType": "struct NFTwitter.Tweet[]",
          "name": "",
          "type": "tuple[]"
        }
      ],
      "stateMutability": "view",
      "type": "function"
    },
    {
      "inputs": [
        {
          "internalType": "address",
          "name": "owner",
          "type": "address"
        },
        {
          "internalType": "address",
          "name": "operator",
          "type": "address"
        }
      ],
      "name": "isApprovedForAll",
      "outputs": [
        {
          "internalType": "bool",
          "name": "",
          "type": "bool"
        }
      ],
      "stateMutability": "view",
      "type": "function"
    },
    {
      "inputs": [
        {
          "internalType": "uint256",
          "name": "_tokenId",
          "type": "uint256"
        }
      ],
      "name": "likeTweet",
      "outputs": [],
      "stateMutability": "nonpayable",
      "type": "function"
    },
    {
      "inputs": [],
      "name": "name",
      "outputs": [
        {
          "internalType": "string",
          "name": "",
          "type": "string"
        }
      ],
      "stateMutability": "view",
      "type": "function"
    },
    {
      "inputs": [],
      "name": "owner",
      "outputs": [
        {
          "internalType": "address",
          "name": "",
          "type": "address"
        }
      ],
      "stateMutability": "view",
      "type": "function"
    },
    {
      "inputs": [
        {
          "internalType": "uint256",
          "name": "tokenId",
          "type": "uint256"
        }
      ],
      "name": "ownerOf",
      "outputs": [
        {
          "internalType": "address",
          "name": "",
          "type": "address"
        }
      ],
      "stateMutability": "view",
      "type": "function"
    },
    {
      "inputs": [],
      "name": "renounceOwnership",
      "outputs": [],
      "stateMutability": "nonpayable",
      "type": "function"
    },
    {
      "inputs": [
        {
          "internalType": "address",
          "name": "from",
          "type": "address"
        },
        {
          "internalType": "address",
          "name": "to",
          "type": "address"
        },
        {
          "internalType": "uint256",
          "name": "tokenId",
          "type": "uint256"
        }
      ],
      "name": "safeTransferFrom",
      "outputs": [],
      "stateMutability": "nonpayable",
      "type": "function"
    },
    {
      "inputs": [
        {
          "internalType": "address",
          "name": "from",
          "type": "address"
        },
        {
          "internalType": "address",
          "name": "to",
          "type": "address"
        },
        {
          "internalType": "uint256",
          "name": "tokenId",
          "type": "uint256"
        },
        {
          "internalType": "bytes",
          "name": "_data",
          "type": "bytes"
        }
      ],
      "name": "safeTransferFrom",
      "outputs": [],
      "stateMutability": "nonpayable",
      "type": "function"
    },
    {
      "inputs": [
        {
          "internalType": "address",
          "name": "operator",
          "type": "address"
        },
        {
          "internalType": "bool",
          "name": "approved",
          "type": "bool"
        }
      ],
      "name": "setApprovalForAll",
      "outputs": [],
      "stateMutability": "nonpayable",
      "type": "function"
    },
    {
      "inputs": [
        {
          "internalType": "bytes4",
          "name": "interfaceId",
          "type": "bytes4"
        }
      ],
      "name": "supportsInterface",
      "outputs": [
        {
          "internalType": "bool",
          "name": "",
          "type": "bool"
        }
      ],
      "stateMutability": "view",
      "type": "function"
    },
    {
      "inputs": [],
      "name": "symbol",
      "outputs": [
        {
          "internalType": "string",
          "name": "",
          "type": "string"
        }
      ],
      "stateMutability": "view",
      "type": "function"
    },
    {
      "inputs": [
        {
          "internalType": "uint256",
          "name": "_tokenId",
          "type": "uint256"
        }
      ],
      "name": "tipTweet",
      "outputs": [],
      "stateMutability": "payable",
      "type": "function"
    },
    {
      "inputs": [
        {
          "internalType": "uint256",
          "name": "_tokenId",
          "type": "uint256"
        }
      ],
      "name": "tokenURI",
      "outputs": [
        {
          "internalType": "string",
          "name": "",
          "type": "string"
        }
      ],
      "stateMutability": "view",
      "type": "function"
    },
    {
      "inputs": [
        {
          "internalType": "address",
          "name": "from",
          "type": "address"
        },
        {
          "internalType": "address",
          "name": "to",
          "type": "address"
        },
        {
          "internalType": "uint256",
          "name": "tokenId",
          "type": "uint256"
        }
      ],
      "name": "transferFrom",
      "outputs": [],
      "stateMutability": "nonpayable",
      "type": "function"
    },
    {
      "inputs": [
        {
          "internalType": "address",
          "name": "newOwner",
          "type": "address"
        }
      ],
      "name": "transferOwnership",
      "outputs": [],
      "stateMutability": "nonpayable",
      "type": "function"
    },
    {
      "inputs": [
        {
          "internalType": "string",
          "name": "content",
          "type": "string"
        },
        {
          "internalType": "uint256",
          "name": "parentId",
          "type": "uint256"
        }
      ],
      "name": "tweet",
      "outputs": [],
      "stateMutability": "nonpayable",
      "type": "function"
    },
    {
      "inputs": [
        {
          "internalType": "uint256",
          "name": "_tokenId",
          "type": "uint256"
        }
      ],
      "name": "tweetImageURI",
      "outputs": [
        {
          "internalType": "string",
          "name": "",
          "type": "string"
        }
      ],
      "stateMutability": "view",
      "type": "function"
    },
    {
      "inputs": [
        {
          "internalType": "uint256",
          "name": "_tokenId",
          "type": "uint256"
        }
      ],
      "name": "unlikeTweet",
      "outputs": [],
      "stateMutability": "nonpayable",
      "type": "function"
    },
    {
      "inputs": [
        {
          "internalType": "uint256",
          "name": "owner",
          "type": "uint256"
        },
        {
          "internalType": "uint256",
          "name": "author",
          "type": "uint256"
        },
        {
          "internalType": "uint256",
          "name": "platform",
          "type": "uint256"
        }
      ],
      "name": "updateTipsPercent",
      "outputs": [],
      "stateMutability": "nonpayable",
      "type": "function"
    }
  ],
  "bytecode": "0x608060405260405180610160016040528061012f81526020016200604d61012f9139600c908051906020019062000038929190620001fb565b503480156200004657600080fd5b506040518060400160405280600981526020017f4e465477697474657200000000000000000000000000000000000000000000008152506040518060400160405280600481526020017f4e465454000000000000000000000000000000000000000000000000000000008152508160009080519060200190620000cb929190620001fb565b508060019080519060200190620000e4929190620001fb565b50505062000107620000fb6200012d60201b60201c565b6200013560201b60201c565b60016007819055506046600d819055506014600e81905550600a600f8190555062000310565b600033905090565b6000600660009054906101000a900473ffffffffffffffffffffffffffffffffffffffff16905081600660006101000a81548173ffffffffffffffffffffffffffffffffffffffff021916908373ffffffffffffffffffffffffffffffffffffffff1602179055508173ffffffffffffffffffffffffffffffffffffffff168173ffffffffffffffffffffffffffffffffffffffff167f8be0079c531659141344cd1fd0a4f28419497f9722a3daafe3b4186f6b6457e060405160405180910390a35050565b8280546200020990620002ab565b90600052602060002090601f0160209004810192826200022d576000855562000279565b82601f106200024857805160ff191683800117855562000279565b8280016001018555821562000279579182015b82811115620002785782518255916020019190600101906200025b565b5b5090506200028891906200028c565b5090565b5b80821115620002a75760008160009055506001016200028d565b5090565b60006002820490506001821680620002c457607f821691505b60208210811415620002db57620002da620002e1565b5b50919050565b7f4e487b7100000000000000000000000000000000000000000000000000000000600052602260045260246000fd5b615d2d80620003206000396000f3fe6080604052600436106101c25760003560e01c80636352211e116100f7578063ae58449d11610095578063c87b56dd11610064578063c87b56dd14610677578063e985e9c5146106b4578063f2fde38b146106f1578063fc86741f1461071a576101c2565b8063ae58449d146105b8578063b3465fd4146105f5578063b88d4fde14610611578063c3ad5ecb1461063a576101c2565b80637e6790ec116100d15780637e6790ec146105105780638da5cb5b1461053957806395d89b4114610564578063a22cb4651461058f576101c2565b80636352211e1461047f57806370a08231146104bc578063715018a6146104f9576101c2565b80633cb6bbde116101645780634caf95111161013e5780634caf9511146103c75780635775912a146103f05780635f7c8c0f146104195780635ffc6ceb14610456576101c2565b80633cb6bbde146103245780633ddc29df1461036157806342842e0e1461039e576101c2565b8063095ea7b3116101a0578063095ea7b31461026c5780630e228738146102955780631d86e904146102d257806323b872dd146102fb576101c2565b806301ffc9a7146101c757806306fdde0314610204578063081812fc1461022f575b600080fd5b3480156101d357600080fd5b506101ee60048036038101906101e9919061434c565b610746565b6040516101fb9190615410565b60405180910390f35b34801561021057600080fd5b50610219610828565b604051610226919061542b565b60405180910390f35b34801561023b57600080fd5b50610256600480360381019061025191906143f2565b6108ba565b6040516102639190615350565b60405180910390f35b34801561027857600080fd5b50610293600480360381019061028e9190614310565b61093f565b005b3480156102a157600080fd5b506102bc60048036038101906102b79190614310565b610a57565b6040516102c99190615410565b60405180910390f35b3480156102de57600080fd5b506102f960048036038101906102f491906143f2565b610bee565b005b34801561030757600080fd5b50610322600480360381019061031d919061420a565b610eb8565b005b34801561033057600080fd5b5061034b600480360381019061034691906143f2565b610f18565b604051610358919061542b565b60405180910390f35b34801561036d57600080fd5b50610388600480360381019061038391906143f2565b610fd0565b6040516103959190615410565b60405180910390f35b3480156103aa57600080fd5b506103c560048036038101906103c0919061420a565b61102d565b005b3480156103d357600080fd5b506103ee60048036038101906103e9919061439e565b61104d565b005b3480156103fc57600080fd5b50610417600480360381019061041291906143f2565b61133d565b005b34801561042557600080fd5b50610440600480360381019061043b91906141a5565b611380565b60405161044d91906153b7565b60405180910390f35b34801561046257600080fd5b5061047d600480360381019061047891906143f2565b6117ab565b005b34801561048b57600080fd5b506104a660048036038101906104a191906143f2565b6119d7565b6040516104b39190615350565b60405180910390f35b3480156104c857600080fd5b506104e360048036038101906104de91906141a5565b611a89565b6040516104f0919061572f565b60405180910390f35b34801561050557600080fd5b5061050e611b41565b005b34801561051c57600080fd5b506105376004803603810190610532919061441b565b611bc9565b005b34801561054557600080fd5b5061054e611cb8565b60405161055b9190615350565b60405180910390f35b34801561057057600080fd5b50610579611ce2565b604051610586919061542b565b60405180910390f35b34801561059b57600080fd5b506105b660048036038101906105b191906142d4565b611d74565b005b3480156105c457600080fd5b506105df60048036038101906105da91906143f2565b611d8a565b6040516105ec91906153b7565b60405180910390f35b61060f600480360381019061060a91906143f2565b6121d3565b005b34801561061d57600080fd5b5061063860048036038101906106339190614259565b6125b6565b005b34801561064657600080fd5b50610661600480360381019061065c91906143f2565b612618565b60405161066e919061570d565b60405180910390f35b34801561068357600080fd5b5061069e600480360381019061069991906143f2565b6127f5565b6040516106ab919061542b565b60405180910390f35b3480156106c057600080fd5b506106db60048036038101906106d691906141ce565b612904565b6040516106e89190615410565b60405180910390f35b3480156106fd57600080fd5b50610718600480360381019061071391906141a5565b612998565b005b34801561072657600080fd5b5061072f612a90565b60405161073d9291906153d9565b60405180910390f35b60007f80ac58cd000000000000000000000000000000000000000000000000000000007bffffffffffffffffffffffffffffffffffffffffffffffffffffffff1916827bffffffffffffffffffffffffffffffffffffffffffffffffffffffff1916148061081157507f5b5e139f000000000000000000000000000000000000000000000000000000007bffffffffffffffffffffffffffffffffffffffffffffffffffffffff1916827bffffffffffffffffffffffffffffffffffffffffffffffffffffffff1916145b80610821575061082082612e3e565b5b9050919050565b60606000805461083790615ae2565b80601f016020809104026020016040519081016040528092919081815260200182805461086390615ae2565b80156108b05780601f10610885576101008083540402835291602001916108b0565b820191906000526020600020905b81548152906001019060200180831161089357829003601f168201915b5050505050905090565b60006108c582612ea8565b610904576040517f08c379a00000000000000000000000000000000000000000000000000000000081526004016108fb906155cd565b60405180910390fd5b6004600083815260200190815260200160002060009054906101000a900473ffffffffffffffffffffffffffffffffffffffff169050919050565b600061094a826119d7565b90508073ffffffffffffffffffffffffffffffffffffffff168373ffffffffffffffffffffffffffffffffffffffff1614156109bb576040517f08c379a00000000000000000000000000000000000000000000000000000000081526004016109b29061566d565b60405180910390fd5b8073ffffffffffffffffffffffffffffffffffffffff166109da612f14565b73ffffffffffffffffffffffffffffffffffffffff161480610a095750610a0881610a03612f14565b612904565b5b610a48576040517f08c379a0000000000000000000000000000000000000000000000000000000008152600401610a3f9061552d565b60405180910390fd5b610a528383612f1c565b505050565b600081610a6381612ea8565b610aa2576040517f08c379a0000000000000000000000000000000000000000000000000000000008152600401610a99906155ad565b60405180910390fd5b6000600b6000858152602001908152602001600020805480602002602001604051908101604052809291908181526020018280548015610b3757602002820191906000526020600020905b8160009054906101000a900473ffffffffffffffffffffffffffffffffffffffff1673ffffffffffffffffffffffffffffffffffffffff1681526020019060010190808311610aed575b505050505090506000805b825181108015610b50575081155b15610be1578673ffffffffffffffffffffffffffffffffffffffff16838281518110610ba5577f4e487b7100000000000000000000000000000000000000000000000000000000600052603260045260246000fd5b602002602001015173ffffffffffffffffffffffffffffffffffffffff161415610bce57600191505b8080610bd990615b14565b915050610b42565b5080935050505092915050565b80610bf881612ea8565b610c37576040517f08c379a0000000000000000000000000000000000000000000000000000000008152600401610c2e906155ad565b60405180910390fd5b6000600b6000848152602001908152602001600020805480602002602001604051908101604052809291908181526020018280548015610ccc57602002820191906000526020600020905b8160009054906101000a900473ffffffffffffffffffffffffffffffffffffffff1673ffffffffffffffffffffffffffffffffffffffff1681526020019060010190808311610c82575b5050505050905060008060005b835181108015610ce7575082155b15610d7b573373ffffffffffffffffffffffffffffffffffffffff16848281518110610d3c577f4e487b7100000000000000000000000000000000000000000000000000000000600052603260045260246000fd5b602002602001015173ffffffffffffffffffffffffffffffffffffffff161415610d6857600192508091505b8080610d7390615b14565b915050610cd9565b5081610dbc576040517f08c379a0000000000000000000000000000000000000000000000000000000008152600401610db39061550d565b60405180910390fd5b600b60008681526020019081526020016000208181548110610e07577f4e487b7100000000000000000000000000000000000000000000000000000000600052603260045260246000fd5b9060005260206000200160006101000a81549073ffffffffffffffffffffffffffffffffffffffff0219169055600860008681526020019081526020016000206006016000815480929190610e5b90615ab8565b91905055507fb1830169c471bda9637a1369d1f11f8dd3448cc5c3f3bc9115f2f6c79a8f447a85336008600089815260200190815260200160002060060154604051610ea99392919061574a565b60405180910390a15050505050565b610ec9610ec3612f14565b82612fd5565b610f08576040517f08c379a0000000000000000000000000000000000000000000000000000000008152600401610eff9061568d565b60405180910390fd5b610f138383836130b3565b505050565b606081610f2481612ea8565b610f63576040517f08c379a0000000000000000000000000000000000000000000000000000000008152600401610f5a906155ad565b60405180910390fd5b6000600c60086000868152602001908152602001600020600201604051602001610f8e929190615250565b6040516020818303038152906040529050610fa881613203565b604051602001610fb8919061532e565b60405160208183030381529060405292505050919050565b600081610fdc81612ea8565b61101b576040517f08c379a0000000000000000000000000000000000000000000000000000000008152600401611012906155ad565b60405180910390fd5b6110253384610a57565b915050919050565b611048838383604051806020016040528060008152506125b6565b505050565b6000825111611091576040517f08c379a00000000000000000000000000000000000000000000000000000000081526004016110889061564d565b60405180910390fd5b61109a81612ea8565b806110a55750600081145b6110e4576040517f08c379a00000000000000000000000000000000000000000000000000000000081526004016110db906156ad565b60405180910390fd5b600060075490506110f533826133c1565b6040518060e001604052808281526020018381526020018481526020014281526020013373ffffffffffffffffffffffffffffffffffffffff1681526020013373ffffffffffffffffffffffffffffffffffffffff16815260200160008152506008600083815260200190815260200160002060008201518160000155602082015181600101556040820151816002019080519060200190611198929190613f60565b506060820151816003015560808201518160040160006101000a81548173ffffffffffffffffffffffffffffffffffffffff021916908373ffffffffffffffffffffffffffffffffffffffff16021790555060a08201518160050160006101000a81548173ffffffffffffffffffffffffffffffffffffffff021916908373ffffffffffffffffffffffffffffffffffffffff16021790555060c08201518160060155905050600960003373ffffffffffffffffffffffffffffffffffffffff1673ffffffffffffffffffffffffffffffffffffffff1681526020019081526020016000206007549080600181540180825580915050600190039060005260206000200160009091909190915055600082146112e957600a60008381526020019081526020016000208190806001815401808255809150506001900390600052602060002001600090919091909150555b600760008154809291906112fc90615b14565b91905055507f74897990c0e4cf5c3ba4e6719715fa3d7aa7d79982e9a12edbdb950535f8e98881604051611330919061572f565b60405180910390a1505050565b611346816133df565b7f277cb36cc6dc1bef71921552175fd7d027ba1ce9421ad993bed83e64ddbfd2bd81604051611375919061572f565b60405180910390a150565b60606000600960008473ffffffffffffffffffffffffffffffffffffffff1673ffffffffffffffffffffffffffffffffffffffff16815260200190815260200160002080548060200260200160405190810160405280929190818152602001828054801561140d57602002820191906000526020600020905b8154815260200190600101908083116113f9575b50505050509050600081519050600080600190505b8281101561149a57611473848281518110611466577f4e487b7100000000000000000000000000000000000000000000000000000000600052603260045260246000fd5b6020026020010151612ea8565b1561148757818061148390615b14565b9250505b808061149290615b14565b915050611422565b5060008167ffffffffffffffff8111156114dd577f4e487b7100000000000000000000000000000000000000000000000000000000600052604160045260246000fd5b60405190808252806020026020018201604052801561151657816020015b611503613fe6565b8152602001906001900390816114fb5790505b5090506000805b8381101561179d5761156e868281518110611561577f4e487b7100000000000000000000000000000000000000000000000000000000600052603260045260246000fd5b6020026020010151612ea8565b1561178a57600860008783815181106115b0577f4e487b7100000000000000000000000000000000000000000000000000000000600052603260045260246000fd5b602002602001015181526020019081526020016000206040518060e001604052908160008201548152602001600182015481526020016002820180546115f590615ae2565b80601f016020809104026020016040519081016040528092919081815260200182805461162190615ae2565b801561166e5780601f106116435761010080835404028352916020019161166e565b820191906000526020600020905b81548152906001019060200180831161165157829003601f168201915b50505050508152602001600382015481526020016004820160009054906101000a900473ffffffffffffffffffffffffffffffffffffffff1673ffffffffffffffffffffffffffffffffffffffff1673ffffffffffffffffffffffffffffffffffffffff1681526020016005820160009054906101000a900473ffffffffffffffffffffffffffffffffffffffff1673ffffffffffffffffffffffffffffffffffffffff1673ffffffffffffffffffffffffffffffffffffffff168152602001600682015481525050838381518110611770577f4e487b7100000000000000000000000000000000000000000000000000000000600052603260045260246000fd5b6020026020010181905250818061178690615b14565b9250505b808061179590615b14565b91505061151d565b508195505050505050919050565b806117b581612ea8565b6117f4576040517f08c379a00000000000000000000000000000000000000000000000000000000081526004016117eb906155ad565b60405180910390fd5b3373ffffffffffffffffffffffffffffffffffffffff166008600084815260200190815260200160002060040160009054906101000a900473ffffffffffffffffffffffffffffffffffffffff1673ffffffffffffffffffffffffffffffffffffffff161415611899576040517f08c379a0000000000000000000000000000000000000000000000000000000008152600401611890906156ed565b60405180910390fd5b6118a282610fd0565b156118e2576040517f08c379a00000000000000000000000000000000000000000000000000000000081526004016118d9906156cd565b60405180910390fd5b600b6000838152602001908152602001600020339080600181540180825580915050600190039060005260206000200160009091909190916101000a81548173ffffffffffffffffffffffffffffffffffffffff021916908373ffffffffffffffffffffffffffffffffffffffff16021790555060086000838152602001908152602001600020600601600081548092919061197d90615b14565b91905055507fd1d3565e4ca702d5bf00d45294ece9bb8c9884b201425fce0e14ddf98b7fe437823360086000868152602001908152602001600020600601546040516119cb9392919061574a565b60405180910390a15050565b6000806002600084815260200190815260200160002060009054906101000a900473ffffffffffffffffffffffffffffffffffffffff169050600073ffffffffffffffffffffffffffffffffffffffff168173ffffffffffffffffffffffffffffffffffffffff161415611a80576040517f08c379a0000000000000000000000000000000000000000000000000000000008152600401611a779061556d565b60405180910390fd5b80915050919050565b60008073ffffffffffffffffffffffffffffffffffffffff168273ffffffffffffffffffffffffffffffffffffffff161415611afa576040517f08c379a0000000000000000000000000000000000000000000000000000000008152600401611af19061554d565b60405180910390fd5b600360008373ffffffffffffffffffffffffffffffffffffffff1673ffffffffffffffffffffffffffffffffffffffff168152602001908152602001600020549050919050565b611b49612f14565b73ffffffffffffffffffffffffffffffffffffffff16611b67611cb8565b73ffffffffffffffffffffffffffffffffffffffff1614611bbd576040517f08c379a0000000000000000000000000000000000000000000000000000000008152600401611bb4906155ed565b60405180910390fd5b611bc760006134f0565b565b611bd1612f14565b73ffffffffffffffffffffffffffffffffffffffff16611bef611cb8565b73ffffffffffffffffffffffffffffffffffffffff1614611c45576040517f08c379a0000000000000000000000000000000000000000000000000000000008152600401611c3c906155ed565b60405180910390fd5b6064818385611c5491906158ed565b611c5e91906158ed565b14611c9e576040517f08c379a0000000000000000000000000000000000000000000000000000000008152600401611c959061562d565b60405180910390fd5b82600d8190555081600e8190555080600f81905550505050565b6000600660009054906101000a900473ffffffffffffffffffffffffffffffffffffffff16905090565b606060018054611cf190615ae2565b80601f0160208091040260200160405190810160405280929190818152602001828054611d1d90615ae2565b8015611d6a5780601f10611d3f57610100808354040283529160200191611d6a565b820191906000526020600020905b815481529060010190602001808311611d4d57829003601f168201915b5050505050905090565b611d86611d7f612f14565b83836135b6565b5050565b606081611d9681612ea8565b611dd5576040517f08c379a0000000000000000000000000000000000000000000000000000000008152600401611dcc906155ad565b60405180910390fd5b6000600a6000858152602001908152602001600020805480602002602001604051908101604052809291908181526020018280548015611e3457602002820191906000526020600020905b815481526020019060010190808311611e20575b50505050509050600081519050600080600190505b82811015611ec157611e9a848281518110611e8d577f4e487b7100000000000000000000000000000000000000000000000000000000600052603260045260246000fd5b6020026020010151612ea8565b15611eae578180611eaa90615b14565b9250505b8080611eb990615b14565b915050611e49565b5060008167ffffffffffffffff811115611f04577f4e487b7100000000000000000000000000000000000000000000000000000000600052604160045260246000fd5b604051908082528060200260200182016040528015611f3d57816020015b611f2a613fe6565b815260200190600190039081611f225790505b5090506000805b838110156121c457611f95868281518110611f88577f4e487b7100000000000000000000000000000000000000000000000000000000600052603260045260246000fd5b6020026020010151612ea8565b156121b15760086000878381518110611fd7577f4e487b7100000000000000000000000000000000000000000000000000000000600052603260045260246000fd5b602002602001015181526020019081526020016000206040518060e0016040529081600082015481526020016001820154815260200160028201805461201c90615ae2565b80601f016020809104026020016040519081016040528092919081815260200182805461204890615ae2565b80156120955780601f1061206a57610100808354040283529160200191612095565b820191906000526020600020905b81548152906001019060200180831161207857829003601f168201915b50505050508152602001600382015481526020016004820160009054906101000a900473ffffffffffffffffffffffffffffffffffffffff1673ffffffffffffffffffffffffffffffffffffffff1673ffffffffffffffffffffffffffffffffffffffff1681526020016005820160009054906101000a900473ffffffffffffffffffffffffffffffffffffffff1673ffffffffffffffffffffffffffffffffffffffff1673ffffffffffffffffffffffffffffffffffffffff168152602001600682015481525050838381518110612197577f4e487b7100000000000000000000000000000000000000000000000000000000600052603260045260246000fd5b602002602001018190525081806121ad90615b14565b9250505b80806121bc90615b14565b915050611f44565b50819650505050505050919050565b806121dd81612ea8565b61221c576040517f08c379a0000000000000000000000000000000000000000000000000000000008152600401612213906155ad565b60405180910390fd5b6000341161222957600080fd5b6000600860008481526020019081526020016000206040518060e0016040529081600082015481526020016001820154815260200160028201805461226d90615ae2565b80601f016020809104026020016040519081016040528092919081815260200182805461229990615ae2565b80156122e65780601f106122bb576101008083540402835291602001916122e6565b820191906000526020600020905b8154815290600101906020018083116122c957829003601f168201915b50505050508152602001600382015481526020016004820160009054906101000a900473ffffffffffffffffffffffffffffffffffffffff1673ffffffffffffffffffffffffffffffffffffffff1673ffffffffffffffffffffffffffffffffffffffff1681526020016005820160009054906101000a900473ffffffffffffffffffffffffffffffffffffffff1673ffffffffffffffffffffffffffffffffffffffff1673ffffffffffffffffffffffffffffffffffffffff16815260200160068201548152505090508060a0015173ffffffffffffffffffffffffffffffffffffffff16816080015173ffffffffffffffffffffffffffffffffffffffff16141561246f576000600d54600e546123ff91906158ed565b90506000606434836124119190615974565b61241b9190615943565b9050826080015173ffffffffffffffffffffffffffffffffffffffff166108fc829081150290604051600060405180830381858888f19350505050158015612467573d6000803e3d6000fd5b505050612544565b6000606434600e546124819190615974565b61248b9190615943565b9050816080015173ffffffffffffffffffffffffffffffffffffffff166108fc829081150290604051600060405180830381858888f193505050501580156124d7573d6000803e3d6000fd5b506000606434600d546124ea9190615974565b6124f49190615943565b90508260a0015173ffffffffffffffffffffffffffffffffffffffff166108fc829081150290604051600060405180830381858888f19350505050158015612540573d6000803e3d6000fd5b5050505b6000606434600f546125569190615974565b6125609190615943565b905061256a611cb8565b73ffffffffffffffffffffffffffffffffffffffff166108fc829081150290604051600060405180830381858888f193505050501580156125af573d6000803e3d6000fd5b5050505050565b6125c76125c1612f14565b83612fd5565b612606576040517f08c379a00000000000000000000000000000000000000000000000000000000081526004016125fd9061568d565b60405180910390fd5b61261284848484613723565b50505050565b612620613fe6565b8161262a81612ea8565b612669576040517f08c379a0000000000000000000000000000000000000000000000000000000008152600401612660906155ad565b60405180910390fd5b600860008481526020019081526020016000206040518060e001604052908160008201548152602001600182015481526020016002820180546126ab90615ae2565b80601f01602080910402602001604051908101604052809291908181526020018280546126d790615ae2565b80156127245780601f106126f957610100808354040283529160200191612724565b820191906000526020600020905b81548152906001019060200180831161270757829003601f168201915b50505050508152602001600382015481526020016004820160009054906101000a900473ffffffffffffffffffffffffffffffffffffffff1673ffffffffffffffffffffffffffffffffffffffff1673ffffffffffffffffffffffffffffffffffffffff1681526020016005820160009054906101000a900473ffffffffffffffffffffffffffffffffffffffff1673ffffffffffffffffffffffffffffffffffffffff1673ffffffffffffffffffffffffffffffffffffffff168152602001600682015481525050915050919050565b60608161280181612ea8565b612840576040517f08c379a0000000000000000000000000000000000000000000000000000000008152600401612837906155ad565b60405180910390fd5b60006128d361284e8561377f565b61285786610f18565b612876600860008981526020019081526020016000206001015461377f565b600860008981526020019081526020016000206002016128ab600860008b81526020019081526020016000206006015461377f565b6040516020016128bf95949392919061527f565b604051602081830303815290604052613203565b90506000816040516020016128e8919061530c565b6040516020818303038152906040529050809350505050919050565b6000600560008473ffffffffffffffffffffffffffffffffffffffff1673ffffffffffffffffffffffffffffffffffffffff16815260200190815260200160002060008373ffffffffffffffffffffffffffffffffffffffff1673ffffffffffffffffffffffffffffffffffffffff16815260200190815260200160002060009054906101000a900460ff16905092915050565b6129a0612f14565b73ffffffffffffffffffffffffffffffffffffffff166129be611cb8565b73ffffffffffffffffffffffffffffffffffffffff1614612a14576040517f08c379a0000000000000000000000000000000000000000000000000000000008152600401612a0b906155ed565b60405180910390fd5b600073ffffffffffffffffffffffffffffffffffffffff168173ffffffffffffffffffffffffffffffffffffffff161415612a84576040517f08c379a0000000000000000000000000000000000000000000000000000000008152600401612a7b9061546d565b60405180910390fd5b612a8d816134f0565b50565b606080600080600190505b600754811015612ad557612aae81612ea8565b15612ac2578180612abe90615b14565b9250505b8080612acd90615b14565b915050612a9b565b508067ffffffffffffffff811115612b16577f4e487b7100000000000000000000000000000000000000000000000000000000600052604160045260246000fd5b604051908082528060200260200182016040528015612b4f57816020015b612b3c613fe6565b815260200190600190039081612b345790505b5092508067ffffffffffffffff811115612b92577f4e487b7100000000000000000000000000000000000000000000000000000000600052604160045260246000fd5b604051908082528060200260200182016040528015612bc05781602001602082028036833780820191505090505b509150600080600190505b600754811015612e3757612bde81612ea8565b15612e2457600860008281526020019081526020016000206040518060e00160405290816000820154815260200160018201548152602001600282018054612c2590615ae2565b80601f0160208091040260200160405190810160405280929190818152602001828054612c5190615ae2565b8015612c9e5780601f10612c7357610100808354040283529160200191612c9e565b820191906000526020600020905b815481529060010190602001808311612c8157829003601f168201915b50505050508152602001600382015481526020016004820160009054906101000a900473ffffffffffffffffffffffffffffffffffffffff1673ffffffffffffffffffffffffffffffffffffffff1673ffffffffffffffffffffffffffffffffffffffff1681526020016005820160009054906101000a900473ffffffffffffffffffffffffffffffffffffffff1673ffffffffffffffffffffffffffffffffffffffff1673ffffffffffffffffffffffffffffffffffffffff168152602001600682015481525050858381518110612da0577f4e487b7100000000000000000000000000000000000000000000000000000000600052603260045260246000fd5b6020026020010181905250612dca6008600083815260200190815260200160002060000154610fd0565b848381518110612e03577f4e487b7100000000000000000000000000000000000000000000000000000000600052603260045260246000fd5b6020026020010190151590811515815250508180612e2090615b14565b9250505b8080612e2f90615b14565b915050612bcb565b5050509091565b60007f01ffc9a7000000000000000000000000000000000000000000000000000000007bffffffffffffffffffffffffffffffffffffffffffffffffffffffff1916827bffffffffffffffffffffffffffffffffffffffffffffffffffffffff1916149050919050565b60008073ffffffffffffffffffffffffffffffffffffffff166002600084815260200190815260200160002060009054906101000a900473ffffffffffffffffffffffffffffffffffffffff1673ffffffffffffffffffffffffffffffffffffffff1614159050919050565b600033905090565b816004600083815260200190815260200160002060006101000a81548173ffffffffffffffffffffffffffffffffffffffff021916908373ffffffffffffffffffffffffffffffffffffffff160217905550808273ffffffffffffffffffffffffffffffffffffffff16612f8f836119d7565b73ffffffffffffffffffffffffffffffffffffffff167f8c5be1e5ebec7d5bd14f71427d1e84f3dd0314c0f7b2291e5b200ac8c7c3b92560405160405180910390a45050565b6000612fe082612ea8565b61301f576040517f08c379a0000000000000000000000000000000000000000000000000000000008152600401613016906154ed565b60405180910390fd5b600061302a836119d7565b90508073ffffffffffffffffffffffffffffffffffffffff168473ffffffffffffffffffffffffffffffffffffffff16148061309957508373ffffffffffffffffffffffffffffffffffffffff16613081846108ba565b73ffffffffffffffffffffffffffffffffffffffff16145b806130aa57506130a98185612904565b5b91505092915050565b6130be83838361392c565b816008600083815260200190815260200160002060050160006101000a81548173ffffffffffffffffffffffffffffffffffffffff021916908373ffffffffffffffffffffffffffffffffffffffff160217905550600960008373ffffffffffffffffffffffffffffffffffffffff1673ffffffffffffffffffffffffffffffffffffffff168152602001908152602001600020819080600181540180825580915050600190039060005260206000200160009091909190915055600960008473ffffffffffffffffffffffffffffffffffffffff1673ffffffffffffffffffffffffffffffffffffffff16815260200190815260200160002081815481106131f0577f4e487b7100000000000000000000000000000000000000000000000000000000600052603260045260246000fd5b9060005260206000200160009055505050565b6060600082519050600081141561322c57604051806020016040528060008152509150506133bc565b6000600360028361323d91906158ed565b6132479190615943565b60046132539190615974565b9050600060208261326491906158ed565b67ffffffffffffffff8111156132a3577f4e487b7100000000000000000000000000000000000000000000000000000000600052604160045260246000fd5b6040519080825280601f01601f1916602001820160405280156132d55781602001600182028036833780820191505090505b5090506000604051806060016040528060408152602001615cb8604091399050600181016020830160005b868110156133795760038101905062ffffff818a015116603f8160121c168401518060081b905060ff603f83600c1c1686015116810190508060081b905060ff603f8360061c1686015116810190508060081b905060ff603f831686015116810190508060e01b90508084526004840193505050613300565b50600386066001811461339357600281146133a3576133ae565b613d3d60f01b60028303526133ae565b603d60f81b60018303525b508484525050819450505050505b919050565b6133db828260405180602001604052806000815250613b88565b5050565b60006133ea826119d7565b90506133f881600084613be3565b613403600083612f1c565b6001600360008373ffffffffffffffffffffffffffffffffffffffff1673ffffffffffffffffffffffffffffffffffffffff168152602001908152602001600020600082825461345391906159ce565b925050819055506002600083815260200190815260200160002060006101000a81549073ffffffffffffffffffffffffffffffffffffffff021916905581600073ffffffffffffffffffffffffffffffffffffffff168273ffffffffffffffffffffffffffffffffffffffff167fddf252ad1be2c89b69c2b068fc378daa952ba7f163c4a11628f55a4df523b3ef60405160405180910390a45050565b6000600660009054906101000a900473ffffffffffffffffffffffffffffffffffffffff16905081600660006101000a81548173ffffffffffffffffffffffffffffffffffffffff021916908373ffffffffffffffffffffffffffffffffffffffff1602179055508173ffffffffffffffffffffffffffffffffffffffff168173ffffffffffffffffffffffffffffffffffffffff167f8be0079c531659141344cd1fd0a4f28419497f9722a3daafe3b4186f6b6457e060405160405180910390a35050565b8173ffffffffffffffffffffffffffffffffffffffff168373ffffffffffffffffffffffffffffffffffffffff161415613625576040517f08c379a000000000000000000000000000000000000000000000000000000000815260040161361c906154cd565b60405180910390fd5b80600560008573ffffffffffffffffffffffffffffffffffffffff1673ffffffffffffffffffffffffffffffffffffffff16815260200190815260200160002060008473ffffffffffffffffffffffffffffffffffffffff1673ffffffffffffffffffffffffffffffffffffffff16815260200190815260200160002060006101000a81548160ff0219169083151502179055508173ffffffffffffffffffffffffffffffffffffffff168373ffffffffffffffffffffffffffffffffffffffff167f17307eab39ab6107e8899845ad3d59bd9653f200f220920489ca2b5937696c31836040516137169190615410565b60405180910390a3505050565b61372e8484846130b3565b61373a84848484613be8565b613779576040517f08c379a00000000000000000000000000000000000000000000000000000000081526004016137709061544d565b60405180910390fd5b50505050565b606060008214156137c7576040518060400160405280600181526020017f30000000000000000000000000000000000000000000000000000000000000008152509050613927565b600082905060005b600082146137f95780806137e290615b14565b915050600a826137f29190615943565b91506137cf565b60008167ffffffffffffffff81111561383b577f4e487b7100000000000000000000000000000000000000000000000000000000600052604160045260246000fd5b6040519080825280601f01601f19166020018201604052801561386d5781602001600182028036833780820191505090505b5090505b600085146139205760018261388691906159ce565b9150600a856138959190615b5d565b60306138a191906158ed565b60f81b8183815181106138dd577f4e487b7100000000000000000000000000000000000000000000000000000000600052603260045260246000fd5b60200101907effffffffffffffffffffffffffffffffffffffffffffffffffffffffffffff1916908160001a905350600a856139199190615943565b9450613871565b8093505050505b919050565b8273ffffffffffffffffffffffffffffffffffffffff1661394c826119d7565b73ffffffffffffffffffffffffffffffffffffffff16146139a2576040517f08c379a00000000000000000000000000000000000000000000000000000000081526004016139999061560d565b60405180910390fd5b600073ffffffffffffffffffffffffffffffffffffffff168273ffffffffffffffffffffffffffffffffffffffff161415613a12576040517f08c379a0000000000000000000000000000000000000000000000000000000008152600401613a09906154ad565b60405180910390fd5b613a1d838383613be3565b613a28600082612f1c565b6001600360008573ffffffffffffffffffffffffffffffffffffffff1673ffffffffffffffffffffffffffffffffffffffff1681526020019081526020016000206000828254613a7891906159ce565b925050819055506001600360008473ffffffffffffffffffffffffffffffffffffffff1673ffffffffffffffffffffffffffffffffffffffff1681526020019081526020016000206000828254613acf91906158ed565b92505081905550816002600083815260200190815260200160002060006101000a81548173ffffffffffffffffffffffffffffffffffffffff021916908373ffffffffffffffffffffffffffffffffffffffff160217905550808273ffffffffffffffffffffffffffffffffffffffff168473ffffffffffffffffffffffffffffffffffffffff167fddf252ad1be2c89b69c2b068fc378daa952ba7f163c4a11628f55a4df523b3ef60405160405180910390a4505050565b613b928383613d7f565b613b9f6000848484613be8565b613bde576040517f08c379a0000000000000000000000000000000000000000000000000000000008152600401613bd59061544d565b60405180910390fd5b505050565b505050565b6000613c098473ffffffffffffffffffffffffffffffffffffffff16613f4d565b15613d72578373ffffffffffffffffffffffffffffffffffffffff1663150b7a02613c32612f14565b8786866040518563ffffffff1660e01b8152600401613c54949392919061536b565b602060405180830381600087803b158015613c6e57600080fd5b505af1925050508015613c9f57506040513d601f19601f82011682018060405250810190613c9c9190614375565b60015b613d22573d8060008114613ccf576040519150601f19603f3d011682016040523d82523d6000602084013e613cd4565b606091505b50600081511415613d1a576040517f08c379a0000000000000000000000000000000000000000000000000000000008152600401613d119061544d565b60405180910390fd5b805181602001fd5b63150b7a0260e01b7bffffffffffffffffffffffffffffffffffffffffffffffffffffffff1916817bffffffffffffffffffffffffffffffffffffffffffffffffffffffff191614915050613d77565b600190505b949350505050565b600073ffffffffffffffffffffffffffffffffffffffff168273ffffffffffffffffffffffffffffffffffffffff161415613def576040517f08c379a0000000000000000000000000000000000000000000000000000000008152600401613de69061558d565b60405180910390fd5b613df881612ea8565b15613e38576040517f08c379a0000000000000000000000000000000000000000000000000000000008152600401613e2f9061548d565b60405180910390fd5b613e4460008383613be3565b6001600360008473ffffffffffffffffffffffffffffffffffffffff1673ffffffffffffffffffffffffffffffffffffffff1681526020019081526020016000206000828254613e9491906158ed565b92505081905550816002600083815260200190815260200160002060006101000a81548173ffffffffffffffffffffffffffffffffffffffff021916908373ffffffffffffffffffffffffffffffffffffffff160217905550808273ffffffffffffffffffffffffffffffffffffffff16600073ffffffffffffffffffffffffffffffffffffffff167fddf252ad1be2c89b69c2b068fc378daa952ba7f163c4a11628f55a4df523b3ef60405160405180910390a45050565b600080823b905060008111915050919050565b828054613f6c90615ae2565b90600052602060002090601f016020900481019282613f8e5760008555613fd5565b82601f10613fa757805160ff1916838001178555613fd5565b82800160010185558215613fd5579182015b82811115613fd4578251825591602001919060010190613fb9565b5b509050613fe2919061404f565b5090565b6040518060e0016040528060008152602001600081526020016060815260200160008152602001600073ffffffffffffffffffffffffffffffffffffffff168152602001600073ffffffffffffffffffffffffffffffffffffffff168152602001600081525090565b5b80821115614068576000816000905550600101614050565b5090565b600061407f61407a846157b2565b615781565b90508281526020810184848401111561409757600080fd5b6140a2848285615a76565b509392505050565b60006140bd6140b8846157e2565b615781565b9050828152602081018484840111156140d557600080fd5b6140e0848285615a76565b509392505050565b6000813590506140f781615c5b565b92915050565b60008135905061410c81615c72565b92915050565b60008135905061412181615c89565b92915050565b60008151905061413681615c89565b92915050565b600082601f83011261414d57600080fd5b813561415d84826020860161406c565b91505092915050565b600082601f83011261417757600080fd5b81356141878482602086016140aa565b91505092915050565b60008135905061419f81615ca0565b92915050565b6000602082840312156141b757600080fd5b60006141c5848285016140e8565b91505092915050565b600080604083850312156141e157600080fd5b60006141ef858286016140e8565b9250506020614200858286016140e8565b9150509250929050565b60008060006060848603121561421f57600080fd5b600061422d868287016140e8565b935050602061423e868287016140e8565b925050604061424f86828701614190565b9150509250925092565b6000806000806080858703121561426f57600080fd5b600061427d878288016140e8565b945050602061428e878288016140e8565b935050604061429f87828801614190565b925050606085013567ffffffffffffffff8111156142bc57600080fd5b6142c88782880161413c565b91505092959194509250565b600080604083850312156142e757600080fd5b60006142f5858286016140e8565b9250506020614306858286016140fd565b9150509250929050565b6000806040838503121561432357600080fd5b6000614331858286016140e8565b925050602061434285828601614190565b9150509250929050565b60006020828403121561435e57600080fd5b600061436c84828501614112565b91505092915050565b60006020828403121561438757600080fd5b600061439584828501614127565b91505092915050565b600080604083850312156143b157600080fd5b600083013567ffffffffffffffff8111156143cb57600080fd5b6143d785828601614166565b92505060206143e885828601614190565b9150509250929050565b60006020828403121561440457600080fd5b600061441284828501614190565b91505092915050565b60008060006060848603121561443057600080fd5b600061443e86828701614190565b935050602061444f86828701614190565b925050604061446086828701614190565b9150509250925092565b60006144768383614587565b60208301905092915050565b600061448e83836150fa565b905092915050565b61449f81615a02565b82525050565b6144ae81615a02565b82525050565b60006144bf82615847565b6144c9818561588d565b93506144d483615812565b8060005b838110156145055781516144ec888261446a565b97506144f783615873565b9250506001810190506144d8565b5085935050505092915050565b600061451d82615852565b614527818561589e565b93508360208202850161453985615822565b8060005b8581101561457557848403895281516145568582614482565b945061456183615880565b925060208a0199505060018101905061453d565b50829750879550505050505092915050565b61459081615a14565b82525050565b61459f81615a14565b82525050565b60006145b08261585d565b6145ba81856158af565b93506145ca818560208601615a85565b6145d381615c4a565b840191505092915050565b60006145e982615868565b6145f381856158c0565b9350614603818560208601615a85565b61460c81615c4a565b840191505092915050565b600061462282615868565b61462c81856158d1565b935061463c818560208601615a85565b61464581615c4a565b840191505092915050565b600061465b82615868565b61466581856158e2565b9350614675818560208601615a85565b80840191505092915050565b6000815461468e81615ae2565b61469881866158e2565b945060018216600081146146b357600181146146c4576146f7565b60ff198316865281860193506146f7565b6146cd85615832565b60005b838110156146ef578154818901526001820191506020810190506146d0565b838801955050505b50505092915050565b600061470d6032836158d1565b91507f4552433732313a207472616e7366657220746f206e6f6e20455243373231526560008301527f63656976657220696d706c656d656e74657200000000000000000000000000006020830152604082019050919050565b60006147736026836158d1565b91507f4f776e61626c653a206e6577206f776e657220697320746865207a65726f206160008301527f64647265737300000000000000000000000000000000000000000000000000006020830152604082019050919050565b60006147d9601c836158d1565b91507f4552433732313a20746f6b656e20616c7265616479206d696e746564000000006000830152602082019050919050565b60006148196034836158e2565b91507f222c20226465736372697074696f6e223a202254686973204e4654206973206160008301527f2074776565742e222c2022696d616765223a20220000000000000000000000006020830152603482019050919050565b600061487f6024836158d1565b91507f4552433732313a207472616e7366657220746f20746865207a65726f2061646460008301527f72657373000000000000000000000000000000000000000000000000000000006020830152604082019050919050565b60006148e56019836158d1565b91507f4552433732313a20617070726f766520746f2063616c6c6572000000000000006000830152602082019050919050565b6000614925602c836158d1565b91507f4552433732313a206f70657261746f7220717565727920666f72206e6f6e657860008301527f697374656e7420746f6b656e00000000000000000000000000000000000000006020830152604082019050919050565b600061498b6028836158e2565b91507f227d202c207b202274726169745f74797065223a20224c696b6573222c20227660008301527f616c7565223a20220000000000000000000000000000000000000000000000006020830152602882019050919050565b60006149f1600d836158e2565b91507f3c2f746578743e3c2f7376673e000000000000000000000000000000000000006000830152600d82019050919050565b6000614a316011836158d1565b91507f5477656574206e6f74206c696b656420210000000000000000000000000000006000830152602082019050919050565b6000614a716038836158d1565b91507f4552433732313a20617070726f76652063616c6c6572206973206e6f74206f7760008301527f6e6572206e6f7220617070726f76656420666f7220616c6c00000000000000006020830152604082019050919050565b6000614ad7602a836158d1565b91507f4552433732313a2062616c616e636520717565727920666f7220746865207a6560008301527f726f2061646472657373000000000000000000000000000000000000000000006020830152604082019050919050565b6000614b3d6029836158d1565b91507f4552433732313a206f776e657220717565727920666f72206e6f6e657869737460008301527f656e7420746f6b656e00000000000000000000000000000000000000000000006020830152604082019050919050565b6000614ba36020836158d1565b91507f4552433732313a206d696e7420746f20746865207a65726f20616464726573736000830152602082019050919050565b6000614be36015836158d1565b91507f547765657420646f6573206e6f742065786973747300000000000000000000006000830152602082019050919050565b6000614c236013836158e2565b91507f7b226e616d65223a20224e4654776565742023000000000000000000000000006000830152601382019050919050565b6000614c63602c836158d1565b91507f4552433732313a20617070726f76656420717565727920666f72206e6f6e657860008301527f697374656e7420746f6b656e00000000000000000000000000000000000000006020830152604082019050919050565b6000614cc96020836158d1565b91507f4f776e61626c653a2063616c6c6572206973206e6f7420746865206f776e65726000830152602082019050919050565b6000614d096029836158d1565b91507f4552433732313a207472616e73666572206f6620746f6b656e2074686174206960008301527f73206e6f74206f776e00000000000000000000000000000000000000000000006020830152604082019050919050565b6000614d6f6040836158e2565b91507f222c202261747472696275746573223a205b207b202274726169745f7479706560008301527f223a2022506172656e74205477656574204964222c202276616c7565223a20226020830152604082019050919050565b6000614dd5601e836158d1565b91507f416c6c2070657263656e74732073686f756c64207265616368203130302500006000830152602082019050919050565b6000614e15601b836158d1565b91507f5477656574206d7573742068617665206120636f6e74656e74202100000000006000830152602082019050919050565b6000614e556021836158d1565b91507f4552433732313a20617070726f76616c20746f2063757272656e74206f776e6560008301527f72000000000000000000000000000000000000000000000000000000000000006020830152604082019050919050565b6000614ebb6029836158e2565b91507f227d2c207b202274726169745f74797065223a2022436f6e74656e74222c202260008301527f76616c7565223a202200000000000000000000000000000000000000000000006020830152602982019050919050565b6000614f21601d836158e2565b91507f646174613a6170706c69636174696f6e2f6a736f6e3b6261736536342c0000006000830152601d82019050919050565b6000614f616031836158d1565b91507f4552433732313a207472616e736665722063616c6c6572206973206e6f74206f60008301527f776e6572206e6f7220617070726f7665640000000000000000000000000000006020830152604082019050919050565b6000614fc7601b836158d1565b91507f506172656e7420747765657420646f6573206e6f7420657869737400000000006000830152602082019050919050565b60006150076015836158d1565b91507f547765657420616c7265616479206c696b6564202100000000000000000000006000830152602082019050919050565b60006150476004836158e2565b91507f227d5d7d000000000000000000000000000000000000000000000000000000006000830152600482019050919050565b6000615087601a836158e2565b91507f646174613a696d6167652f7376672b786d6c3b6261736536342c0000000000006000830152601a82019050919050565b60006150c7601f836158d1565b91507f596f752063616e2774206c696b6520796f7572206f776e2074776565742021006000830152602082019050919050565b600060e0830160008301516151126000860182615232565b5060208301516151256020860182615232565b506040830151848203604086015261513d82826145de565b91505060608301516151526060860182615232565b5060808301516151656080860182614496565b5060a083015161517860a0860182614496565b5060c083015161518b60c0860182615232565b508091505092915050565b600060e0830160008301516151ae6000860182615232565b5060208301516151c16020860182615232565b50604083015184820360408601526151d982826145de565b91505060608301516151ee6060860182615232565b5060808301516152016080860182614496565b5060a083015161521460a0860182614496565b5060c083015161522760c0860182615232565b508091505092915050565b61523b81615a6c565b82525050565b61524a81615a6c565b82525050565b600061525c8285614681565b91506152688284614681565b9150615273826149e4565b91508190509392505050565b600061528a82614c16565b91506152968288614650565b91506152a18261480c565b91506152ad8287614650565b91506152b882614d62565b91506152c48286614650565b91506152cf82614eae565b91506152db8285614681565b91506152e68261497e565b91506152f28284614650565b91506152fd8261503a565b91508190509695505050505050565b600061531782614f14565b91506153238284614650565b915081905092915050565b60006153398261507a565b91506153458284614650565b915081905092915050565b600060208201905061536560008301846144a5565b92915050565b600060808201905061538060008301876144a5565b61538d60208301866144a5565b61539a6040830185615241565b81810360608301526153ac81846145a5565b905095945050505050565b600060208201905081810360008301526153d18184614512565b905092915050565b600060408201905081810360008301526153f38185614512565b9050818103602083015261540781846144b4565b90509392505050565b60006020820190506154256000830184614596565b92915050565b600060208201905081810360008301526154458184614617565b905092915050565b6000602082019050818103600083015261546681614700565b9050919050565b6000602082019050818103600083015261548681614766565b9050919050565b600060208201905081810360008301526154a6816147cc565b9050919050565b600060208201905081810360008301526154c681614872565b9050919050565b600060208201905081810360008301526154e6816148d8565b9050919050565b6000602082019050818103600083015261550681614918565b9050919050565b6000602082019050818103600083015261552681614a24565b9050919050565b6000602082019050818103600083015261554681614a64565b9050919050565b6000602082019050818103600083015261556681614aca565b9050919050565b6000602082019050818103600083015261558681614b30565b9050919050565b600060208201905081810360008301526155a681614b96565b9050919050565b600060208201905081810360008301526155c681614bd6565b9050919050565b600060208201905081810360008301526155e681614c56565b9050919050565b6000602082019050818103600083015261560681614cbc565b9050919050565b6000602082019050818103600083015261562681614cfc565b9050919050565b6000602082019050818103600083015261564681614dc8565b9050919050565b6000602082019050818103600083015261566681614e08565b9050919050565b6000602082019050818103600083015261568681614e48565b9050919050565b600060208201905081810360008301526156a681614f54565b9050919050565b600060208201905081810360008301526156c681614fba565b9050919050565b600060208201905081810360008301526156e681614ffa565b9050919050565b60006020820190508181036000830152615706816150ba565b9050919050565b600060208201905081810360008301526157278184615196565b905092915050565b60006020820190506157446000830184615241565b92915050565b600060608201905061575f6000830186615241565b61576c60208301856144a5565b6157796040830184615241565b949350505050565b6000604051905081810181811067ffffffffffffffff821117156157a8576157a7615c1b565b5b8060405250919050565b600067ffffffffffffffff8211156157cd576157cc615c1b565b5b601f19601f8301169050602081019050919050565b600067ffffffffffffffff8211156157fd576157fc615c1b565b5b601f19601f8301169050602081019050919050565b6000819050602082019050919050565b6000819050602082019050919050565b60008190508160005260206000209050919050565b600081519050919050565b600081519050919050565b600081519050919050565b600081519050919050565b6000602082019050919050565b6000602082019050919050565b600082825260208201905092915050565b600082825260208201905092915050565b600082825260208201905092915050565b600082825260208201905092915050565b600082825260208201905092915050565b600081905092915050565b60006158f882615a6c565b915061590383615a6c565b9250827fffffffffffffffffffffffffffffffffffffffffffffffffffffffffffffffff0382111561593857615937615b8e565b5b828201905092915050565b600061594e82615a6c565b915061595983615a6c565b92508261596957615968615bbd565b5b828204905092915050565b600061597f82615a6c565b915061598a83615a6c565b9250817fffffffffffffffffffffffffffffffffffffffffffffffffffffffffffffffff04831182151516156159c3576159c2615b8e565b5b828202905092915050565b60006159d982615a6c565b91506159e483615a6c565b9250828210156159f7576159f6615b8e565b5b828203905092915050565b6000615a0d82615a4c565b9050919050565b60008115159050919050565b60007fffffffff0000000000000000000000000000000000000000000000000000000082169050919050565b600073ffffffffffffffffffffffffffffffffffffffff82169050919050565b6000819050919050565b82818337600083830152505050565b60005b83811015615aa3578082015181840152602081019050615a88565b83811115615ab2576000848401525b50505050565b6000615ac382615a6c565b91506000821415615ad757615ad6615b8e565b5b600182039050919050565b60006002820490506001821680615afa57607f821691505b60208210811415615b0e57615b0d615bec565b5b50919050565b6000615b1f82615a6c565b91507fffffffffffffffffffffffffffffffffffffffffffffffffffffffffffffffff821415615b5257615b51615b8e565b5b600182019050919050565b6000615b6882615a6c565b9150615b7383615a6c565b925082615b8357615b82615bbd565b5b828206905092915050565b7f4e487b7100000000000000000000000000000000000000000000000000000000600052601160045260246000fd5b7f4e487b7100000000000000000000000000000000000000000000000000000000600052601260045260246000fd5b7f4e487b7100000000000000000000000000000000000000000000000000000000600052602260045260246000fd5b7f4e487b7100000000000000000000000000000000000000000000000000000000600052604160045260246000fd5b6000601f19601f8301169050919050565b615c6481615a02565b8114615c6f57600080fd5b50565b615c7b81615a14565b8114615c8657600080fd5b50565b615c9281615a20565b8114615c9d57600080fd5b50565b615ca981615a6c565b8114615cb457600080fd5b5056fe4142434445464748494a4b4c4d4e4f505152535455565758595a6162636465666768696a6b6c6d6e6f707172737475767778797a303132333435363738392b2fa264697066735822122038755667f759b40af9572f16ae65e73f4fae8890b355bb357fd6a57716b679e364736f6c634300080000333c73766720786d6c6e733d27687474703a2f2f7777772e77332e6f72672f323030302f73766727207072657365727665417370656374526174696f3d27784d696e594d696e206d656574272076696577426f783d273020302033353020333530273e3c7374796c653e2e62617365207b2066696c6c3a2077686974653b20666f6e742d66616d696c793a2073657269663b20666f6e742d73697a653a20323470783b207d3c2f7374796c653e3c726563742077696474683d273130302527206865696768743d2731303025272066696c6c3d27626c61636b27202f3e3c7465787420783d273530252720793d273530252720636c6173733d27626173652720646f6d696e616e742d626173656c696e653d276d6964646c652720746578742d616e63686f723d276d6964646c65273e",
  "linkReferences": {},
  "deployedLinkReferences": {}
}