{
  "_format": "hh-sol-artifact-1",
  "contractName": "NFTwitter",
  "sourceName": "contracts/NFTwitter.sol",
  "abi": [
    {
      "inputs": [],
      "stateMutability": "nonpayable",
      "type": "constructor"
    },
    {
      "anonymous": false,
      "inputs": [
        {
          "indexed": true,
          "internalType": "address",
          "name": "owner",
          "type": "address"
        },
        {
          "indexed": true,
          "internalType": "address",
          "name": "approved",
          "type": "address"
        },
        {
          "indexed": true,
          "internalType": "uint256",
          "name": "tokenId",
          "type": "uint256"
        }
      ],
      "name": "Approval",
      "type": "event"
    },
    {
      "anonymous": false,
      "inputs": [
        {
          "indexed": true,
          "internalType": "address",
          "name": "owner",
          "type": "address"
        },
        {
          "indexed": true,
          "internalType": "address",
          "name": "operator",
          "type": "address"
        },
        {
          "indexed": false,
          "internalType": "bool",
          "name": "approved",
          "type": "bool"
        }
      ],
      "name": "ApprovalForAll",
      "type": "event"
    },
    {
      "anonymous": false,
      "inputs": [
        {
          "indexed": true,
          "internalType": "address",
          "name": "from",
          "type": "address"
        },
        {
          "indexed": true,
          "internalType": "address",
          "name": "to",
          "type": "address"
        },
        {
          "indexed": true,
          "internalType": "uint256",
          "name": "tokenId",
          "type": "uint256"
        }
      ],
      "name": "Transfer",
      "type": "event"
    },
    {
      "anonymous": false,
      "inputs": [
        {
          "indexed": false,
          "internalType": "uint256",
          "name": "tweetId",
          "type": "uint256"
        }
      ],
      "name": "newTweet",
      "type": "event"
    },
    {
      "anonymous": false,
      "inputs": [
        {
          "indexed": false,
          "internalType": "uint256",
          "name": "tweetId",
          "type": "uint256"
        }
      ],
      "name": "tweetDeleted",
      "type": "event"
    },
    {
      "inputs": [
        {
          "internalType": "address",
          "name": "to",
          "type": "address"
        },
        {
          "internalType": "uint256",
          "name": "tokenId",
          "type": "uint256"
        }
      ],
      "name": "approve",
      "outputs": [],
      "stateMutability": "nonpayable",
      "type": "function"
    },
    {
      "inputs": [
        {
          "internalType": "address",
          "name": "owner",
          "type": "address"
        }
      ],
      "name": "balanceOf",
      "outputs": [
        {
          "internalType": "uint256",
          "name": "",
          "type": "uint256"
        }
      ],
      "stateMutability": "view",
      "type": "function"
    },
    {
      "inputs": [
        {
          "internalType": "uint256",
          "name": "_tokenId",
          "type": "uint256"
        }
      ],
      "name": "deleteTweet",
      "outputs": [],
      "stateMutability": "nonpayable",
      "type": "function"
    },
    {
      "inputs": [
        {
          "internalType": "uint256",
          "name": "tokenId",
          "type": "uint256"
        }
      ],
      "name": "getApproved",
      "outputs": [
        {
          "internalType": "address",
          "name": "",
          "type": "address"
        }
      ],
      "stateMutability": "view",
      "type": "function"
    },
    {
      "inputs": [
        {
          "internalType": "uint256",
          "name": "_tokenId",
          "type": "uint256"
        }
      ],
      "name": "getReplies",
      "outputs": [
        {
          "components": [
            {
              "internalType": "uint256",
              "name": "parentId",
              "type": "uint256"
            },
            {
              "internalType": "string",
              "name": "content",
              "type": "string"
            },
            {
              "internalType": "uint256",
              "name": "timestamp",
              "type": "uint256"
            },
            {
              "internalType": "address",
              "name": "author",
              "type": "address"
            },
            {
              "internalType": "address",
              "name": "owner",
              "type": "address"
            }
          ],
          "internalType": "struct NFTwitter.Tweet[]",
          "name": "",
          "type": "tuple[]"
        }
      ],
      "stateMutability": "view",
      "type": "function"
    },
    {
      "inputs": [
        {
          "internalType": "uint256",
          "name": "_tokenId",
          "type": "uint256"
        }
      ],
      "name": "getTweet",
      "outputs": [
        {
          "components": [
            {
              "internalType": "uint256",
              "name": "parentId",
              "type": "uint256"
            },
            {
              "internalType": "string",
              "name": "content",
              "type": "string"
            },
            {
              "internalType": "uint256",
              "name": "timestamp",
              "type": "uint256"
            },
            {
              "internalType": "address",
              "name": "author",
              "type": "address"
            },
            {
              "internalType": "address",
              "name": "owner",
              "type": "address"
            }
          ],
          "internalType": "struct NFTwitter.Tweet",
          "name": "",
          "type": "tuple"
        }
      ],
      "stateMutability": "view",
      "type": "function"
    },
    {
      "inputs": [],
      "name": "getTweets",
      "outputs": [
        {
          "components": [
            {
              "internalType": "uint256",
              "name": "parentId",
              "type": "uint256"
            },
            {
              "internalType": "string",
              "name": "content",
              "type": "string"
            },
            {
              "internalType": "uint256",
              "name": "timestamp",
              "type": "uint256"
            },
            {
              "internalType": "address",
              "name": "author",
              "type": "address"
            },
            {
              "internalType": "address",
              "name": "owner",
              "type": "address"
            }
          ],
          "internalType": "struct NFTwitter.Tweet[]",
          "name": "",
          "type": "tuple[]"
        }
      ],
      "stateMutability": "view",
      "type": "function"
    },
    {
      "inputs": [
        {
          "internalType": "address",
          "name": "owner",
          "type": "address"
        }
      ],
      "name": "getTweetsOfOwner",
      "outputs": [
        {
          "components": [
            {
              "internalType": "uint256",
              "name": "parentId",
              "type": "uint256"
            },
            {
              "internalType": "string",
              "name": "content",
              "type": "string"
            },
            {
              "internalType": "uint256",
              "name": "timestamp",
              "type": "uint256"
            },
            {
              "internalType": "address",
              "name": "author",
              "type": "address"
            },
            {
              "internalType": "address",
              "name": "owner",
              "type": "address"
            }
          ],
          "internalType": "struct NFTwitter.Tweet[]",
          "name": "",
          "type": "tuple[]"
        }
      ],
      "stateMutability": "view",
      "type": "function"
    },
    {
      "inputs": [
        {
          "internalType": "address",
          "name": "owner",
          "type": "address"
        },
        {
          "internalType": "address",
          "name": "operator",
          "type": "address"
        }
      ],
      "name": "isApprovedForAll",
      "outputs": [
        {
          "internalType": "bool",
          "name": "",
          "type": "bool"
        }
      ],
      "stateMutability": "view",
      "type": "function"
    },
    {
      "inputs": [],
      "name": "name",
      "outputs": [
        {
          "internalType": "string",
          "name": "",
          "type": "string"
        }
      ],
      "stateMutability": "view",
      "type": "function"
    },
    {
      "inputs": [
        {
          "internalType": "uint256",
          "name": "tokenId",
          "type": "uint256"
        }
      ],
      "name": "ownerOf",
      "outputs": [
        {
          "internalType": "address",
          "name": "",
          "type": "address"
        }
      ],
      "stateMutability": "view",
      "type": "function"
    },
    {
      "inputs": [
        {
          "internalType": "address",
          "name": "from",
          "type": "address"
        },
        {
          "internalType": "address",
          "name": "to",
          "type": "address"
        },
        {
          "internalType": "uint256",
          "name": "tokenId",
          "type": "uint256"
        }
      ],
      "name": "safeTransferFrom",
      "outputs": [],
      "stateMutability": "nonpayable",
      "type": "function"
    },
    {
      "inputs": [
        {
          "internalType": "address",
          "name": "from",
          "type": "address"
        },
        {
          "internalType": "address",
          "name": "to",
          "type": "address"
        },
        {
          "internalType": "uint256",
          "name": "tokenId",
          "type": "uint256"
        },
        {
          "internalType": "bytes",
          "name": "_data",
          "type": "bytes"
        }
      ],
      "name": "safeTransferFrom",
      "outputs": [],
      "stateMutability": "nonpayable",
      "type": "function"
    },
    {
      "inputs": [
        {
          "internalType": "address",
          "name": "operator",
          "type": "address"
        },
        {
          "internalType": "bool",
          "name": "approved",
          "type": "bool"
        }
      ],
      "name": "setApprovalForAll",
      "outputs": [],
      "stateMutability": "nonpayable",
      "type": "function"
    },
    {
      "inputs": [
        {
          "internalType": "bytes4",
          "name": "interfaceId",
          "type": "bytes4"
        }
      ],
      "name": "supportsInterface",
      "outputs": [
        {
          "internalType": "bool",
          "name": "",
          "type": "bool"
        }
      ],
      "stateMutability": "view",
      "type": "function"
    },
    {
      "inputs": [],
      "name": "symbol",
      "outputs": [
        {
          "internalType": "string",
          "name": "",
          "type": "string"
        }
      ],
      "stateMutability": "view",
      "type": "function"
    },
    {
      "inputs": [
        {
          "internalType": "uint256",
          "name": "_tokenId",
          "type": "uint256"
        }
      ],
      "name": "tokenURI",
      "outputs": [
        {
          "internalType": "string",
          "name": "",
          "type": "string"
        }
      ],
      "stateMutability": "view",
      "type": "function"
    },
    {
      "inputs": [
        {
          "internalType": "address",
          "name": "from",
          "type": "address"
        },
        {
          "internalType": "address",
          "name": "to",
          "type": "address"
        },
        {
          "internalType": "uint256",
          "name": "tokenId",
          "type": "uint256"
        }
      ],
      "name": "transferFrom",
      "outputs": [],
      "stateMutability": "nonpayable",
      "type": "function"
    },
    {
      "inputs": [
        {
          "internalType": "string",
          "name": "content",
          "type": "string"
        },
        {
          "internalType": "uint256",
          "name": "parentId",
          "type": "uint256"
        }
      ],
      "name": "tweet",
      "outputs": [],
      "stateMutability": "nonpayable",
      "type": "function"
    },
    {
      "inputs": [
        {
          "internalType": "uint256",
          "name": "_tokenId",
          "type": "uint256"
        }
      ],
      "name": "tweetImageURI",
      "outputs": [
        {
          "internalType": "string",
          "name": "",
          "type": "string"
        }
      ],
      "stateMutability": "view",
      "type": "function"
    },
    {
      "inputs": [
        {
          "internalType": "uint256",
          "name": "",
          "type": "uint256"
        }
      ],
      "name": "tweets",
      "outputs": [
        {
          "internalType": "uint256",
          "name": "parentId",
          "type": "uint256"
        },
        {
          "internalType": "string",
          "name": "content",
          "type": "string"
        },
        {
          "internalType": "uint256",
          "name": "timestamp",
          "type": "uint256"
        },
        {
          "internalType": "address",
          "name": "author",
          "type": "address"
        },
        {
          "internalType": "address",
          "name": "owner",
          "type": "address"
        }
      ],
      "stateMutability": "view",
      "type": "function"
    },
    {
      "inputs": [
        {
          "internalType": "address",
          "name": "",
          "type": "address"
        },
        {
          "internalType": "uint256",
          "name": "",
          "type": "uint256"
        }
      ],
      "name": "tweetsByOwner",
      "outputs": [
        {
          "internalType": "uint256",
          "name": "",
          "type": "uint256"
        }
      ],
      "stateMutability": "view",
      "type": "function"
    },
    {
      "inputs": [
        {
          "internalType": "uint256",
          "name": "",
          "type": "uint256"
        },
        {
          "internalType": "uint256",
          "name": "",
          "type": "uint256"
        }
      ],
      "name": "tweetsReplies",
      "outputs": [
        {
          "internalType": "uint256",
          "name": "",
          "type": "uint256"
        }
      ],
      "stateMutability": "view",
      "type": "function"
    }
  ],
  "bytecode": "0x608060405260405180610160016040528061012f815260200162004b1361012f9139600a908051906020019062000038929190620000f5565b503480156200004657600080fd5b506040518060400160405280600981526020017f4e465477697474657200000000000000000000000000000000000000000000008152506040518060400160405280600481526020017f4e465454000000000000000000000000000000000000000000000000000000008152508160009080519060200190620000cb929190620000f5565b508060019080519060200190620000e4929190620000f5565b50505060016006819055506200020a565b8280546200010390620001a5565b90600052602060002090601f01602090048101928262000127576000855562000173565b82601f106200014257805160ff191683800117855562000173565b8280016001018555821562000173579182015b828111156200017257825182559160200191906001019062000155565b5b50905062000182919062000186565b5090565b5b80821115620001a157600081600090555060010162000187565b5090565b60006002820490506001821680620001be57607f821691505b60208210811415620001d557620001d4620001db565b5b50919050565b7f4e487b7100000000000000000000000000000000000000000000000000000000600052602260045260246000fd5b6148f9806200021a6000396000f3fe608060405234801561001057600080fd5b506004361061014d5760003560e01c80636352211e116100c3578063c3ad5ecb1161007c578063c3ad5ecb146103d2578063c87b56dd14610402578063cc47f80f14610432578063e8d857b014610462578063e985e9c514610496578063fc86741f146104c65761014d565b80636352211e146102ec57806370a082311461031c57806395d89b411461034c578063a22cb4651461036a578063ae58449d14610386578063b88d4fde146103b65761014d565b80633a6462d0116101155780633a6462d0146102085780633cb6bbde1461023857806342842e0e146102685780634caf9511146102845780635775912a146102a05780635f7c8c0f146102bc5761014d565b806301ffc9a71461015257806306fdde0314610182578063081812fc146101a0578063095ea7b3146101d057806323b872dd146101ec575b600080fd5b61016c6004803603810190610167919061334f565b6104e4565b6040516101799190614094565b60405180910390f35b61018a6105c6565b60405161019791906140af565b60405180910390f35b6101ba60048036038101906101b591906133f5565b610658565b6040516101c7919061400b565b60405180910390f35b6101ea60048036038101906101e59190613313565b6106dd565b005b6102066004803603810190610201919061320d565b6107f5565b005b610222600480360381019061021d919061341e565b610855565b60405161022f9190614318565b60405180910390f35b610252600480360381019061024d91906133f5565b610886565b60405161025f91906140af565b60405180910390f35b610282600480360381019061027d919061320d565b61093e565b005b61029e600480360381019061029991906133a1565b61095e565b005b6102ba60048036038101906102b591906133f5565b610c0c565b005b6102d660048036038101906102d191906131a8565b610c4f565b6040516102e39190614072565b60405180910390f35b610306600480360381019061030191906133f5565b611066565b604051610313919061400b565b60405180910390f35b610336600480360381019061033191906131a8565b611118565b6040516103439190614318565b60405180910390f35b6103546111d0565b60405161036191906140af565b60405180910390f35b610384600480360381019061037f91906132d7565b611262565b005b6103a0600480360381019061039b91906133f5565b611278565b6040516103ad9190614072565b60405180910390f35b6103d060048036038101906103cb919061325c565b6116ad565b005b6103ec60048036038101906103e791906133f5565b61170f565b6040516103f991906142f6565b60405180910390f35b61041c600480360381019061041791906133f5565b6118d8565b60405161042991906140af565b60405180910390f35b61044c60048036038101906104479190613313565b6119c7565b6040516104599190614318565b60405180910390f35b61047c600480360381019061047791906133f5565b6119f8565b60405161048d959493929190614333565b60405180910390f35b6104b060048036038101906104ab91906131d1565b611af6565b6040516104bd9190614094565b60405180910390f35b6104ce611b8a565b6040516104db9190614072565b60405180910390f35b60007f80ac58cd000000000000000000000000000000000000000000000000000000007bffffffffffffffffffffffffffffffffffffffffffffffffffffffff1916827bffffffffffffffffffffffffffffffffffffffffffffffffffffffff191614806105af57507f5b5e139f000000000000000000000000000000000000000000000000000000007bffffffffffffffffffffffffffffffffffffffffffffffffffffffff1916827bffffffffffffffffffffffffffffffffffffffffffffffffffffffff1916145b806105bf57506105be82611e4d565b5b9050919050565b6060600080546105d59061468b565b80601f01602080910402602001604051908101604052809291908181526020018280546106019061468b565b801561064e5780601f106106235761010080835404028352916020019161064e565b820191906000526020600020905b81548152906001019060200180831161063157829003601f168201915b5050505050905090565b600061066382611eb7565b6106a2576040517f08c379a000000000000000000000000000000000000000000000000000000000815260040161069990614256565b60405180910390fd5b6004600083815260200190815260200160002060009054906101000a900473ffffffffffffffffffffffffffffffffffffffff169050919050565b60006106e882611066565b90508073ffffffffffffffffffffffffffffffffffffffff168373ffffffffffffffffffffffffffffffffffffffff161415610759576040517f08c379a000000000000000000000000000000000000000000000000000000000815260040161075090614296565b60405180910390fd5b8073ffffffffffffffffffffffffffffffffffffffff16610778611f23565b73ffffffffffffffffffffffffffffffffffffffff1614806107a757506107a6816107a1611f23565b611af6565b5b6107e6576040517f08c379a00000000000000000000000000000000000000000000000000000000081526004016107dd906141b6565b60405180910390fd5b6107f08383611f2b565b505050565b610806610800611f23565b82611fe4565b610845576040517f08c379a000000000000000000000000000000000000000000000000000000000815260040161083c906142b6565b60405180910390fd5b6108508383836120c2565b505050565b6009602052816000526040600020818154811061087157600080fd5b90600052602060002001600091509150505481565b60608161089281611eb7565b6108d1576040517f08c379a00000000000000000000000000000000000000000000000000000000081526004016108c890614236565b60405180910390fd5b6000600a600760008681526020019081526020016000206001016040516020016108fc929190613f23565b604051602081830303815290604052905061091681612212565b6040516020016109269190613fe9565b60405160208183030381529060405292505050919050565b610959838383604051806020016040528060008152506116ad565b505050565b6000600654905061096e82611eb7565b806109795750600082145b6109b8576040517f08c379a00000000000000000000000000000000000000000000000000000000081526004016109af906142d6565b60405180910390fd5b6109c233826123d0565b6040518060a001604052808381526020018481526020014281526020013373ffffffffffffffffffffffffffffffffffffffff1681526020013373ffffffffffffffffffffffffffffffffffffffff1681525060076000838152602001908152602001600020600082015181600001556020820151816001019080519060200190610a4e929190612f71565b506040820151816002015560608201518160030160006101000a81548173ffffffffffffffffffffffffffffffffffffffff021916908373ffffffffffffffffffffffffffffffffffffffff16021790555060808201518160040160006101000a81548173ffffffffffffffffffffffffffffffffffffffff021916908373ffffffffffffffffffffffffffffffffffffffff160217905550905050600860003373ffffffffffffffffffffffffffffffffffffffff1673ffffffffffffffffffffffffffffffffffffffff168152602001908152602001600020600654908060018154018082558091505060019003906000526020600020016000909190919091505560008214610b9557600960008381526020019081526020016000208190806001815401808255809150506001900390600052602060002001600090919091909150555b60066000815480929190610ba8906146bd565b9190505550610bd06040518060600160405280602381526020016148616023913983856123ee565b7f74897990c0e4cf5c3ba4e6719715fa3d7aa7d79982e9a12edbdb950535f8e98881604051610bff9190614318565b60405180910390a1505050565b610c158161248d565b7f277cb36cc6dc1bef71921552175fd7d027ba1ce9421ad993bed83e64ddbfd2bd81604051610c449190614318565b60405180910390a150565b60606000600860008473ffffffffffffffffffffffffffffffffffffffff1673ffffffffffffffffffffffffffffffffffffffff168152602001908152602001600020805480602002602001604051908101604052809291908181526020018280548015610cdc57602002820191906000526020600020905b815481526020019060010190808311610cc8575b50505050509050600081519050600080600190505b82811015610d6957610d42848281518110610d35577f4e487b7100000000000000000000000000000000000000000000000000000000600052603260045260246000fd5b6020026020010151611eb7565b15610d56578180610d52906146bd565b9250505b8080610d61906146bd565b915050610cf1565b5060008167ffffffffffffffff811115610dac577f4e487b7100000000000000000000000000000000000000000000000000000000600052604160045260246000fd5b604051908082528060200260200182016040528015610de557816020015b610dd2612ff7565b815260200190600190039081610dca5790505b5090506000805b8381101561105857610e3d868281518110610e30577f4e487b7100000000000000000000000000000000000000000000000000000000600052603260045260246000fd5b6020026020010151611eb7565b156110455760076000878381518110610e7f577f4e487b7100000000000000000000000000000000000000000000000000000000600052603260045260246000fd5b602002602001015181526020019081526020016000206040518060a001604052908160008201548152602001600182018054610eba9061468b565b80601f0160208091040260200160405190810160405280929190818152602001828054610ee69061468b565b8015610f335780601f10610f0857610100808354040283529160200191610f33565b820191906000526020600020905b815481529060010190602001808311610f1657829003601f168201915b50505050508152602001600282015481526020016003820160009054906101000a900473ffffffffffffffffffffffffffffffffffffffff1673ffffffffffffffffffffffffffffffffffffffff1673ffffffffffffffffffffffffffffffffffffffff1681526020016004820160009054906101000a900473ffffffffffffffffffffffffffffffffffffffff1673ffffffffffffffffffffffffffffffffffffffff1673ffffffffffffffffffffffffffffffffffffffff168152505083838151811061102b577f4e487b7100000000000000000000000000000000000000000000000000000000600052603260045260246000fd5b60200260200101819052508180611041906146bd565b9250505b8080611050906146bd565b915050610dec565b508195505050505050919050565b6000806002600084815260200190815260200160002060009054906101000a900473ffffffffffffffffffffffffffffffffffffffff169050600073ffffffffffffffffffffffffffffffffffffffff168173ffffffffffffffffffffffffffffffffffffffff16141561110f576040517f08c379a0000000000000000000000000000000000000000000000000000000008152600401611106906141f6565b60405180910390fd5b80915050919050565b60008073ffffffffffffffffffffffffffffffffffffffff168273ffffffffffffffffffffffffffffffffffffffff161415611189576040517f08c379a0000000000000000000000000000000000000000000000000000000008152600401611180906141d6565b60405180910390fd5b600360008373ffffffffffffffffffffffffffffffffffffffff1673ffffffffffffffffffffffffffffffffffffffff168152602001908152602001600020549050919050565b6060600180546111df9061468b565b80601f016020809104026020016040519081016040528092919081815260200182805461120b9061468b565b80156112585780601f1061122d57610100808354040283529160200191611258565b820191906000526020600020905b81548152906001019060200180831161123b57829003601f168201915b5050505050905090565b61127461126d611f23565b838361259e565b5050565b60608161128481611eb7565b6112c3576040517f08c379a00000000000000000000000000000000000000000000000000000000081526004016112ba90614236565b60405180910390fd5b60006009600085815260200190815260200160002080548060200260200160405190810160405280929190818152602001828054801561132257602002820191906000526020600020905b81548152602001906001019080831161130e575b50505050509050600081519050600080600190505b828110156113af5761138884828151811061137b577f4e487b7100000000000000000000000000000000000000000000000000000000600052603260045260246000fd5b6020026020010151611eb7565b1561139c578180611398906146bd565b9250505b80806113a7906146bd565b915050611337565b5060008167ffffffffffffffff8111156113f2577f4e487b7100000000000000000000000000000000000000000000000000000000600052604160045260246000fd5b60405190808252806020026020018201604052801561142b57816020015b611418612ff7565b8152602001906001900390816114105790505b5090506000805b8381101561169e57611483868281518110611476577f4e487b7100000000000000000000000000000000000000000000000000000000600052603260045260246000fd5b6020026020010151611eb7565b1561168b57600760008783815181106114c5577f4e487b7100000000000000000000000000000000000000000000000000000000600052603260045260246000fd5b602002602001015181526020019081526020016000206040518060a0016040529081600082015481526020016001820180546115009061468b565b80601f016020809104026020016040519081016040528092919081815260200182805461152c9061468b565b80156115795780601f1061154e57610100808354040283529160200191611579565b820191906000526020600020905b81548152906001019060200180831161155c57829003601f168201915b50505050508152602001600282015481526020016003820160009054906101000a900473ffffffffffffffffffffffffffffffffffffffff1673ffffffffffffffffffffffffffffffffffffffff1673ffffffffffffffffffffffffffffffffffffffff1681526020016004820160009054906101000a900473ffffffffffffffffffffffffffffffffffffffff1673ffffffffffffffffffffffffffffffffffffffff1673ffffffffffffffffffffffffffffffffffffffff1681525050838381518110611671577f4e487b7100000000000000000000000000000000000000000000000000000000600052603260045260246000fd5b60200260200101819052508180611687906146bd565b9250505b8080611696906146bd565b915050611432565b50819650505050505050919050565b6116be6116b8611f23565b83611fe4565b6116fd576040517f08c379a00000000000000000000000000000000000000000000000000000000081526004016116f4906142b6565b60405180910390fd5b6117098484848461270b565b50505050565b611717612ff7565b8161172181611eb7565b611760576040517f08c379a000000000000000000000000000000000000000000000000000000000815260040161175790614236565b60405180910390fd5b600760008481526020019081526020016000206040518060a0016040529081600082015481526020016001820180546117989061468b565b80601f01602080910402602001604051908101604052809291908181526020018280546117c49061468b565b80156118115780601f106117e657610100808354040283529160200191611811565b820191906000526020600020905b8154815290600101906020018083116117f457829003601f168201915b50505050508152602001600282015481526020016003820160009054906101000a900473ffffffffffffffffffffffffffffffffffffffff1673ffffffffffffffffffffffffffffffffffffffff1673ffffffffffffffffffffffffffffffffffffffff1681526020016004820160009054906101000a900473ffffffffffffffffffffffffffffffffffffffff1673ffffffffffffffffffffffffffffffffffffffff1673ffffffffffffffffffffffffffffffffffffffff1681525050915050919050565b6060816118e481611eb7565b611923576040517f08c379a000000000000000000000000000000000000000000000000000000000815260040161191a90614236565b60405180910390fd5b600061199661193185612767565b61193a86610886565b6119596007600089815260200190815260200160002060000154612767565b600760008981526020019081526020016000206001016040516020016119829493929190613f52565b604051602081830303815290604052612212565b90506000816040516020016119ab9190613fc7565b6040516020818303038152906040529050809350505050919050565b600860205281600052604060002081815481106119e357600080fd5b90600052602060002001600091509150505481565b6007602052806000526040600020600091509050806000015490806001018054611a219061468b565b80601f0160208091040260200160405190810160405280929190818152602001828054611a4d9061468b565b8015611a9a5780601f10611a6f57610100808354040283529160200191611a9a565b820191906000526020600020905b815481529060010190602001808311611a7d57829003601f168201915b5050505050908060020154908060030160009054906101000a900473ffffffffffffffffffffffffffffffffffffffff16908060040160009054906101000a900473ffffffffffffffffffffffffffffffffffffffff16905085565b6000600560008473ffffffffffffffffffffffffffffffffffffffff1673ffffffffffffffffffffffffffffffffffffffff16815260200190815260200160002060008373ffffffffffffffffffffffffffffffffffffffff1673ffffffffffffffffffffffffffffffffffffffff16815260200190815260200160002060009054906101000a900460ff16905092915050565b6060600080600190505b600654811015611bce57611ba781611eb7565b15611bbb578180611bb7906146bd565b9250505b8080611bc6906146bd565b915050611b94565b5060008167ffffffffffffffff811115611c11577f4e487b7100000000000000000000000000000000000000000000000000000000600052604160045260246000fd5b604051908082528060200260200182016040528015611c4a57816020015b611c37612ff7565b815260200190600190039081611c2f5790505b509050600080600190505b600654811015611e4357611c6881611eb7565b15611e3057600760008281526020019081526020016000206040518060a001604052908160008201548152602001600182018054611ca59061468b565b80601f0160208091040260200160405190810160405280929190818152602001828054611cd19061468b565b8015611d1e5780601f10611cf357610100808354040283529160200191611d1e565b820191906000526020600020905b815481529060010190602001808311611d0157829003601f168201915b50505050508152602001600282015481526020016003820160009054906101000a900473ffffffffffffffffffffffffffffffffffffffff1673ffffffffffffffffffffffffffffffffffffffff1673ffffffffffffffffffffffffffffffffffffffff1681526020016004820160009054906101000a900473ffffffffffffffffffffffffffffffffffffffff1673ffffffffffffffffffffffffffffffffffffffff1673ffffffffffffffffffffffffffffffffffffffff1681525050838381518110611e16577f4e487b7100000000000000000000000000000000000000000000000000000000600052603260045260246000fd5b60200260200101819052508180611e2c906146bd565b9250505b8080611e3b906146bd565b915050611c55565b5081935050505090565b60007f01ffc9a7000000000000000000000000000000000000000000000000000000007bffffffffffffffffffffffffffffffffffffffffffffffffffffffff1916827bffffffffffffffffffffffffffffffffffffffffffffffffffffffff1916149050919050565b60008073ffffffffffffffffffffffffffffffffffffffff166002600084815260200190815260200160002060009054906101000a900473ffffffffffffffffffffffffffffffffffffffff1673ffffffffffffffffffffffffffffffffffffffff1614159050919050565b600033905090565b816004600083815260200190815260200160002060006101000a81548173ffffffffffffffffffffffffffffffffffffffff021916908373ffffffffffffffffffffffffffffffffffffffff160217905550808273ffffffffffffffffffffffffffffffffffffffff16611f9e83611066565b73ffffffffffffffffffffffffffffffffffffffff167f8c5be1e5ebec7d5bd14f71427d1e84f3dd0314c0f7b2291e5b200ac8c7c3b92560405160405180910390a45050565b6000611fef82611eb7565b61202e576040517f08c379a000000000000000000000000000000000000000000000000000000000815260040161202590614196565b60405180910390fd5b600061203983611066565b90508073ffffffffffffffffffffffffffffffffffffffff168473ffffffffffffffffffffffffffffffffffffffff1614806120a857508373ffffffffffffffffffffffffffffffffffffffff1661209084610658565b73ffffffffffffffffffffffffffffffffffffffff16145b806120b957506120b88185611af6565b5b91505092915050565b6120cd838383612914565b816007600083815260200190815260200160002060040160006101000a81548173ffffffffffffffffffffffffffffffffffffffff021916908373ffffffffffffffffffffffffffffffffffffffff160217905550600860008373ffffffffffffffffffffffffffffffffffffffff1673ffffffffffffffffffffffffffffffffffffffff168152602001908152602001600020819080600181540180825580915050600190039060005260206000200160009091909190915055600860008473ffffffffffffffffffffffffffffffffffffffff1673ffffffffffffffffffffffffffffffffffffffff16815260200190815260200160002081815481106121ff577f4e487b7100000000000000000000000000000000000000000000000000000000600052603260045260246000fd5b9060005260206000200160009055505050565b6060600082519050600081141561223b57604051806020016040528060008152509150506123cb565b6000600360028361224c91906144c0565b6122569190614516565b60046122629190614547565b9050600060208261227391906144c0565b67ffffffffffffffff8111156122b2577f4e487b7100000000000000000000000000000000000000000000000000000000600052604160045260246000fd5b6040519080825280601f01601f1916602001820160405280156122e45781602001600182028036833780820191505090505b5090506000604051806060016040528060408152602001614884604091399050600181016020830160005b868110156123885760038101905062ffffff818a015116603f8160121c168401518060081b905060ff603f83600c1c1686015116810190508060081b905060ff603f8360061c1686015116810190508060081b905060ff603f831686015116810190508060e01b9050808452600484019350505061230f565b5060038606600181146123a257600281146123b2576123bd565b613d3d60f01b60028303526123bd565b603d60f81b60018303525b508484525050819450505050505b919050565b6123ea828260405180602001604052806000815250612b70565b5050565b612488838383604051602401612406939291906140d1565b6040516020818303038152906040527fa3f5c739000000000000000000000000000000000000000000000000000000007bffffffffffffffffffffffffffffffffffffffffffffffffffffffff19166020820180517bffffffffffffffffffffffffffffffffffffffffffffffffffffffff8381831617835250505050612bcb565b505050565b600061249882611066565b90506124a681600084612bf4565b6124b1600083611f2b565b6001600360008373ffffffffffffffffffffffffffffffffffffffff1673ffffffffffffffffffffffffffffffffffffffff168152602001908152602001600020600082825461250191906145a1565b925050819055506002600083815260200190815260200160002060006101000a81549073ffffffffffffffffffffffffffffffffffffffff021916905581600073ffffffffffffffffffffffffffffffffffffffff168273ffffffffffffffffffffffffffffffffffffffff167fddf252ad1be2c89b69c2b068fc378daa952ba7f163c4a11628f55a4df523b3ef60405160405180910390a45050565b8173ffffffffffffffffffffffffffffffffffffffff168373ffffffffffffffffffffffffffffffffffffffff16141561260d576040517f08c379a000000000000000000000000000000000000000000000000000000000815260040161260490614176565b60405180910390fd5b80600560008573ffffffffffffffffffffffffffffffffffffffff1673ffffffffffffffffffffffffffffffffffffffff16815260200190815260200160002060008473ffffffffffffffffffffffffffffffffffffffff1673ffffffffffffffffffffffffffffffffffffffff16815260200190815260200160002060006101000a81548160ff0219169083151502179055508173ffffffffffffffffffffffffffffffffffffffff168373ffffffffffffffffffffffffffffffffffffffff167f17307eab39ab6107e8899845ad3d59bd9653f200f220920489ca2b5937696c31836040516126fe9190614094565b60405180910390a3505050565b6127168484846120c2565b61272284848484612bf9565b612761576040517f08c379a000000000000000000000000000000000000000000000000000000000815260040161275890614116565b60405180910390fd5b50505050565b606060008214156127af576040518060400160405280600181526020017f3000000000000000000000000000000000000000000000000000000000000000815250905061290f565b600082905060005b600082146127e15780806127ca906146bd565b915050600a826127da9190614516565b91506127b7565b60008167ffffffffffffffff811115612823577f4e487b7100000000000000000000000000000000000000000000000000000000600052604160045260246000fd5b6040519080825280601f01601f1916602001820160405280156128555781602001600182028036833780820191505090505b5090505b600085146129085760018261286e91906145a1565b9150600a8561287d9190614706565b603061288991906144c0565b60f81b8183815181106128c5577f4e487b7100000000000000000000000000000000000000000000000000000000600052603260045260246000fd5b60200101907effffffffffffffffffffffffffffffffffffffffffffffffffffffffffffff1916908160001a905350600a856129019190614516565b9450612859565b8093505050505b919050565b8273ffffffffffffffffffffffffffffffffffffffff1661293482611066565b73ffffffffffffffffffffffffffffffffffffffff161461298a576040517f08c379a000000000000000000000000000000000000000000000000000000000815260040161298190614276565b60405180910390fd5b600073ffffffffffffffffffffffffffffffffffffffff168273ffffffffffffffffffffffffffffffffffffffff1614156129fa576040517f08c379a00000000000000000000000000000000000000000000000000000000081526004016129f190614156565b60405180910390fd5b612a05838383612bf4565b612a10600082611f2b565b6001600360008573ffffffffffffffffffffffffffffffffffffffff1673ffffffffffffffffffffffffffffffffffffffff1681526020019081526020016000206000828254612a6091906145a1565b925050819055506001600360008473ffffffffffffffffffffffffffffffffffffffff1673ffffffffffffffffffffffffffffffffffffffff1681526020019081526020016000206000828254612ab791906144c0565b92505081905550816002600083815260200190815260200160002060006101000a81548173ffffffffffffffffffffffffffffffffffffffff021916908373ffffffffffffffffffffffffffffffffffffffff160217905550808273ffffffffffffffffffffffffffffffffffffffff168473ffffffffffffffffffffffffffffffffffffffff167fddf252ad1be2c89b69c2b068fc378daa952ba7f163c4a11628f55a4df523b3ef60405160405180910390a4505050565b612b7a8383612d90565b612b876000848484612bf9565b612bc6576040517f08c379a0000000000000000000000000000000000000000000000000000000008152600401612bbd90614116565b60405180910390fd5b505050565b60008151905060006a636f6e736f6c652e6c6f679050602083016000808483855afa5050505050565b505050565b6000612c1a8473ffffffffffffffffffffffffffffffffffffffff16612f5e565b15612d83578373ffffffffffffffffffffffffffffffffffffffff1663150b7a02612c43611f23565b8786866040518563ffffffff1660e01b8152600401612c659493929190614026565b602060405180830381600087803b158015612c7f57600080fd5b505af1925050508015612cb057506040513d601f19601f82011682018060405250810190612cad9190613378565b60015b612d33573d8060008114612ce0576040519150601f19603f3d011682016040523d82523d6000602084013e612ce5565b606091505b50600081511415612d2b576040517f08c379a0000000000000000000000000000000000000000000000000000000008152600401612d2290614116565b60405180910390fd5b805181602001fd5b63150b7a0260e01b7bffffffffffffffffffffffffffffffffffffffffffffffffffffffff1916817bffffffffffffffffffffffffffffffffffffffffffffffffffffffff191614915050612d88565b600190505b949350505050565b600073ffffffffffffffffffffffffffffffffffffffff168273ffffffffffffffffffffffffffffffffffffffff161415612e00576040517f08c379a0000000000000000000000000000000000000000000000000000000008152600401612df790614216565b60405180910390fd5b612e0981611eb7565b15612e49576040517f08c379a0000000000000000000000000000000000000000000000000000000008152600401612e4090614136565b60405180910390fd5b612e5560008383612bf4565b6001600360008473ffffffffffffffffffffffffffffffffffffffff1673ffffffffffffffffffffffffffffffffffffffff1681526020019081526020016000206000828254612ea591906144c0565b92505081905550816002600083815260200190815260200160002060006101000a81548173ffffffffffffffffffffffffffffffffffffffff021916908373ffffffffffffffffffffffffffffffffffffffff160217905550808273ffffffffffffffffffffffffffffffffffffffff16600073ffffffffffffffffffffffffffffffffffffffff167fddf252ad1be2c89b69c2b068fc378daa952ba7f163c4a11628f55a4df523b3ef60405160405180910390a45050565b600080823b905060008111915050919050565b828054612f7d9061468b565b90600052602060002090601f016020900481019282612f9f5760008555612fe6565b82601f10612fb857805160ff1916838001178555612fe6565b82800160010185558215612fe6579182015b82811115612fe5578251825591602001919060010190612fca565b5b509050612ff39190613052565b5090565b6040518060a00160405280600081526020016060815260200160008152602001600073ffffffffffffffffffffffffffffffffffffffff168152602001600073ffffffffffffffffffffffffffffffffffffffff1681525090565b5b8082111561306b576000816000905550600101613053565b5090565b600061308261307d846143be565b61438d565b90508281526020810184848401111561309a57600080fd5b6130a5848285614649565b509392505050565b60006130c06130bb846143ee565b61438d565b9050828152602081018484840111156130d857600080fd5b6130e3848285614649565b509392505050565b6000813590506130fa81614804565b92915050565b60008135905061310f8161481b565b92915050565b60008135905061312481614832565b92915050565b60008151905061313981614832565b92915050565b600082601f83011261315057600080fd5b813561316084826020860161306f565b91505092915050565b600082601f83011261317a57600080fd5b813561318a8482602086016130ad565b91505092915050565b6000813590506131a281614849565b92915050565b6000602082840312156131ba57600080fd5b60006131c8848285016130eb565b91505092915050565b600080604083850312156131e457600080fd5b60006131f2858286016130eb565b9250506020613203858286016130eb565b9150509250929050565b60008060006060848603121561322257600080fd5b6000613230868287016130eb565b9350506020613241868287016130eb565b925050604061325286828701613193565b9150509250925092565b6000806000806080858703121561327257600080fd5b6000613280878288016130eb565b9450506020613291878288016130eb565b93505060406132a287828801613193565b925050606085013567ffffffffffffffff8111156132bf57600080fd5b6132cb8782880161313f565b91505092959194509250565b600080604083850312156132ea57600080fd5b60006132f8858286016130eb565b925050602061330985828601613100565b9150509250929050565b6000806040838503121561332657600080fd5b6000613334858286016130eb565b925050602061334585828601613193565b9150509250929050565b60006020828403121561336157600080fd5b600061336f84828501613115565b91505092915050565b60006020828403121561338a57600080fd5b60006133988482850161312a565b91505092915050565b600080604083850312156133b457600080fd5b600083013567ffffffffffffffff8111156133ce57600080fd5b6133da85828601613169565b92505060206133eb85828601613193565b9150509250929050565b60006020828403121561340757600080fd5b600061341584828501613193565b91505092915050565b6000806040838503121561343157600080fd5b600061343f85828601613193565b925050602061345085828601613193565b9150509250929050565b60006134668383613e19565b905092915050565b613477816145d5565b82525050565b613486816145d5565b82525050565b600061349782614443565b6134a18185614471565b9350836020820285016134b38561441e565b8060005b858110156134ef57848403895281516134d0858261345a565b94506134db83614464565b925060208a019950506001810190506134b7565b50829750879550505050505092915050565b61350a816145e7565b82525050565b600061351b8261444e565b6135258185614482565b9350613535818560208601614658565b61353e816147f3565b840191505092915050565b600061355482614459565b61355e8185614493565b935061356e818560208601614658565b613577816147f3565b840191505092915050565b600061358d82614459565b61359781856144a4565b93506135a7818560208601614658565b6135b0816147f3565b840191505092915050565b60006135c682614459565b6135d081856144b5565b93506135e0818560208601614658565b80840191505092915050565b600081546135f98161468b565b61360381866144b5565b9450600182166000811461361e576001811461362f57613662565b60ff19831686528186019350613662565b6136388561442e565b60005b8381101561365a5781548189015260018201915060208101905061363b565b838801955050505b50505092915050565b60006136786005836144b5565b91507f227d205d7d0000000000000000000000000000000000000000000000000000006000830152600582019050919050565b60006136b86032836144a4565b91507f4552433732313a207472616e7366657220746f206e6f6e20455243373231526560008301527f63656976657220696d706c656d656e74657200000000000000000000000000006020830152604082019050919050565b600061371e601c836144a4565b91507f4552433732313a20746f6b656e20616c7265616479206d696e746564000000006000830152602082019050919050565b600061375e6034836144b5565b91507f222c20226465736372697074696f6e223a202254686973204e4654206973206160008301527f2074776565742e222c2022696d616765223a20220000000000000000000000006020830152603482019050919050565b60006137c46024836144a4565b91507f4552433732313a207472616e7366657220746f20746865207a65726f2061646460008301527f72657373000000000000000000000000000000000000000000000000000000006020830152604082019050919050565b600061382a6019836144a4565b91507f4552433732313a20617070726f766520746f2063616c6c6572000000000000006000830152602082019050919050565b600061386a602c836144a4565b91507f4552433732313a206f70657261746f7220717565727920666f72206e6f6e657860008301527f697374656e7420746f6b656e00000000000000000000000000000000000000006020830152604082019050919050565b60006138d0600d836144b5565b91507f3c2f746578743e3c2f7376673e000000000000000000000000000000000000006000830152600d82019050919050565b60006139106038836144a4565b91507f4552433732313a20617070726f76652063616c6c6572206973206e6f74206f7760008301527f6e6572206e6f7220617070726f76656420666f7220616c6c00000000000000006020830152604082019050919050565b6000613976602a836144a4565b91507f4552433732313a2062616c616e636520717565727920666f7220746865207a6560008301527f726f2061646472657373000000000000000000000000000000000000000000006020830152604082019050919050565b60006139dc6029836144a4565b91507f4552433732313a206f776e657220717565727920666f72206e6f6e657869737460008301527f656e7420746f6b656e00000000000000000000000000000000000000000000006020830152604082019050919050565b6000613a426020836144a4565b91507f4552433732313a206d696e7420746f20746865207a65726f20616464726573736000830152602082019050919050565b6000613a826015836144a4565b91507f547765657420646f6573206e6f742065786973747300000000000000000000006000830152602082019050919050565b6000613ac26013836144b5565b91507f7b226e616d65223a20224e4654776565742023000000000000000000000000006000830152601382019050919050565b6000613b02602c836144a4565b91507f4552433732313a20617070726f76656420717565727920666f72206e6f6e657860008301527f697374656e7420746f6b656e00000000000000000000000000000000000000006020830152604082019050919050565b6000613b686029836144a4565b91507f4552433732313a207472616e73666572206f6620746f6b656e2074686174206960008301527f73206e6f74206f776e00000000000000000000000000000000000000000000006020830152604082019050919050565b6000613bce6040836144b5565b91507f222c202261747472696275746573223a205b207b202274726169745f7479706560008301527f223a2022506172656e74205477656574204964222c202276616c7565223a20226020830152604082019050919050565b6000613c346021836144a4565b91507f4552433732313a20617070726f76616c20746f2063757272656e74206f776e6560008301527f72000000000000000000000000000000000000000000000000000000000000006020830152604082019050919050565b6000613c9a6029836144b5565b91507f227d2c207b202274726169745f74797065223a2022436f6e74656e74222c202260008301527f76616c7565223a202200000000000000000000000000000000000000000000006020830152602982019050919050565b6000613d00601d836144b5565b91507f646174613a6170706c69636174696f6e2f6a736f6e3b6261736536342c0000006000830152601d82019050919050565b6000613d406031836144a4565b91507f4552433732313a207472616e736665722063616c6c6572206973206e6f74206f60008301527f776e6572206e6f7220617070726f7665640000000000000000000000000000006020830152604082019050919050565b6000613da6601b836144a4565b91507f506172656e7420747765657420646f6573206e6f7420657869737400000000006000830152602082019050919050565b6000613de6601a836144b5565b91507f646174613a696d6167652f7376672b786d6c3b6261736536342c0000000000006000830152601a82019050919050565b600060a083016000830151613e316000860182613f05565b5060208301518482036020860152613e498282613549565b9150506040830151613e5e6040860182613f05565b506060830151613e71606086018261346e565b506080830151613e84608086018261346e565b508091505092915050565b600060a083016000830151613ea76000860182613f05565b5060208301518482036020860152613ebf8282613549565b9150506040830151613ed46040860182613f05565b506060830151613ee7606086018261346e565b506080830151613efa608086018261346e565b508091505092915050565b613f0e8161463f565b82525050565b613f1d8161463f565b82525050565b6000613f2f82856135ec565b9150613f3b82846135ec565b9150613f46826138c3565b91508190509392505050565b6000613f5d82613ab5565b9150613f6982876135bb565b9150613f7482613751565b9150613f8082866135bb565b9150613f8b82613bc1565b9150613f9782856135bb565b9150613fa282613c8d565b9150613fae82846135ec565b9150613fb98261366b565b915081905095945050505050565b6000613fd282613cf3565b9150613fde82846135bb565b915081905092915050565b6000613ff482613dd9565b915061400082846135bb565b915081905092915050565b6000602082019050614020600083018461347d565b92915050565b600060808201905061403b600083018761347d565b614048602083018661347d565b6140556040830185613f14565b81810360608301526140678184613510565b905095945050505050565b6000602082019050818103600083015261408c818461348c565b905092915050565b60006020820190506140a96000830184613501565b92915050565b600060208201905081810360008301526140c98184613582565b905092915050565b600060608201905081810360008301526140eb8186613582565b90506140fa6020830185613f14565b818103604083015261410c8184613582565b9050949350505050565b6000602082019050818103600083015261412f816136ab565b9050919050565b6000602082019050818103600083015261414f81613711565b9050919050565b6000602082019050818103600083015261416f816137b7565b9050919050565b6000602082019050818103600083015261418f8161381d565b9050919050565b600060208201905081810360008301526141af8161385d565b9050919050565b600060208201905081810360008301526141cf81613903565b9050919050565b600060208201905081810360008301526141ef81613969565b9050919050565b6000602082019050818103600083015261420f816139cf565b9050919050565b6000602082019050818103600083015261422f81613a35565b9050919050565b6000602082019050818103600083015261424f81613a75565b9050919050565b6000602082019050818103600083015261426f81613af5565b9050919050565b6000602082019050818103600083015261428f81613b5b565b9050919050565b600060208201905081810360008301526142af81613c27565b9050919050565b600060208201905081810360008301526142cf81613d33565b9050919050565b600060208201905081810360008301526142ef81613d99565b9050919050565b600060208201905081810360008301526143108184613e8f565b905092915050565b600060208201905061432d6000830184613f14565b92915050565b600060a0820190506143486000830188613f14565b818103602083015261435a8187613582565b90506143696040830186613f14565b614376606083018561347d565b614383608083018461347d565b9695505050505050565b6000604051905081810181811067ffffffffffffffff821117156143b4576143b36147c4565b5b8060405250919050565b600067ffffffffffffffff8211156143d9576143d86147c4565b5b601f19601f8301169050602081019050919050565b600067ffffffffffffffff821115614409576144086147c4565b5b601f19601f8301169050602081019050919050565b6000819050602082019050919050565b60008190508160005260206000209050919050565b600081519050919050565b600081519050919050565b600081519050919050565b6000602082019050919050565b600082825260208201905092915050565b600082825260208201905092915050565b600082825260208201905092915050565b600082825260208201905092915050565b600081905092915050565b60006144cb8261463f565b91506144d68361463f565b9250827fffffffffffffffffffffffffffffffffffffffffffffffffffffffffffffffff0382111561450b5761450a614737565b5b828201905092915050565b60006145218261463f565b915061452c8361463f565b92508261453c5761453b614766565b5b828204905092915050565b60006145528261463f565b915061455d8361463f565b9250817fffffffffffffffffffffffffffffffffffffffffffffffffffffffffffffffff048311821515161561459657614595614737565b5b828202905092915050565b60006145ac8261463f565b91506145b78361463f565b9250828210156145ca576145c9614737565b5b828203905092915050565b60006145e08261461f565b9050919050565b60008115159050919050565b60007fffffffff0000000000000000000000000000000000000000000000000000000082169050919050565b600073ffffffffffffffffffffffffffffffffffffffff82169050919050565b6000819050919050565b82818337600083830152505050565b60005b8381101561467657808201518184015260208101905061465b565b83811115614685576000848401525b50505050565b600060028204905060018216806146a357607f821691505b602082108114156146b7576146b6614795565b5b50919050565b60006146c88261463f565b91507fffffffffffffffffffffffffffffffffffffffffffffffffffffffffffffffff8214156146fb576146fa614737565b5b600182019050919050565b60006147118261463f565b915061471c8361463f565b92508261472c5761472b614766565b5b828206905092915050565b7f4e487b7100000000000000000000000000000000000000000000000000000000600052601160045260246000fd5b7f4e487b7100000000000000000000000000000000000000000000000000000000600052601260045260246000fd5b7f4e487b7100000000000000000000000000000000000000000000000000000000600052602260045260246000fd5b7f4e487b7100000000000000000000000000000000000000000000000000000000600052604160045260246000fd5b6000601f19601f8301169050919050565b61480d816145d5565b811461481857600080fd5b50565b614824816145e7565b811461482f57600080fd5b50565b61483b816145f3565b811461484657600080fd5b50565b6148528161463f565b811461485d57600080fd5b5056fe4e6577207477656574207769746820706172656e74207477656574202573203a2025734142434445464748494a4b4c4d4e4f505152535455565758595a6162636465666768696a6b6c6d6e6f707172737475767778797a303132333435363738392b2fa2646970667358221220ae15471c32c5f33add55b57233cd9c944e88b1c79634b01c409994a01fe4b82064736f6c634300080000333c73766720786d6c6e733d27687474703a2f2f7777772e77332e6f72672f323030302f73766727207072657365727665417370656374526174696f3d27784d696e594d696e206d656574272076696577426f783d273020302033353020333530273e3c7374796c653e2e62617365207b2066696c6c3a2077686974653b20666f6e742d66616d696c793a2073657269663b20666f6e742d73697a653a20323470783b207d3c2f7374796c653e3c726563742077696474683d273130302527206865696768743d2731303025272066696c6c3d27626c61636b27202f3e3c7465787420783d273530252720793d273530252720636c6173733d27626173652720646f6d696e616e742d626173656c696e653d276d6964646c652720746578742d616e63686f723d276d6964646c65273e",
  "linkReferences": {},
  "deployedLinkReferences": {}
}