{
  "_format": "hh-sol-artifact-1",
  "contractName": "NFTwitter",
  "sourceName": "contracts/NFTwitter.sol",
  "abi": [
    {
      "inputs": [
        {
          "internalType": "address",
          "name": "_royalties",
          "type": "address"
        }
      ],
      "stateMutability": "nonpayable",
      "type": "constructor"
    },
    {
      "inputs": [
        {
          "internalType": "uint256",
          "name": "tweetId",
          "type": "uint256"
        }
      ],
      "name": "OnlyOwnerOfTweet",
      "type": "error"
    },
    {
      "inputs": [
        {
          "internalType": "uint256",
          "name": "tweetId",
          "type": "uint256"
        }
      ],
      "name": "OwnerLikingTweet",
      "type": "error"
    },
    {
      "inputs": [
        {
          "internalType": "uint256",
          "name": "tweetId",
          "type": "uint256"
        }
      ],
      "name": "TweetAlreadyLiked",
      "type": "error"
    },
    {
      "inputs": [
        {
          "internalType": "uint256",
          "name": "tweetId",
          "type": "uint256"
        }
      ],
      "name": "TweetAlreadyUnliked",
      "type": "error"
    },
    {
      "inputs": [
        {
          "internalType": "uint256",
          "name": "tweetId",
          "type": "uint256"
        }
      ],
      "name": "TweetDoesNotExists",
      "type": "error"
    },
    {
      "inputs": [],
      "name": "TweetEmpty",
      "type": "error"
    },
    {
      "inputs": [],
      "name": "WrongParameters",
      "type": "error"
    },
    {
      "anonymous": false,
      "inputs": [
        {
          "indexed": true,
          "internalType": "address",
          "name": "owner",
          "type": "address"
        },
        {
          "indexed": true,
          "internalType": "address",
          "name": "approved",
          "type": "address"
        },
        {
          "indexed": true,
          "internalType": "uint256",
          "name": "tokenId",
          "type": "uint256"
        }
      ],
      "name": "Approval",
      "type": "event"
    },
    {
      "anonymous": false,
      "inputs": [
        {
          "indexed": true,
          "internalType": "address",
          "name": "owner",
          "type": "address"
        },
        {
          "indexed": true,
          "internalType": "address",
          "name": "operator",
          "type": "address"
        },
        {
          "indexed": false,
          "internalType": "bool",
          "name": "approved",
          "type": "bool"
        }
      ],
      "name": "ApprovalForAll",
      "type": "event"
    },
    {
      "anonymous": false,
      "inputs": [
        {
          "indexed": false,
          "internalType": "uint256",
          "name": "tweetId",
          "type": "uint256"
        }
      ],
      "name": "NewTweet",
      "type": "event"
    },
    {
      "anonymous": false,
      "inputs": [
        {
          "indexed": true,
          "internalType": "address",
          "name": "previousOwner",
          "type": "address"
        },
        {
          "indexed": true,
          "internalType": "address",
          "name": "newOwner",
          "type": "address"
        }
      ],
      "name": "OwnershipTransferred",
      "type": "event"
    },
    {
      "anonymous": false,
      "inputs": [
        {
          "indexed": true,
          "internalType": "address",
          "name": "from",
          "type": "address"
        },
        {
          "indexed": true,
          "internalType": "address",
          "name": "to",
          "type": "address"
        },
        {
          "indexed": true,
          "internalType": "uint256",
          "name": "tokenId",
          "type": "uint256"
        }
      ],
      "name": "Transfer",
      "type": "event"
    },
    {
      "anonymous": false,
      "inputs": [
        {
          "indexed": false,
          "internalType": "uint256",
          "name": "tweetId",
          "type": "uint256"
        }
      ],
      "name": "TweetDeleted",
      "type": "event"
    },
    {
      "anonymous": false,
      "inputs": [
        {
          "indexed": false,
          "internalType": "uint256",
          "name": "tweetId",
          "type": "uint256"
        },
        {
          "indexed": false,
          "internalType": "address",
          "name": "liker",
          "type": "address"
        },
        {
          "indexed": false,
          "internalType": "uint256",
          "name": "newNbLikes",
          "type": "uint256"
        }
      ],
      "name": "TweetLiked",
      "type": "event"
    },
    {
      "anonymous": false,
      "inputs": [
        {
          "indexed": false,
          "internalType": "uint256",
          "name": "tweetId",
          "type": "uint256"
        },
        {
          "indexed": false,
          "internalType": "address",
          "name": "liker",
          "type": "address"
        },
        {
          "indexed": false,
          "internalType": "uint256",
          "name": "newNbLikes",
          "type": "uint256"
        }
      ],
      "name": "TweetUnliked",
      "type": "event"
    },
    {
      "inputs": [
        {
          "internalType": "address",
          "name": "to",
          "type": "address"
        },
        {
          "internalType": "uint256",
          "name": "tokenId",
          "type": "uint256"
        }
      ],
      "name": "approve",
      "outputs": [],
      "stateMutability": "nonpayable",
      "type": "function"
    },
    {
      "inputs": [
        {
          "internalType": "address",
          "name": "owner",
          "type": "address"
        }
      ],
      "name": "balanceOf",
      "outputs": [
        {
          "internalType": "uint256",
          "name": "",
          "type": "uint256"
        }
      ],
      "stateMutability": "view",
      "type": "function"
    },
    {
      "inputs": [
        {
          "internalType": "uint256",
          "name": "_tokenId",
          "type": "uint256"
        }
      ],
      "name": "deleteTweet",
      "outputs": [],
      "stateMutability": "nonpayable",
      "type": "function"
    },
    {
      "inputs": [
        {
          "internalType": "uint256",
          "name": "tokenId",
          "type": "uint256"
        }
      ],
      "name": "getApproved",
      "outputs": [
        {
          "internalType": "address",
          "name": "",
          "type": "address"
        }
      ],
      "stateMutability": "view",
      "type": "function"
    },
    {
      "inputs": [],
      "name": "getTweets",
      "outputs": [
        {
          "components": [
            {
              "internalType": "uint256",
              "name": "tweetId",
              "type": "uint256"
            },
            {
              "internalType": "uint256",
              "name": "parentId",
              "type": "uint256"
            },
            {
              "internalType": "string",
              "name": "content",
              "type": "string"
            },
            {
              "internalType": "uint256",
              "name": "timestamp",
              "type": "uint256"
            },
            {
              "internalType": "address",
              "name": "author",
              "type": "address"
            },
            {
              "internalType": "address",
              "name": "owner",
              "type": "address"
            },
            {
              "internalType": "uint256",
              "name": "likes",
              "type": "uint256"
            }
          ],
          "internalType": "struct NFTwitter.Tweet[]",
          "name": "tweetsList",
          "type": "tuple[]"
        },
        {
          "internalType": "bool[]",
          "name": "likedBySender",
          "type": "bool[]"
        }
      ],
      "stateMutability": "view",
      "type": "function"
    },
    {
      "inputs": [
        {
          "internalType": "address",
          "name": "owner",
          "type": "address"
        },
        {
          "internalType": "address",
          "name": "operator",
          "type": "address"
        }
      ],
      "name": "isApprovedForAll",
      "outputs": [
        {
          "internalType": "bool",
          "name": "",
          "type": "bool"
        }
      ],
      "stateMutability": "view",
      "type": "function"
    },
    {
      "inputs": [
        {
          "internalType": "uint256",
          "name": "_tokenId",
          "type": "uint256"
        }
      ],
      "name": "likeTweet",
      "outputs": [],
      "stateMutability": "nonpayable",
      "type": "function"
    },
    {
      "inputs": [
        {
          "internalType": "uint256",
          "name": "",
          "type": "uint256"
        },
        {
          "internalType": "address",
          "name": "",
          "type": "address"
        }
      ],
      "name": "likedTweet",
      "outputs": [
        {
          "internalType": "bool",
          "name": "",
          "type": "bool"
        }
      ],
      "stateMutability": "view",
      "type": "function"
    },
    {
      "inputs": [],
      "name": "name",
      "outputs": [
        {
          "internalType": "string",
          "name": "",
          "type": "string"
        }
      ],
      "stateMutability": "view",
      "type": "function"
    },
    {
      "inputs": [],
      "name": "owner",
      "outputs": [
        {
          "internalType": "address",
          "name": "",
          "type": "address"
        }
      ],
      "stateMutability": "view",
      "type": "function"
    },
    {
      "inputs": [
        {
          "internalType": "uint256",
          "name": "tokenId",
          "type": "uint256"
        }
      ],
      "name": "ownerOf",
      "outputs": [
        {
          "internalType": "address",
          "name": "",
          "type": "address"
        }
      ],
      "stateMutability": "view",
      "type": "function"
    },
    {
      "inputs": [],
      "name": "renounceOwnership",
      "outputs": [],
      "stateMutability": "nonpayable",
      "type": "function"
    },
    {
      "inputs": [],
      "name": "royaltiesReceiver",
      "outputs": [
        {
          "internalType": "address",
          "name": "",
          "type": "address"
        }
      ],
      "stateMutability": "view",
      "type": "function"
    },
    {
      "inputs": [
        {
          "internalType": "address",
          "name": "from",
          "type": "address"
        },
        {
          "internalType": "address",
          "name": "to",
          "type": "address"
        },
        {
          "internalType": "uint256",
          "name": "tokenId",
          "type": "uint256"
        }
      ],
      "name": "safeTransferFrom",
      "outputs": [],
      "stateMutability": "nonpayable",
      "type": "function"
    },
    {
      "inputs": [
        {
          "internalType": "address",
          "name": "from",
          "type": "address"
        },
        {
          "internalType": "address",
          "name": "to",
          "type": "address"
        },
        {
          "internalType": "uint256",
          "name": "tokenId",
          "type": "uint256"
        },
        {
          "internalType": "bytes",
          "name": "data",
          "type": "bytes"
        }
      ],
      "name": "safeTransferFrom",
      "outputs": [],
      "stateMutability": "nonpayable",
      "type": "function"
    },
    {
      "inputs": [
        {
          "internalType": "address",
          "name": "operator",
          "type": "address"
        },
        {
          "internalType": "bool",
          "name": "approved",
          "type": "bool"
        }
      ],
      "name": "setApprovalForAll",
      "outputs": [],
      "stateMutability": "nonpayable",
      "type": "function"
    },
    {
      "inputs": [
        {
          "internalType": "bytes4",
          "name": "interfaceId",
          "type": "bytes4"
        }
      ],
      "name": "supportsInterface",
      "outputs": [
        {
          "internalType": "bool",
          "name": "",
          "type": "bool"
        }
      ],
      "stateMutability": "view",
      "type": "function"
    },
    {
      "inputs": [],
      "name": "symbol",
      "outputs": [
        {
          "internalType": "string",
          "name": "",
          "type": "string"
        }
      ],
      "stateMutability": "view",
      "type": "function"
    },
    {
      "inputs": [
        {
          "internalType": "uint256",
          "name": "_tokenId",
          "type": "uint256"
        }
      ],
      "name": "tipTweet",
      "outputs": [],
      "stateMutability": "payable",
      "type": "function"
    },
    {
      "inputs": [],
      "name": "tipsAuthorPercent",
      "outputs": [
        {
          "internalType": "uint256",
          "name": "",
          "type": "uint256"
        }
      ],
      "stateMutability": "view",
      "type": "function"
    },
    {
      "inputs": [],
      "name": "tipsOwnerPercent",
      "outputs": [
        {
          "internalType": "uint256",
          "name": "",
          "type": "uint256"
        }
      ],
      "stateMutability": "view",
      "type": "function"
    },
    {
      "inputs": [],
      "name": "tipsPlatformPercent",
      "outputs": [
        {
          "internalType": "uint256",
          "name": "",
          "type": "uint256"
        }
      ],
      "stateMutability": "view",
      "type": "function"
    },
    {
      "inputs": [
        {
          "internalType": "uint256",
          "name": "index",
          "type": "uint256"
        }
      ],
      "name": "tokenByIndex",
      "outputs": [
        {
          "internalType": "uint256",
          "name": "",
          "type": "uint256"
        }
      ],
      "stateMutability": "view",
      "type": "function"
    },
    {
      "inputs": [
        {
          "internalType": "address",
          "name": "owner",
          "type": "address"
        },
        {
          "internalType": "uint256",
          "name": "index",
          "type": "uint256"
        }
      ],
      "name": "tokenOfOwnerByIndex",
      "outputs": [
        {
          "internalType": "uint256",
          "name": "",
          "type": "uint256"
        }
      ],
      "stateMutability": "view",
      "type": "function"
    },
    {
      "inputs": [
        {
          "internalType": "uint256",
          "name": "_tokenId",
          "type": "uint256"
        }
      ],
      "name": "tokenURI",
      "outputs": [
        {
          "internalType": "string",
          "name": "",
          "type": "string"
        }
      ],
      "stateMutability": "view",
      "type": "function"
    },
    {
      "inputs": [],
      "name": "totalSupply",
      "outputs": [
        {
          "internalType": "uint256",
          "name": "",
          "type": "uint256"
        }
      ],
      "stateMutability": "view",
      "type": "function"
    },
    {
      "inputs": [
        {
          "internalType": "address",
          "name": "from",
          "type": "address"
        },
        {
          "internalType": "address",
          "name": "to",
          "type": "address"
        },
        {
          "internalType": "uint256",
          "name": "tokenId",
          "type": "uint256"
        }
      ],
      "name": "transferFrom",
      "outputs": [],
      "stateMutability": "nonpayable",
      "type": "function"
    },
    {
      "inputs": [
        {
          "internalType": "address",
          "name": "newOwner",
          "type": "address"
        }
      ],
      "name": "transferOwnership",
      "outputs": [],
      "stateMutability": "nonpayable",
      "type": "function"
    },
    {
      "inputs": [
        {
          "internalType": "string",
          "name": "content",
          "type": "string"
        },
        {
          "internalType": "uint256",
          "name": "parentId",
          "type": "uint256"
        }
      ],
      "name": "tweet",
      "outputs": [],
      "stateMutability": "nonpayable",
      "type": "function"
    },
    {
      "inputs": [
        {
          "internalType": "uint256",
          "name": "_tokenId",
          "type": "uint256"
        }
      ],
      "name": "tweetImageURI",
      "outputs": [
        {
          "internalType": "string",
          "name": "",
          "type": "string"
        }
      ],
      "stateMutability": "view",
      "type": "function"
    },
    {
      "inputs": [
        {
          "internalType": "uint256",
          "name": "",
          "type": "uint256"
        }
      ],
      "name": "tweets",
      "outputs": [
        {
          "internalType": "uint256",
          "name": "tweetId",
          "type": "uint256"
        },
        {
          "internalType": "uint256",
          "name": "parentId",
          "type": "uint256"
        },
        {
          "internalType": "string",
          "name": "content",
          "type": "string"
        },
        {
          "internalType": "uint256",
          "name": "timestamp",
          "type": "uint256"
        },
        {
          "internalType": "address",
          "name": "author",
          "type": "address"
        },
        {
          "internalType": "address",
          "name": "owner",
          "type": "address"
        },
        {
          "internalType": "uint256",
          "name": "likes",
          "type": "uint256"
        }
      ],
      "stateMutability": "view",
      "type": "function"
    },
    {
      "inputs": [
        {
          "internalType": "uint256",
          "name": "",
          "type": "uint256"
        },
        {
          "internalType": "uint256",
          "name": "",
          "type": "uint256"
        }
      ],
      "name": "tweetsReplies",
      "outputs": [
        {
          "internalType": "uint256",
          "name": "",
          "type": "uint256"
        }
      ],
      "stateMutability": "view",
      "type": "function"
    },
    {
      "inputs": [
        {
          "internalType": "uint256",
          "name": "_tokenId",
          "type": "uint256"
        }
      ],
      "name": "unlikeTweet",
      "outputs": [],
      "stateMutability": "nonpayable",
      "type": "function"
    },
    {
      "inputs": [
        {
          "internalType": "uint256",
          "name": "owner",
          "type": "uint256"
        },
        {
          "internalType": "uint256",
          "name": "author",
          "type": "uint256"
        },
        {
          "internalType": "uint256",
          "name": "platform",
          "type": "uint256"
        }
      ],
      "name": "updateTipsPercent",
      "outputs": [],
      "stateMutability": "nonpayable",
      "type": "function"
    }
  ],
  "bytecode": "0x6101e060405261012f60808181529062003ab960a039600f9062000024908262000206565b503480156200003257600080fd5b5060405162003be838038062003be88339810160408190526200005591620002d2565b6040518060400160405280600981526020016827232a3bb4ba3a32b960b91b815250604051806040016040528060048152602001631391951560e21b8152508160009081620000a5919062000206565b506001620000b4828262000206565b505050620000d1620000cb6200010b60201b60201c565b6200010f565b6001600b5560466010556014601155600a601255601380546001600160a01b0319166001600160a01b039290921691909117905562000304565b3390565b600a80546001600160a01b038381166001600160a01b0319831681179093556040519116919082907f8be0079c531659141344cd1fd0a4f28419497f9722a3daafe3b4186f6b6457e090600090a35050565b634e487b7160e01b600052604160045260246000fd5b600181811c908216806200018c57607f821691505b602082108103620001ad57634e487b7160e01b600052602260045260246000fd5b50919050565b601f8211156200020157600081815260208120601f850160051c81016020861015620001dc5750805b601f850160051c820191505b81811015620001fd57828155600101620001e8565b5050505b505050565b81516001600160401b0381111562000222576200022262000161565b6200023a8162000233845462000177565b84620001b3565b602080601f831160018114620002725760008415620002595750858301515b600019600386901b1c1916600185901b178555620001fd565b600085815260208120601f198616915b82811015620002a35788860151825594840194600190910190840162000282565b5085821015620002c25787850151600019600388901b60f8161c191681555b5050505050600190811b01905550565b600060208284031215620002e557600080fd5b81516001600160a01b0381168114620002fd57600080fd5b9392505050565b6137a580620003146000396000f3fe6080604052600436106102195760003560e01c8063715018a61161011d578063b0082426116100b0578063df13fb011161007f578063e985e9c511610064578063e985e9c514610619578063f2fde38b14610662578063fc86741f1461068257600080fd5b8063df13fb01146105d0578063e8d857b0146105e657600080fd5b8063b008242614610567578063b3465fd41461057d578063b88d4fde14610590578063c87b56dd146105b057600080fd5b80638da5cb5b116100ec5780638da5cb5b146104f457806395d89b4114610512578063a22cb46514610527578063a3a51bd51461054757600080fd5b8063715018a61461046e57806376db3e14146104835780637e6790ec146104995780638952973a146104b957600080fd5b80633a6462d0116101b05780634f6ccce71161017f5780635ffc6ceb116101645780635ffc6ceb1461040e5780636352211e1461042e57806370a082311461044e57600080fd5b80634f6ccce7146103ce5780635775912a146103ee57600080fd5b80633a6462d01461034e5780633cb6bbde1461036e57806342842e0e1461038e5780634caf9511146103ae57600080fd5b806318160ddd116101ec57806318160ddd146102cf5780631d86e904146102ee57806323b872dd1461030e5780632f745c591461032e57600080fd5b806301ffc9a71461021e57806306fdde0314610253578063081812fc14610275578063095ea7b3146102ad575b600080fd5b34801561022a57600080fd5b5061023e610239366004612ca4565b6106a5565b60405190151581526020015b60405180910390f35b34801561025f57600080fd5b506102686106e9565b60405161024a9190612d18565b34801561028157600080fd5b50610295610290366004612d2b565b61077b565b6040516001600160a01b03909116815260200161024a565b3480156102b957600080fd5b506102cd6102c8366004612d60565b6107a2565b005b3480156102db57600080fd5b506008545b60405190815260200161024a565b3480156102fa57600080fd5b506102cd610309366004612d2b565b6108d8565b34801561031a57600080fd5b506102cd610329366004612d8a565b610a03565b34801561033a57600080fd5b506102e0610349366004612d60565b610a7a565b34801561035a57600080fd5b506102e0610369366004612dc6565b610b22565b34801561037a57600080fd5b50610268610389366004612d2b565b610b53565b34801561039a57600080fd5b506102cd6103a9366004612d8a565b610bfe565b3480156103ba57600080fd5b506102cd6103c9366004612e74565b610c19565b3480156103da57600080fd5b506102e06103e9366004612d2b565b610dcc565b3480156103fa57600080fd5b506102cd610409366004612d2b565b610e70565b34801561041a57600080fd5b506102cd610429366004612d2b565b610ffb565b34801561043a57600080fd5b50610295610449366004612d2b565b61116f565b34801561045a57600080fd5b506102e0610469366004612ecd565b6111d4565b34801561047a57600080fd5b506102cd61126e565b34801561048f57600080fd5b506102e060125481565b3480156104a557600080fd5b506102cd6104b4366004612ee8565b611282565b3480156104c557600080fd5b5061023e6104d4366004612f14565b600e60209081526000928352604080842090915290825290205460ff1681565b34801561050057600080fd5b50600a546001600160a01b0316610295565b34801561051e57600080fd5b506102686112e6565b34801561053357600080fd5b506102cd610542366004612f40565b6112f5565b34801561055357600080fd5b50601354610295906001600160a01b031681565b34801561057357600080fd5b506102e060115481565b6102cd61058b366004612d2b565b611304565b34801561059c57600080fd5b506102cd6105ab366004612f7c565b6115e2565b3480156105bc57600080fd5b506102686105cb366004612d2b565b611660565b3480156105dc57600080fd5b506102e060105481565b3480156105f257600080fd5b50610606610601366004612d2b565b61174e565b60405161024a9796959493929190612ff8565b34801561062557600080fd5b5061023e610634366004613044565b6001600160a01b03918216600090815260056020908152604080832093909416825291909152205460ff1690565b34801561066e57600080fd5b506102cd61067d366004612ecd565b61181f565b34801561068e57600080fd5b506106976118af565b60405161024a9291906130ab565b60006001600160e01b031982167f780e9d630000000000000000000000000000000000000000000000000000000014806106e357506106e382611b92565b92915050565b6060600080546106f890613177565b80601f016020809104026020016040519081016040528092919081815260200182805461072490613177565b80156107715780601f1061074657610100808354040283529160200191610771565b820191906000526020600020905b81548152906001019060200180831161075457829003601f168201915b5050505050905090565b600061078682611c2d565b506000908152600460205260409020546001600160a01b031690565b60006107ad8261116f565b9050806001600160a01b0316836001600160a01b03160361083b5760405162461bcd60e51b815260206004820152602160248201527f4552433732313a20617070726f76616c20746f2063757272656e74206f776e6560448201527f720000000000000000000000000000000000000000000000000000000000000060648201526084015b60405180910390fd5b336001600160a01b038216148061085757506108578133610634565b6108c95760405162461bcd60e51b815260206004820152603d60248201527f4552433732313a20617070726f76652063616c6c6572206973206e6f7420746f60448201527f6b656e206f776e6572206f7220617070726f76656420666f7220616c6c0000006064820152608401610832565b6108d38383611c91565b505050565b60008181526002602052604090205481906001600160a01b0316610912576040516316a2979960e21b815260048101829052602401610832565b6000828152600e6020908152604080832033845290915290205460ff16610968576040517ff353612200000000000000000000000000000000000000000000000000000000815260048101839052602401610832565b6000828152600e602090815260408083203384528252808320805460ff19169055848352600c90915281206006018054916109a2836131c1565b90915550506000828152600c60209081526040918290206006015482518581523392810192909252918101919091527fbd3de60b9ad77b41c0806d270e814267378945b534cbaa3b405c7418728609e8906060015b60405180910390a15050565b610a0d3382611cff565b610a6f5760405162461bcd60e51b815260206004820152602d60248201527f4552433732313a2063616c6c6572206973206e6f7420746f6b656e206f776e6560448201526c1c881bdc88185c1c1c9bdd9959609a1b6064820152608401610832565b6108d3838383611d7e565b6000610a85836111d4565b8210610af95760405162461bcd60e51b815260206004820152602b60248201527f455243373231456e756d657261626c653a206f776e657220696e646578206f7560448201527f74206f6620626f756e64730000000000000000000000000000000000000000006064820152608401610832565b506001600160a01b03919091166000908152600660209081526040808320938352929052205490565b600d6020528160005260406000208181548110610b3e57600080fd5b90600052602060002001600091509150505481565b606081610b77816000908152600260205260409020546001600160a01b0316151590565b610b97576040516316a2979960e21b815260048101829052602401610832565b6000838152600c602090815260408083209051610bbb92600f92600201910161324b565b6040516020818303038152906040529050610bd581611fb0565b604051602001610be591906132aa565b6040516020818303038152906040529250505b50919050565b6108d3838383604051806020016040528060008152506115e2565b8151600003610c54576040517f2d316cef00000000000000000000000000000000000000000000000000000000815260040160405180910390fd5b8015801590610c7857506000818152600260205260409020546001600160a01b0316155b15610c99576040516316a2979960e21b815260048101829052602401610832565b600b54610ca63382612103565b6040805160e0810182528281526020808201858152828401878152426060850152336080850181905260a0850152600060c08501819052868152600c90935293909120825181559051600182015591519091906002820190610d08908261333d565b506060820151600382015560808201516004820180546001600160a01b039283166001600160a01b03199182161790915560a084015160058401805491909316911617905560c0909101516006909101558115610d81576000828152600d60209081526040822080546001810182559083529120018190555b600b60008154610d90906133fd565b909155506040518181527f63f98618fdb05cc256b39a96bc1387da845aaa913878ac10cc93239bdc4a37b69060200160405180910390a1505050565b6000610dd760085490565b8210610e4b5760405162461bcd60e51b815260206004820152602c60248201527f455243373231456e756d657261626c653a20676c6f62616c20696e646578206f60448201527f7574206f6620626f756e647300000000000000000000000000000000000000006064820152608401610832565b60088281548110610e5e57610e5e613416565b90600052602060002001549050919050565b33610e7a8261116f565b6001600160a01b031614610ebd576040517fb17013c000000000000000000000000000000000000000000000000000000000815260048101829052602401610832565b610ec68161211d565b6000818152600c602052604081206001810180548383559083905591610eef6002830182612c40565b506000600382018190556004820180546001600160a01b031990811690915560058301805490911690556006909101558015610fcb576000818152600d602052604081208054610f419060019061342c565b81548110610f5157610f51613416565b9060005260206000200154905080600d60008481526020019081526020016000208481548110610f8357610f83613416565b9060005260206000200181905550600d6000838152602001908152602001600020805480610fb357610fb361343f565b60019003818190600052602060002001600090559055505b6040518281527fcff984d3d6983751ef01f1bad6665f0a9ab887ed70e453a3e9d01009d82c9fd1906020016109f7565b60008181526002602052604090205481906001600160a01b0316611035576040516316a2979960e21b815260048101829052602401610832565b3361103f8361116f565b6001600160a01b031603611082576040517f379b403900000000000000000000000000000000000000000000000000000000815260048101839052602401610832565b6000828152600e6020908152604080832033845290915290205460ff16156110d9576040517fc652bea300000000000000000000000000000000000000000000000000000000815260048101839052602401610832565b6000828152600e602090815260408083203384528252808320805460ff19166001179055848352600c9091528120600601805491611116836133fd565b90915550506000828152600c60209081526040918290206006015482518581523392810192909252918101919091527f3a9182ad8c7c1fc3acd8b5d6e047b1693e58b9cbaf26a80079511ce787bfda11906060016109f7565b6000818152600260205260408120546001600160a01b0316806106e35760405162461bcd60e51b815260206004820152601860248201527f4552433732313a20696e76616c696420746f6b656e20494400000000000000006044820152606401610832565b60006001600160a01b0382166112525760405162461bcd60e51b815260206004820152602960248201527f4552433732313a2061646472657373207a65726f206973206e6f74206120766160448201527f6c6964206f776e657200000000000000000000000000000000000000000000006064820152608401610832565b506001600160a01b031660009081526003602052604090205490565b6112766121de565b6112806000612238565b565b61128a6121de565b806112958385613455565b61129f9190613455565b6064146112d8576040517fbd28cf5f00000000000000000000000000000000000000000000000000000000815260040160405180910390fd5b601092909255601155601255565b6060600180546106f890613177565b61130033838361228a565b5050565b60008181526002602052604090205481906001600160a01b031661133e576040516316a2979960e21b815260048101829052602401610832565b6000341161134b57600080fd5b6000600c60008481526020019081526020016000206040518060e0016040529081600082015481526020016001820154815260200160028201805461138f90613177565b80601f01602080910402602001604051908101604052809291908181526020018280546113bb90613177565b80156114085780601f106113dd57610100808354040283529160200191611408565b820191906000526020600020905b8154815290600101906020018083116113eb57829003601f168201915b50505091835250506003820154602082015260048201546001600160a01b03908116604083015260058301548116606083015260069092015460809182015260a08301519083015192935081169116036114cd57600060105460115461146e9190613455565b90506000606461147e3484613468565b611488919061347f565b60808401516040519192506001600160a01b03169082156108fc029083906000818181858888f193505050501580156114c5573d6000803e3d6000fd5b505050611584565b60006064346011546114df9190613468565b6114e9919061347f565b60808301516040519192506001600160a01b03169082156108fc029083906000818181858888f19350505050158015611526573d6000803e3d6000fd5b5060006064346010546115399190613468565b611543919061347f565b60a08401516040519192506001600160a01b03169082156108fc029083906000818181858888f19350505050158015611580573d6000803e3d6000fd5b5050505b60006064346012546115969190613468565b6115a0919061347f565b6013546040519192506001600160a01b03169082156108fc029083906000818181858888f193505050501580156115db573d6000803e3d6000fd5b5050505050565b6115ec3383611cff565b61164e5760405162461bcd60e51b815260206004820152602d60248201527f4552433732313a2063616c6c6572206973206e6f7420746f6b656e206f776e6560448201526c1c881bdc88185c1c1c9bdd9959609a1b6064820152608401610832565b61165a84848484612358565b50505050565b606081611684816000908152600260205260409020546001600160a01b0316151590565b6116a4576040516316a2979960e21b815260048101829052602401610832565b60006117206116b2856123d6565b6116bb86610b53565b6000878152600c60205260409020600101546116d6906123d6565b6000888152600c6020526040902060068101546002909101906116f8906123d6565b60405160200161170c9594939291906134a1565b604051602081830303815290604052611fb0565b90506000816040516020016117359190613691565b60408051808303601f1901815291905295945050505050565b600c602052600090815260409020805460018201546002830180549293919261177690613177565b80601f01602080910402602001604051908101604052809291908181526020018280546117a290613177565b80156117ef5780601f106117c4576101008083540402835291602001916117ef565b820191906000526020600020905b8154815290600101906020018083116117d257829003601f168201915b505050600384015460048501546005860154600690960154949591946001600160a01b0391821694509116915087565b6118276121de565b6001600160a01b0381166118a35760405162461bcd60e51b815260206004820152602660248201527f4f776e61626c653a206e6577206f776e657220697320746865207a65726f206160448201527f64647265737300000000000000000000000000000000000000000000000000006064820152608401610832565b6118ac81612238565b50565b606080600060015b600b548110156118fe576000818152600260205260409020546001600160a01b0316156118ec57816118e8816133fd565b9250505b806118f6816133fd565b9150506118b7565b508067ffffffffffffffff81111561191857611918612de8565b60405190808252806020026020018201604052801561199b57816020015b6119886040518060e001604052806000815260200160008152602001606081526020016000815260200160006001600160a01b0316815260200160006001600160a01b03168152602001600081525090565b8152602001906001900390816119365790505b5092508067ffffffffffffffff8111156119b7576119b7612de8565b6040519080825280602002602001820160405280156119e0578160200160208202803683370190505b509150600060015b600b54811015611b8b576000818152600260205260409020546001600160a01b031615611b7957600c60008281526020019081526020016000206040518060e00160405290816000820154815260200160018201548152602001600282018054611a5190613177565b80601f0160208091040260200160405190810160405280929190818152602001828054611a7d90613177565b8015611aca5780601f10611a9f57610100808354040283529160200191611aca565b820191906000526020600020905b815481529060010190602001808311611aad57829003601f168201915b50505091835250506003820154602082015260048201546001600160a01b03908116604083015260058301541660608201526006909101546080909101528551869084908110611b1c57611b1c613416565b6020908102919091018101919091526000828152600e825260408082203383529092522054845160ff90911690859084908110611b5b57611b5b613416565b9115156020928302919091019091015281611b75816133fd565b9250505b80611b83816133fd565b9150506119e8565b5050509091565b60006001600160e01b031982167f80ac58cd000000000000000000000000000000000000000000000000000000001480611bf557506001600160e01b031982167f5b5e139f00000000000000000000000000000000000000000000000000000000145b806106e357507f01ffc9a7000000000000000000000000000000000000000000000000000000006001600160e01b03198316146106e3565b6000818152600260205260409020546001600160a01b03166118ac5760405162461bcd60e51b815260206004820152601860248201527f4552433732313a20696e76616c696420746f6b656e20494400000000000000006044820152606401610832565b600081815260046020526040902080546001600160a01b0319166001600160a01b0384169081179091558190611cc68261116f565b6001600160a01b03167f8c5be1e5ebec7d5bd14f71427d1e84f3dd0314c0f7b2291e5b200ac8c7c3b92560405160405180910390a45050565b600080611d0b8361116f565b9050806001600160a01b0316846001600160a01b03161480611d5257506001600160a01b0380821660009081526005602090815260408083209388168352929052205460ff165b80611d765750836001600160a01b0316611d6b8461077b565b6001600160a01b0316145b949350505050565b826001600160a01b0316611d918261116f565b6001600160a01b031614611df55760405162461bcd60e51b815260206004820152602560248201527f4552433732313a207472616e736665722066726f6d20696e636f72726563742060448201526437bbb732b960d91b6064820152608401610832565b6001600160a01b038216611e705760405162461bcd60e51b8152602060048201526024808201527f4552433732313a207472616e7366657220746f20746865207a65726f2061646460448201527f72657373000000000000000000000000000000000000000000000000000000006064820152608401610832565b611e7d8383836001612476565b826001600160a01b0316611e908261116f565b6001600160a01b031614611ef45760405162461bcd60e51b815260206004820152602560248201527f4552433732313a207472616e736665722066726f6d20696e636f72726563742060448201526437bbb732b960d91b6064820152608401610832565b600081815260046020908152604080832080546001600160a01b03199081169091556001600160a01b0387811680865260038552838620805460001901905590871680865283862080546001019055868652600290945282852080549092168417909155905184937fddf252ad1be2c89b69c2b068fc378daa952ba7f163c4a11628f55a4df523b3ef91a46000818152600c6020526040902060050180546001600160a01b0384166001600160a01b0319909116179055505050565b60608151600003611fcf57505060408051602081019091526000815290565b60006040518060600160405280604081526020016137306040913990506000600384516002611ffe9190613455565b612008919061347f565b612013906004613468565b67ffffffffffffffff81111561202b5761202b612de8565b6040519080825280601f01601f191660200182016040528015612055576020820181803683370190505b509050600182016020820185865187015b808210156120c1576003820191508151603f8160121c168501518453600184019350603f81600c1c168501518453600184019350603f8160061c168501518453600184019350603f8116850151845350600183019250612066565b50506003865106600181146120dd57600281146120f0576120f8565b603d6001830353603d60028303536120f8565b603d60018303535b509195945050505050565b6113008282604051806020016040528060008152506125b7565b60006121288261116f565b9050612138816000846001612476565b6121418261116f565b600083815260046020908152604080832080546001600160a01b03199081169091556001600160a01b0385168085526003845282852080546000190190558785526002909352818420805490911690555192935084927fddf252ad1be2c89b69c2b068fc378daa952ba7f163c4a11628f55a4df523b3ef908390a4506000908152600c6020526040902060050180546001600160a01b0319169055565b600a546001600160a01b031633146112805760405162461bcd60e51b815260206004820181905260248201527f4f776e61626c653a2063616c6c6572206973206e6f7420746865206f776e65726044820152606401610832565b600a80546001600160a01b038381166001600160a01b0319831681179093556040519116919082907f8be0079c531659141344cd1fd0a4f28419497f9722a3daafe3b4186f6b6457e090600090a35050565b816001600160a01b0316836001600160a01b0316036122eb5760405162461bcd60e51b815260206004820152601960248201527f4552433732313a20617070726f766520746f2063616c6c6572000000000000006044820152606401610832565b6001600160a01b03838116600081815260056020908152604080832094871680845294825291829020805460ff191686151590811790915591519182527f17307eab39ab6107e8899845ad3d59bd9653f200f220920489ca2b5937696c31910160405180910390a3505050565b612363848484611d7e565b61236f84848484612635565b61165a5760405162461bcd60e51b815260206004820152603260248201527f4552433732313a207472616e7366657220746f206e6f6e20455243373231526560448201527131b2b4bb32b91034b6b83632b6b2b73a32b960711b6064820152608401610832565b606060006123e383612781565b600101905060008167ffffffffffffffff81111561240357612403612de8565b6040519080825280601f01601f19166020018201604052801561242d576020820181803683370190505b5090508181016020015b600019017f3031323334353637383961626364656600000000000000000000000000000000600a86061a8153600a850494508461243757509392505050565b61248284848484612863565b60018111156124f95760405162461bcd60e51b815260206004820152603560248201527f455243373231456e756d657261626c653a20636f6e736563757469766520747260448201527f616e7366657273206e6f7420737570706f7274656400000000000000000000006064820152608401610832565b816001600160a01b0385166125555761255081600880546000838152600960205260408120829055600182018355919091527ff3f7a9fe364faab93b216da50a3214154f22a0a2b415b23a84c8169e8b636ee30155565b612578565b836001600160a01b0316856001600160a01b0316146125785761257885826128eb565b6001600160a01b0384166125945761258f81612988565b6115db565b846001600160a01b0316846001600160a01b0316146115db576115db8482612a37565b6125c18383612a7b565b6125ce6000848484612635565b6108d35760405162461bcd60e51b815260206004820152603260248201527f4552433732313a207472616e7366657220746f206e6f6e20455243373231526560448201527131b2b4bb32b91034b6b83632b6b2b73a32b960711b6064820152608401610832565b60006001600160a01b0384163b1561277657604051630a85bd0160e11b81526001600160a01b0385169063150b7a02906126799033908990889088906004016136d6565b6020604051808303816000875af19250505080156126b4575060408051601f3d908101601f191682019092526126b191810190613712565b60015b61275c573d8080156126e2576040519150601f19603f3d011682016040523d82523d6000602084013e6126e7565b606091505b5080516000036127545760405162461bcd60e51b815260206004820152603260248201527f4552433732313a207472616e7366657220746f206e6f6e20455243373231526560448201527131b2b4bb32b91034b6b83632b6b2b73a32b960711b6064820152608401610832565b805181602001fd5b6001600160e01b031916630a85bd0160e11b149050611d76565b506001949350505050565b6000807a184f03e93ff9f4daa797ed6e38ed64bf6a1f01000000000000000083106127ca577a184f03e93ff9f4daa797ed6e38ed64bf6a1f010000000000000000830492506040015b6d04ee2d6d415b85acef810000000083106127f6576d04ee2d6d415b85acef8100000000830492506020015b662386f26fc10000831061281457662386f26fc10000830492506010015b6305f5e100831061282c576305f5e100830492506008015b612710831061284057612710830492506004015b60648310612852576064830492506002015b600a83106106e35760010192915050565b600181111561165a576001600160a01b038416156128a9576001600160a01b038416600090815260036020526040812080548392906128a390849061342c565b90915550505b6001600160a01b0383161561165a576001600160a01b038316600090815260036020526040812080548392906128e0908490613455565b909155505050505050565b600060016128f8846111d4565b612902919061342c565b600083815260076020526040902054909150808214612955576001600160a01b03841660009081526006602090815260408083208584528252808320548484528184208190558352600790915290208190555b5060009182526007602090815260408084208490556001600160a01b039094168352600681528383209183525290812055565b60085460009061299a9060019061342c565b600083815260096020526040812054600880549394509092849081106129c2576129c2613416565b9060005260206000200154905080600883815481106129e3576129e3613416565b6000918252602080832090910192909255828152600990915260408082208490558582528120556008805480612a1b57612a1b61343f565b6001900381819060005260206000200160009055905550505050565b6000612a42836111d4565b6001600160a01b039093166000908152600660209081526040808320868452825280832085905593825260079052919091209190915550565b6001600160a01b038216612ad15760405162461bcd60e51b815260206004820181905260248201527f4552433732313a206d696e7420746f20746865207a65726f20616464726573736044820152606401610832565b6000818152600260205260409020546001600160a01b031615612b365760405162461bcd60e51b815260206004820152601c60248201527f4552433732313a20746f6b656e20616c7265616479206d696e746564000000006044820152606401610832565b612b44600083836001612476565b6000818152600260205260409020546001600160a01b031615612ba95760405162461bcd60e51b815260206004820152601c60248201527f4552433732313a20746f6b656e20616c7265616479206d696e746564000000006044820152606401610832565b6001600160a01b038216600081815260036020908152604080832080546001019055848352600290915280822080546001600160a01b0319168417905551839291907fddf252ad1be2c89b69c2b068fc378daa952ba7f163c4a11628f55a4df523b3ef908290a46000818152600c6020526040902060050180546001600160a01b0384166001600160a01b03199091161790555050565b508054612c4c90613177565b6000825580601f10612c5c575050565b601f0160209004906000526020600020908101906118ac91905b80821115612c8a5760008155600101612c76565b5090565b6001600160e01b0319811681146118ac57600080fd5b600060208284031215612cb657600080fd5b8135612cc181612c8e565b9392505050565b60005b83811015612ce3578181015183820152602001612ccb565b50506000910152565b60008151808452612d04816020860160208601612cc8565b601f01601f19169290920160200192915050565b602081526000612cc16020830184612cec565b600060208284031215612d3d57600080fd5b5035919050565b80356001600160a01b0381168114612d5b57600080fd5b919050565b60008060408385031215612d7357600080fd5b612d7c83612d44565b946020939093013593505050565b600080600060608486031215612d9f57600080fd5b612da884612d44565b9250612db660208501612d44565b9150604084013590509250925092565b60008060408385031215612dd957600080fd5b50508035926020909101359150565b634e487b7160e01b600052604160045260246000fd5b600067ffffffffffffffff80841115612e1957612e19612de8565b604051601f8501601f19908116603f01168101908282118183101715612e4157612e41612de8565b81604052809350858152868686011115612e5a57600080fd5b858560208301376000602087830101525050509392505050565b60008060408385031215612e8757600080fd5b823567ffffffffffffffff811115612e9e57600080fd5b8301601f81018513612eaf57600080fd5b612ebe85823560208401612dfe565b95602094909401359450505050565b600060208284031215612edf57600080fd5b612cc182612d44565b600080600060608486031215612efd57600080fd5b505081359360208301359350604090920135919050565b60008060408385031215612f2757600080fd5b82359150612f3760208401612d44565b90509250929050565b60008060408385031215612f5357600080fd5b612f5c83612d44565b915060208301358015158114612f7157600080fd5b809150509250929050565b60008060008060808587031215612f9257600080fd5b612f9b85612d44565b9350612fa960208601612d44565b925060408501359150606085013567ffffffffffffffff811115612fcc57600080fd5b8501601f81018713612fdd57600080fd5b612fec87823560208401612dfe565b91505092959194509250565b87815286602082015260e06040820152600061301760e0830188612cec565b6060830196909652506001600160a01b0393841660808201529190921660a082015260c001529392505050565b6000806040838503121561305757600080fd5b61306083612d44565b9150612f3760208401612d44565b600081518084526020808501945080840160005b838110156130a0578151151587529582019590820190600101613082565b509495945050505050565b60006040808301818452808651808352606092508286019150828160051b8701016020808a0160005b8481101561315757605f198a8503018652815160e081518652848201518587015289820151818b88015261310a82880182612cec565b838b0151888c01526080808501516001600160a01b03908116918a019190915260a0808601519091169089015260c0938401519390970192909252505094820194908201906001016130d4565b50508782039088015261316a818961306e565b9998505050505050505050565b600181811c9082168061318b57607f821691505b602082108103610bf857634e487b7160e01b600052602260045260246000fd5b634e487b7160e01b600052601160045260246000fd5b6000816131d0576131d06131ab565b506000190190565b600081546131e581613177565b600182811680156131fd576001811461321257613241565b60ff1984168752821515830287019450613241565b8560005260208060002060005b858110156132385781548a82015290840190820161321f565b50505082870194505b5050505092915050565b600061326061325a83866131d8565b846131d8565b7f3c2f746578743e3c2f7376673e000000000000000000000000000000000000008152600d01949350505050565b600081516132a0818560208601612cc8565b9290920192915050565b7f646174613a696d6167652f7376672b786d6c3b6261736536342c0000000000008152600082516132e281601a850160208701612cc8565b91909101601a0192915050565b601f8211156108d357600081815260208120601f850160051c810160208610156133165750805b601f850160051c820191505b8181101561333557828155600101613322565b505050505050565b815167ffffffffffffffff81111561335757613357612de8565b61336b816133658454613177565b846132ef565b602080601f8311600181146133a057600084156133885750858301515b600019600386901b1c1916600185901b178555613335565b600085815260208120601f198616915b828110156133cf578886015182559484019460019091019084016133b0565b50858210156133ed5787850151600019600388901b60f8161c191681555b5050505050600190811b01905550565b60006001820161340f5761340f6131ab565b5060010190565b634e487b7160e01b600052603260045260246000fd5b818103818111156106e3576106e36131ab565b634e487b7160e01b600052603160045260246000fd5b808201808211156106e3576106e36131ab565b80820281158282048414176106e3576106e36131ab565b60008261349c57634e487b7160e01b600052601260045260246000fd5b500490565b7f7b226e616d65223a20224e4654776565742023000000000000000000000000008152600086516134d9816013850160208b01612cc8565b7f222c20226465736372697074696f6e223a202254686973204e465420697320616013918401918201527f2074776565742e222c2022696d616765223a20220000000000000000000000006033820152865161353c816047840160208b01612cc8565b7f222c202261747472696275746573223a205b207b202274726169745f74797065604792909101918201527f223a2022506172656e74205477656574204964222c202276616c7565223a2022606782015285516135a0816087840160208a01612cc8565b7f227d2c207b202274726169745f74797065223a2022436f6e74656e74222c2022608792909101918201527f76616c7565223a2022000000000000000000000000000000000000000000000060a782015261368561365c61365661360760b08501896131d8565b7f227d202c207b202274726169745f74797065223a20224c696b6573222c20227681527f616c7565223a2022000000000000000000000000000000000000000000000000602082015260280190565b8661328e565b7f227d5d7d00000000000000000000000000000000000000000000000000000000815260040190565b98975050505050505050565b7f646174613a6170706c69636174696f6e2f6a736f6e3b6261736536342c0000008152600082516136c981601d850160208701612cc8565b91909101601d0192915050565b60006001600160a01b038087168352808616602084015250836040830152608060608301526137086080830184612cec565b9695505050505050565b60006020828403121561372457600080fd5b8151612cc181612c8e56fe4142434445464748494a4b4c4d4e4f505152535455565758595a6162636465666768696a6b6c6d6e6f707172737475767778797a303132333435363738392b2fa2646970667358221220a543c006c1bc709b3c791f54d7e0ce85d3fd79091d8f14739d69eaddb86c57a264736f6c634300081100333c73766720786d6c6e733d27687474703a2f2f7777772e77332e6f72672f323030302f73766727207072657365727665417370656374526174696f3d27784d696e594d696e206d656574272076696577426f783d273020302033353020333530273e3c7374796c653e2e62617365207b2066696c6c3a2077686974653b20666f6e742d66616d696c793a2073657269663b20666f6e742d73697a653a20323470783b207d3c2f7374796c653e3c726563742077696474683d273130302527206865696768743d2731303025272066696c6c3d27626c61636b27202f3e3c7465787420783d273530252720793d273530252720636c6173733d27626173652720646f6d696e616e742d626173656c696e653d276d6964646c652720746578742d616e63686f723d276d6964646c65273e",
  "linkReferences": {},
  "deployedLinkReferences": {}
}