{
  "_format": "hh-sol-artifact-1",
  "contractName": "NFTwitter",
  "sourceName": "contracts/NFTwitter.sol",
  "abi": [
    {
      "inputs": [],
      "stateMutability": "nonpayable",
      "type": "constructor"
    },
    {
      "anonymous": false,
      "inputs": [
        {
          "indexed": true,
          "internalType": "address",
          "name": "owner",
          "type": "address"
        },
        {
          "indexed": true,
          "internalType": "address",
          "name": "approved",
          "type": "address"
        },
        {
          "indexed": true,
          "internalType": "uint256",
          "name": "tokenId",
          "type": "uint256"
        }
      ],
      "name": "Approval",
      "type": "event"
    },
    {
      "anonymous": false,
      "inputs": [
        {
          "indexed": true,
          "internalType": "address",
          "name": "owner",
          "type": "address"
        },
        {
          "indexed": true,
          "internalType": "address",
          "name": "operator",
          "type": "address"
        },
        {
          "indexed": false,
          "internalType": "bool",
          "name": "approved",
          "type": "bool"
        }
      ],
      "name": "ApprovalForAll",
      "type": "event"
    },
    {
      "anonymous": false,
      "inputs": [
        {
          "indexed": true,
          "internalType": "address",
          "name": "from",
          "type": "address"
        },
        {
          "indexed": true,
          "internalType": "address",
          "name": "to",
          "type": "address"
        },
        {
          "indexed": true,
          "internalType": "uint256",
          "name": "tokenId",
          "type": "uint256"
        }
      ],
      "name": "Transfer",
      "type": "event"
    },
    {
      "anonymous": false,
      "inputs": [
        {
          "indexed": false,
          "internalType": "uint256",
          "name": "tweetId",
          "type": "uint256"
        }
      ],
      "name": "newTweet",
      "type": "event"
    },
    {
      "anonymous": false,
      "inputs": [
        {
          "indexed": false,
          "internalType": "uint256",
          "name": "tweetId",
          "type": "uint256"
        }
      ],
      "name": "tweetDeleted",
      "type": "event"
    },
    {
      "inputs": [
        {
          "internalType": "address",
          "name": "to",
          "type": "address"
        },
        {
          "internalType": "uint256",
          "name": "tokenId",
          "type": "uint256"
        }
      ],
      "name": "approve",
      "outputs": [],
      "stateMutability": "nonpayable",
      "type": "function"
    },
    {
      "inputs": [
        {
          "internalType": "address",
          "name": "owner",
          "type": "address"
        }
      ],
      "name": "balanceOf",
      "outputs": [
        {
          "internalType": "uint256",
          "name": "",
          "type": "uint256"
        }
      ],
      "stateMutability": "view",
      "type": "function"
    },
    {
      "inputs": [
        {
          "internalType": "uint256",
          "name": "_tokenId",
          "type": "uint256"
        }
      ],
      "name": "deleteTweet",
      "outputs": [],
      "stateMutability": "nonpayable",
      "type": "function"
    },
    {
      "inputs": [
        {
          "internalType": "uint256",
          "name": "tokenId",
          "type": "uint256"
        }
      ],
      "name": "getApproved",
      "outputs": [
        {
          "internalType": "address",
          "name": "",
          "type": "address"
        }
      ],
      "stateMutability": "view",
      "type": "function"
    },
    {
      "inputs": [
        {
          "internalType": "uint256",
          "name": "_tokenId",
          "type": "uint256"
        }
      ],
      "name": "getReplies",
      "outputs": [
        {
          "components": [
            {
              "internalType": "uint256",
              "name": "tweetId",
              "type": "uint256"
            },
            {
              "internalType": "uint256",
              "name": "parentId",
              "type": "uint256"
            },
            {
              "internalType": "string",
              "name": "content",
              "type": "string"
            },
            {
              "internalType": "uint256",
              "name": "timestamp",
              "type": "uint256"
            },
            {
              "internalType": "address",
              "name": "author",
              "type": "address"
            },
            {
              "internalType": "address",
              "name": "owner",
              "type": "address"
            }
          ],
          "internalType": "struct NFTwitter.Tweet[]",
          "name": "",
          "type": "tuple[]"
        }
      ],
      "stateMutability": "view",
      "type": "function"
    },
    {
      "inputs": [
        {
          "internalType": "uint256",
          "name": "_tokenId",
          "type": "uint256"
        }
      ],
      "name": "getTweet",
      "outputs": [
        {
          "components": [
            {
              "internalType": "uint256",
              "name": "tweetId",
              "type": "uint256"
            },
            {
              "internalType": "uint256",
              "name": "parentId",
              "type": "uint256"
            },
            {
              "internalType": "string",
              "name": "content",
              "type": "string"
            },
            {
              "internalType": "uint256",
              "name": "timestamp",
              "type": "uint256"
            },
            {
              "internalType": "address",
              "name": "author",
              "type": "address"
            },
            {
              "internalType": "address",
              "name": "owner",
              "type": "address"
            }
          ],
          "internalType": "struct NFTwitter.Tweet",
          "name": "",
          "type": "tuple"
        }
      ],
      "stateMutability": "view",
      "type": "function"
    },
    {
      "inputs": [],
      "name": "getTweets",
      "outputs": [
        {
          "components": [
            {
              "internalType": "uint256",
              "name": "tweetId",
              "type": "uint256"
            },
            {
              "internalType": "uint256",
              "name": "parentId",
              "type": "uint256"
            },
            {
              "internalType": "string",
              "name": "content",
              "type": "string"
            },
            {
              "internalType": "uint256",
              "name": "timestamp",
              "type": "uint256"
            },
            {
              "internalType": "address",
              "name": "author",
              "type": "address"
            },
            {
              "internalType": "address",
              "name": "owner",
              "type": "address"
            }
          ],
          "internalType": "struct NFTwitter.Tweet[]",
          "name": "",
          "type": "tuple[]"
        }
      ],
      "stateMutability": "view",
      "type": "function"
    },
    {
      "inputs": [
        {
          "internalType": "address",
          "name": "owner",
          "type": "address"
        }
      ],
      "name": "getTweetsOfOwner",
      "outputs": [
        {
          "components": [
            {
              "internalType": "uint256",
              "name": "tweetId",
              "type": "uint256"
            },
            {
              "internalType": "uint256",
              "name": "parentId",
              "type": "uint256"
            },
            {
              "internalType": "string",
              "name": "content",
              "type": "string"
            },
            {
              "internalType": "uint256",
              "name": "timestamp",
              "type": "uint256"
            },
            {
              "internalType": "address",
              "name": "author",
              "type": "address"
            },
            {
              "internalType": "address",
              "name": "owner",
              "type": "address"
            }
          ],
          "internalType": "struct NFTwitter.Tweet[]",
          "name": "",
          "type": "tuple[]"
        }
      ],
      "stateMutability": "view",
      "type": "function"
    },
    {
      "inputs": [
        {
          "internalType": "address",
          "name": "owner",
          "type": "address"
        },
        {
          "internalType": "address",
          "name": "operator",
          "type": "address"
        }
      ],
      "name": "isApprovedForAll",
      "outputs": [
        {
          "internalType": "bool",
          "name": "",
          "type": "bool"
        }
      ],
      "stateMutability": "view",
      "type": "function"
    },
    {
      "inputs": [],
      "name": "name",
      "outputs": [
        {
          "internalType": "string",
          "name": "",
          "type": "string"
        }
      ],
      "stateMutability": "view",
      "type": "function"
    },
    {
      "inputs": [
        {
          "internalType": "uint256",
          "name": "tokenId",
          "type": "uint256"
        }
      ],
      "name": "ownerOf",
      "outputs": [
        {
          "internalType": "address",
          "name": "",
          "type": "address"
        }
      ],
      "stateMutability": "view",
      "type": "function"
    },
    {
      "inputs": [
        {
          "internalType": "address",
          "name": "from",
          "type": "address"
        },
        {
          "internalType": "address",
          "name": "to",
          "type": "address"
        },
        {
          "internalType": "uint256",
          "name": "tokenId",
          "type": "uint256"
        }
      ],
      "name": "safeTransferFrom",
      "outputs": [],
      "stateMutability": "nonpayable",
      "type": "function"
    },
    {
      "inputs": [
        {
          "internalType": "address",
          "name": "from",
          "type": "address"
        },
        {
          "internalType": "address",
          "name": "to",
          "type": "address"
        },
        {
          "internalType": "uint256",
          "name": "tokenId",
          "type": "uint256"
        },
        {
          "internalType": "bytes",
          "name": "_data",
          "type": "bytes"
        }
      ],
      "name": "safeTransferFrom",
      "outputs": [],
      "stateMutability": "nonpayable",
      "type": "function"
    },
    {
      "inputs": [
        {
          "internalType": "address",
          "name": "operator",
          "type": "address"
        },
        {
          "internalType": "bool",
          "name": "approved",
          "type": "bool"
        }
      ],
      "name": "setApprovalForAll",
      "outputs": [],
      "stateMutability": "nonpayable",
      "type": "function"
    },
    {
      "inputs": [
        {
          "internalType": "bytes4",
          "name": "interfaceId",
          "type": "bytes4"
        }
      ],
      "name": "supportsInterface",
      "outputs": [
        {
          "internalType": "bool",
          "name": "",
          "type": "bool"
        }
      ],
      "stateMutability": "view",
      "type": "function"
    },
    {
      "inputs": [],
      "name": "symbol",
      "outputs": [
        {
          "internalType": "string",
          "name": "",
          "type": "string"
        }
      ],
      "stateMutability": "view",
      "type": "function"
    },
    {
      "inputs": [
        {
          "internalType": "uint256",
          "name": "_tokenId",
          "type": "uint256"
        }
      ],
      "name": "tokenURI",
      "outputs": [
        {
          "internalType": "string",
          "name": "",
          "type": "string"
        }
      ],
      "stateMutability": "view",
      "type": "function"
    },
    {
      "inputs": [
        {
          "internalType": "address",
          "name": "from",
          "type": "address"
        },
        {
          "internalType": "address",
          "name": "to",
          "type": "address"
        },
        {
          "internalType": "uint256",
          "name": "tokenId",
          "type": "uint256"
        }
      ],
      "name": "transferFrom",
      "outputs": [],
      "stateMutability": "nonpayable",
      "type": "function"
    },
    {
      "inputs": [
        {
          "internalType": "string",
          "name": "content",
          "type": "string"
        },
        {
          "internalType": "uint256",
          "name": "parentId",
          "type": "uint256"
        }
      ],
      "name": "tweet",
      "outputs": [],
      "stateMutability": "nonpayable",
      "type": "function"
    },
    {
      "inputs": [
        {
          "internalType": "uint256",
          "name": "_tokenId",
          "type": "uint256"
        }
      ],
      "name": "tweetImageURI",
      "outputs": [
        {
          "internalType": "string",
          "name": "",
          "type": "string"
        }
      ],
      "stateMutability": "view",
      "type": "function"
    },
    {
      "inputs": [
        {
          "internalType": "uint256",
          "name": "",
          "type": "uint256"
        }
      ],
      "name": "tweets",
      "outputs": [
        {
          "internalType": "uint256",
          "name": "tweetId",
          "type": "uint256"
        },
        {
          "internalType": "uint256",
          "name": "parentId",
          "type": "uint256"
        },
        {
          "internalType": "string",
          "name": "content",
          "type": "string"
        },
        {
          "internalType": "uint256",
          "name": "timestamp",
          "type": "uint256"
        },
        {
          "internalType": "address",
          "name": "author",
          "type": "address"
        },
        {
          "internalType": "address",
          "name": "owner",
          "type": "address"
        }
      ],
      "stateMutability": "view",
      "type": "function"
    },
    {
      "inputs": [
        {
          "internalType": "address",
          "name": "",
          "type": "address"
        },
        {
          "internalType": "uint256",
          "name": "",
          "type": "uint256"
        }
      ],
      "name": "tweetsByOwner",
      "outputs": [
        {
          "internalType": "uint256",
          "name": "",
          "type": "uint256"
        }
      ],
      "stateMutability": "view",
      "type": "function"
    },
    {
      "inputs": [
        {
          "internalType": "uint256",
          "name": "",
          "type": "uint256"
        },
        {
          "internalType": "uint256",
          "name": "",
          "type": "uint256"
        }
      ],
      "name": "tweetsReplies",
      "outputs": [
        {
          "internalType": "uint256",
          "name": "",
          "type": "uint256"
        }
      ],
      "stateMutability": "view",
      "type": "function"
    }
  ],
  "bytecode": "0x608060405260405180610160016040528061012f815260200162004b8d61012f9139600a908051906020019062000038929190620000f5565b503480156200004657600080fd5b506040518060400160405280600981526020017f4e465477697474657200000000000000000000000000000000000000000000008152506040518060400160405280600481526020017f4e465454000000000000000000000000000000000000000000000000000000008152508160009080519060200190620000cb929190620000f5565b508060019080519060200190620000e4929190620000f5565b50505060016006819055506200020a565b8280546200010390620001a5565b90600052602060002090601f01602090048101928262000127576000855562000173565b82601f106200014257805160ff191683800117855562000173565b8280016001018555821562000173579182015b828111156200017257825182559160200191906001019062000155565b5b50905062000182919062000186565b5090565b5b80821115620001a157600081600090555060010162000187565b5090565b60006002820490506001821680620001be57607f821691505b60208210811415620001d557620001d4620001db565b5b50919050565b7f4e487b7100000000000000000000000000000000000000000000000000000000600052602260045260246000fd5b614973806200021a6000396000f3fe608060405234801561001057600080fd5b506004361061014d5760003560e01c80636352211e116100c3578063c3ad5ecb1161007c578063c3ad5ecb146103d2578063c87b56dd14610402578063cc47f80f14610432578063e8d857b014610462578063e985e9c514610497578063fc86741f146104c75761014d565b80636352211e146102ec57806370a082311461031c57806395d89b411461034c578063a22cb4651461036a578063ae58449d14610386578063b88d4fde146103b65761014d565b80633a6462d0116101155780633a6462d0146102085780633cb6bbde1461023857806342842e0e146102685780634caf9511146102845780635775912a146102a05780635f7c8c0f146102bc5761014d565b806301ffc9a71461015257806306fdde0314610182578063081812fc146101a0578063095ea7b3146101d057806323b872dd146101ec575b600080fd5b61016c60048036038101906101679190613395565b6104e5565b6040516101799190614100565b60405180910390f35b61018a6105c7565b604051610197919061411b565b60405180910390f35b6101ba60048036038101906101b5919061343b565b610659565b6040516101c79190614077565b60405180910390f35b6101ea60048036038101906101e59190613359565b6106de565b005b61020660048036038101906102019190613253565b6107f6565b005b610222600480360381019061021d9190613464565b610856565b60405161022f9190614384565b60405180910390f35b610252600480360381019061024d919061343b565b610887565b60405161025f919061411b565b60405180910390f35b610282600480360381019061027d9190613253565b61093f565b005b61029e600480360381019061029991906133e7565b61095f565b005b6102ba60048036038101906102b5919061343b565b610c1d565b005b6102d660048036038101906102d191906131ee565b610c60565b6040516102e391906140de565b60405180910390f35b6103066004803603810190610301919061343b565b611081565b6040516103139190614077565b60405180910390f35b610336600480360381019061033191906131ee565b611133565b6040516103439190614384565b60405180910390f35b6103546111eb565b604051610361919061411b565b60405180910390f35b610384600480360381019061037f919061331d565b61127d565b005b6103a0600480360381019061039b919061343b565b611293565b6040516103ad91906140de565b60405180910390f35b6103d060048036038101906103cb91906132a2565b6116d2565b005b6103ec60048036038101906103e7919061343b565b611734565b6040516103f99190614362565b60405180910390f35b61041c6004803603810190610417919061343b565b611907565b604051610429919061411b565b60405180910390f35b61044c60048036038101906104479190613359565b6119f6565b6040516104599190614384565b60405180910390f35b61047c6004803603810190610477919061343b565b611a27565b60405161048e9695949392919061439f565b60405180910390f35b6104b160048036038101906104ac9190613217565b611b2b565b6040516104be9190614100565b60405180910390f35b6104cf611bbf565b6040516104dc91906140de565b60405180910390f35b60007f80ac58cd000000000000000000000000000000000000000000000000000000007bffffffffffffffffffffffffffffffffffffffffffffffffffffffff1916827bffffffffffffffffffffffffffffffffffffffffffffffffffffffff191614806105b057507f5b5e139f000000000000000000000000000000000000000000000000000000007bffffffffffffffffffffffffffffffffffffffffffffffffffffffff1916827bffffffffffffffffffffffffffffffffffffffffffffffffffffffff1916145b806105c057506105bf82611e8c565b5b9050919050565b6060600080546105d690614705565b80601f016020809104026020016040519081016040528092919081815260200182805461060290614705565b801561064f5780601f106106245761010080835404028352916020019161064f565b820191906000526020600020905b81548152906001019060200180831161063257829003601f168201915b5050505050905090565b600061066482611ef6565b6106a3576040517f08c379a000000000000000000000000000000000000000000000000000000000815260040161069a906142c2565b60405180910390fd5b6004600083815260200190815260200160002060009054906101000a900473ffffffffffffffffffffffffffffffffffffffff169050919050565b60006106e982611081565b90508073ffffffffffffffffffffffffffffffffffffffff168373ffffffffffffffffffffffffffffffffffffffff16141561075a576040517f08c379a000000000000000000000000000000000000000000000000000000000815260040161075190614302565b60405180910390fd5b8073ffffffffffffffffffffffffffffffffffffffff16610779611f62565b73ffffffffffffffffffffffffffffffffffffffff1614806107a857506107a7816107a2611f62565b611b2b565b5b6107e7576040517f08c379a00000000000000000000000000000000000000000000000000000000081526004016107de90614222565b60405180910390fd5b6107f18383611f6a565b505050565b610807610801611f62565b82612023565b610846576040517f08c379a000000000000000000000000000000000000000000000000000000000815260040161083d90614322565b60405180910390fd5b610851838383612101565b505050565b6009602052816000526040600020818154811061087257600080fd5b90600052602060002001600091509150505481565b60608161089381611ef6565b6108d2576040517f08c379a00000000000000000000000000000000000000000000000000000000081526004016108c9906142a2565b60405180910390fd5b6000600a600760008681526020019081526020016000206002016040516020016108fd929190613f8f565b604051602081830303815290604052905061091781612251565b6040516020016109279190614055565b60405160208183030381529060405292505050919050565b61095a838383604051806020016040528060008152506116d2565b505050565b6000600654905061096f82611ef6565b8061097a5750600082145b6109b9576040517f08c379a00000000000000000000000000000000000000000000000000000000081526004016109b090614342565b60405180910390fd5b6109c3338261240f565b6040518060c001604052808281526020018381526020018481526020014281526020013373ffffffffffffffffffffffffffffffffffffffff1681526020013373ffffffffffffffffffffffffffffffffffffffff168152506007600083815260200190815260200160002060008201518160000155602082015181600101556040820151816002019080519060200190610a5f929190612fb0565b506060820151816003015560808201518160040160006101000a81548173ffffffffffffffffffffffffffffffffffffffff021916908373ffffffffffffffffffffffffffffffffffffffff16021790555060a08201518160050160006101000a81548173ffffffffffffffffffffffffffffffffffffffff021916908373ffffffffffffffffffffffffffffffffffffffff160217905550905050600860003373ffffffffffffffffffffffffffffffffffffffff1673ffffffffffffffffffffffffffffffffffffffff168152602001908152602001600020600654908060018154018082558091505060019003906000526020600020016000909190919091505560008214610ba657600960008381526020019081526020016000208190806001815401808255809150506001900390600052602060002001600090919091909150555b60066000815480929190610bb990614737565b9190505550610be16040518060600160405280602381526020016148db60239139838561242d565b7f74897990c0e4cf5c3ba4e6719715fa3d7aa7d79982e9a12edbdb950535f8e98881604051610c109190614384565b60405180910390a1505050565b610c26816124cc565b7f277cb36cc6dc1bef71921552175fd7d027ba1ce9421ad993bed83e64ddbfd2bd81604051610c559190614384565b60405180910390a150565b60606000600860008473ffffffffffffffffffffffffffffffffffffffff1673ffffffffffffffffffffffffffffffffffffffff168152602001908152602001600020805480602002602001604051908101604052809291908181526020018280548015610ced57602002820191906000526020600020905b815481526020019060010190808311610cd9575b50505050509050600081519050600080600190505b82811015610d7a57610d53848281518110610d46577f4e487b7100000000000000000000000000000000000000000000000000000000600052603260045260246000fd5b6020026020010151611ef6565b15610d67578180610d6390614737565b9250505b8080610d7290614737565b915050610d02565b5060008167ffffffffffffffff811115610dbd577f4e487b7100000000000000000000000000000000000000000000000000000000600052604160045260246000fd5b604051908082528060200260200182016040528015610df657816020015b610de3613036565b815260200190600190039081610ddb5790505b5090506000805b8381101561107357610e4e868281518110610e41577f4e487b7100000000000000000000000000000000000000000000000000000000600052603260045260246000fd5b6020026020010151611ef6565b156110605760076000878381518110610e90577f4e487b7100000000000000000000000000000000000000000000000000000000600052603260045260246000fd5b602002602001015181526020019081526020016000206040518060c00160405290816000820154815260200160018201548152602001600282018054610ed590614705565b80601f0160208091040260200160405190810160405280929190818152602001828054610f0190614705565b8015610f4e5780601f10610f2357610100808354040283529160200191610f4e565b820191906000526020600020905b815481529060010190602001808311610f3157829003601f168201915b50505050508152602001600382015481526020016004820160009054906101000a900473ffffffffffffffffffffffffffffffffffffffff1673ffffffffffffffffffffffffffffffffffffffff1673ffffffffffffffffffffffffffffffffffffffff1681526020016005820160009054906101000a900473ffffffffffffffffffffffffffffffffffffffff1673ffffffffffffffffffffffffffffffffffffffff1673ffffffffffffffffffffffffffffffffffffffff1681525050838381518110611046577f4e487b7100000000000000000000000000000000000000000000000000000000600052603260045260246000fd5b6020026020010181905250818061105c90614737565b9250505b808061106b90614737565b915050610dfd565b508195505050505050919050565b6000806002600084815260200190815260200160002060009054906101000a900473ffffffffffffffffffffffffffffffffffffffff169050600073ffffffffffffffffffffffffffffffffffffffff168173ffffffffffffffffffffffffffffffffffffffff16141561112a576040517f08c379a000000000000000000000000000000000000000000000000000000000815260040161112190614262565b60405180910390fd5b80915050919050565b60008073ffffffffffffffffffffffffffffffffffffffff168273ffffffffffffffffffffffffffffffffffffffff1614156111a4576040517f08c379a000000000000000000000000000000000000000000000000000000000815260040161119b90614242565b60405180910390fd5b600360008373ffffffffffffffffffffffffffffffffffffffff1673ffffffffffffffffffffffffffffffffffffffff168152602001908152602001600020549050919050565b6060600180546111fa90614705565b80601f016020809104026020016040519081016040528092919081815260200182805461122690614705565b80156112735780601f1061124857610100808354040283529160200191611273565b820191906000526020600020905b81548152906001019060200180831161125657829003601f168201915b5050505050905090565b61128f611288611f62565b83836125dd565b5050565b60608161129f81611ef6565b6112de576040517f08c379a00000000000000000000000000000000000000000000000000000000081526004016112d5906142a2565b60405180910390fd5b60006009600085815260200190815260200160002080548060200260200160405190810160405280929190818152602001828054801561133d57602002820191906000526020600020905b815481526020019060010190808311611329575b50505050509050600081519050600080600190505b828110156113ca576113a3848281518110611396577f4e487b7100000000000000000000000000000000000000000000000000000000600052603260045260246000fd5b6020026020010151611ef6565b156113b75781806113b390614737565b9250505b80806113c290614737565b915050611352565b5060008167ffffffffffffffff81111561140d577f4e487b7100000000000000000000000000000000000000000000000000000000600052604160045260246000fd5b60405190808252806020026020018201604052801561144657816020015b611433613036565b81526020019060019003908161142b5790505b5090506000805b838110156116c35761149e868281518110611491577f4e487b7100000000000000000000000000000000000000000000000000000000600052603260045260246000fd5b6020026020010151611ef6565b156116b057600760008783815181106114e0577f4e487b7100000000000000000000000000000000000000000000000000000000600052603260045260246000fd5b602002602001015181526020019081526020016000206040518060c0016040529081600082015481526020016001820154815260200160028201805461152590614705565b80601f016020809104026020016040519081016040528092919081815260200182805461155190614705565b801561159e5780601f106115735761010080835404028352916020019161159e565b820191906000526020600020905b81548152906001019060200180831161158157829003601f168201915b50505050508152602001600382015481526020016004820160009054906101000a900473ffffffffffffffffffffffffffffffffffffffff1673ffffffffffffffffffffffffffffffffffffffff1673ffffffffffffffffffffffffffffffffffffffff1681526020016005820160009054906101000a900473ffffffffffffffffffffffffffffffffffffffff1673ffffffffffffffffffffffffffffffffffffffff1673ffffffffffffffffffffffffffffffffffffffff1681525050838381518110611696577f4e487b7100000000000000000000000000000000000000000000000000000000600052603260045260246000fd5b602002602001018190525081806116ac90614737565b9250505b80806116bb90614737565b91505061144d565b50819650505050505050919050565b6116e36116dd611f62565b83612023565b611722576040517f08c379a000000000000000000000000000000000000000000000000000000000815260040161171990614322565b60405180910390fd5b61172e8484848461274a565b50505050565b61173c613036565b8161174681611ef6565b611785576040517f08c379a000000000000000000000000000000000000000000000000000000000815260040161177c906142a2565b60405180910390fd5b600760008481526020019081526020016000206040518060c001604052908160008201548152602001600182015481526020016002820180546117c790614705565b80601f01602080910402602001604051908101604052809291908181526020018280546117f390614705565b80156118405780601f1061181557610100808354040283529160200191611840565b820191906000526020600020905b81548152906001019060200180831161182357829003601f168201915b50505050508152602001600382015481526020016004820160009054906101000a900473ffffffffffffffffffffffffffffffffffffffff1673ffffffffffffffffffffffffffffffffffffffff1673ffffffffffffffffffffffffffffffffffffffff1681526020016005820160009054906101000a900473ffffffffffffffffffffffffffffffffffffffff1673ffffffffffffffffffffffffffffffffffffffff1673ffffffffffffffffffffffffffffffffffffffff1681525050915050919050565b60608161191381611ef6565b611952576040517f08c379a0000000000000000000000000000000000000000000000000000000008152600401611949906142a2565b60405180910390fd5b60006119c5611960856127a6565b61196986610887565b61198860076000898152602001908152602001600020600101546127a6565b600760008981526020019081526020016000206002016040516020016119b19493929190613fbe565b604051602081830303815290604052612251565b90506000816040516020016119da9190614033565b6040516020818303038152906040529050809350505050919050565b60086020528160005260406000208181548110611a1257600080fd5b90600052602060002001600091509150505481565b6007602052806000526040600020600091509050806000015490806001015490806002018054611a5690614705565b80601f0160208091040260200160405190810160405280929190818152602001828054611a8290614705565b8015611acf5780601f10611aa457610100808354040283529160200191611acf565b820191906000526020600020905b815481529060010190602001808311611ab257829003601f168201915b5050505050908060030154908060040160009054906101000a900473ffffffffffffffffffffffffffffffffffffffff16908060050160009054906101000a900473ffffffffffffffffffffffffffffffffffffffff16905086565b6000600560008473ffffffffffffffffffffffffffffffffffffffff1673ffffffffffffffffffffffffffffffffffffffff16815260200190815260200160002060008373ffffffffffffffffffffffffffffffffffffffff1673ffffffffffffffffffffffffffffffffffffffff16815260200190815260200160002060009054906101000a900460ff16905092915050565b6060600080600190505b600654811015611c0357611bdc81611ef6565b15611bf0578180611bec90614737565b9250505b8080611bfb90614737565b915050611bc9565b5060008167ffffffffffffffff811115611c46577f4e487b7100000000000000000000000000000000000000000000000000000000600052604160045260246000fd5b604051908082528060200260200182016040528015611c7f57816020015b611c6c613036565b815260200190600190039081611c645790505b509050600080600190505b600654811015611e8257611c9d81611ef6565b15611e6f57600760008281526020019081526020016000206040518060c00160405290816000820154815260200160018201548152602001600282018054611ce490614705565b80601f0160208091040260200160405190810160405280929190818152602001828054611d1090614705565b8015611d5d5780601f10611d3257610100808354040283529160200191611d5d565b820191906000526020600020905b815481529060010190602001808311611d4057829003601f168201915b50505050508152602001600382015481526020016004820160009054906101000a900473ffffffffffffffffffffffffffffffffffffffff1673ffffffffffffffffffffffffffffffffffffffff1673ffffffffffffffffffffffffffffffffffffffff1681526020016005820160009054906101000a900473ffffffffffffffffffffffffffffffffffffffff1673ffffffffffffffffffffffffffffffffffffffff1673ffffffffffffffffffffffffffffffffffffffff1681525050838381518110611e55577f4e487b7100000000000000000000000000000000000000000000000000000000600052603260045260246000fd5b60200260200101819052508180611e6b90614737565b9250505b8080611e7a90614737565b915050611c8a565b5081935050505090565b60007f01ffc9a7000000000000000000000000000000000000000000000000000000007bffffffffffffffffffffffffffffffffffffffffffffffffffffffff1916827bffffffffffffffffffffffffffffffffffffffffffffffffffffffff1916149050919050565b60008073ffffffffffffffffffffffffffffffffffffffff166002600084815260200190815260200160002060009054906101000a900473ffffffffffffffffffffffffffffffffffffffff1673ffffffffffffffffffffffffffffffffffffffff1614159050919050565b600033905090565b816004600083815260200190815260200160002060006101000a81548173ffffffffffffffffffffffffffffffffffffffff021916908373ffffffffffffffffffffffffffffffffffffffff160217905550808273ffffffffffffffffffffffffffffffffffffffff16611fdd83611081565b73ffffffffffffffffffffffffffffffffffffffff167f8c5be1e5ebec7d5bd14f71427d1e84f3dd0314c0f7b2291e5b200ac8c7c3b92560405160405180910390a45050565b600061202e82611ef6565b61206d576040517f08c379a000000000000000000000000000000000000000000000000000000000815260040161206490614202565b60405180910390fd5b600061207883611081565b90508073ffffffffffffffffffffffffffffffffffffffff168473ffffffffffffffffffffffffffffffffffffffff1614806120e757508373ffffffffffffffffffffffffffffffffffffffff166120cf84610659565b73ffffffffffffffffffffffffffffffffffffffff16145b806120f857506120f78185611b2b565b5b91505092915050565b61210c838383612953565b816007600083815260200190815260200160002060050160006101000a81548173ffffffffffffffffffffffffffffffffffffffff021916908373ffffffffffffffffffffffffffffffffffffffff160217905550600860008373ffffffffffffffffffffffffffffffffffffffff1673ffffffffffffffffffffffffffffffffffffffff168152602001908152602001600020819080600181540180825580915050600190039060005260206000200160009091909190915055600860008473ffffffffffffffffffffffffffffffffffffffff1673ffffffffffffffffffffffffffffffffffffffff168152602001908152602001600020818154811061223e577f4e487b7100000000000000000000000000000000000000000000000000000000600052603260045260246000fd5b9060005260206000200160009055505050565b6060600082519050600081141561227a576040518060200160405280600081525091505061240a565b6000600360028361228b919061453a565b6122959190614590565b60046122a191906145c1565b905060006020826122b2919061453a565b67ffffffffffffffff8111156122f1577f4e487b7100000000000000000000000000000000000000000000000000000000600052604160045260246000fd5b6040519080825280601f01601f1916602001820160405280156123235781602001600182028036833780820191505090505b50905060006040518060600160405280604081526020016148fe604091399050600181016020830160005b868110156123c75760038101905062ffffff818a015116603f8160121c168401518060081b905060ff603f83600c1c1686015116810190508060081b905060ff603f8360061c1686015116810190508060081b905060ff603f831686015116810190508060e01b9050808452600484019350505061234e565b5060038606600181146123e157600281146123f1576123fc565b613d3d60f01b60028303526123fc565b603d60f81b60018303525b508484525050819450505050505b919050565b612429828260405180602001604052806000815250612baf565b5050565b6124c78383836040516024016124459392919061413d565b6040516020818303038152906040527fa3f5c739000000000000000000000000000000000000000000000000000000007bffffffffffffffffffffffffffffffffffffffffffffffffffffffff19166020820180517bffffffffffffffffffffffffffffffffffffffffffffffffffffffff8381831617835250505050612c0a565b505050565b60006124d782611081565b90506124e581600084612c33565b6124f0600083611f6a565b6001600360008373ffffffffffffffffffffffffffffffffffffffff1673ffffffffffffffffffffffffffffffffffffffff1681526020019081526020016000206000828254612540919061461b565b925050819055506002600083815260200190815260200160002060006101000a81549073ffffffffffffffffffffffffffffffffffffffff021916905581600073ffffffffffffffffffffffffffffffffffffffff168273ffffffffffffffffffffffffffffffffffffffff167fddf252ad1be2c89b69c2b068fc378daa952ba7f163c4a11628f55a4df523b3ef60405160405180910390a45050565b8173ffffffffffffffffffffffffffffffffffffffff168373ffffffffffffffffffffffffffffffffffffffff16141561264c576040517f08c379a0000000000000000000000000000000000000000000000000000000008152600401612643906141e2565b60405180910390fd5b80600560008573ffffffffffffffffffffffffffffffffffffffff1673ffffffffffffffffffffffffffffffffffffffff16815260200190815260200160002060008473ffffffffffffffffffffffffffffffffffffffff1673ffffffffffffffffffffffffffffffffffffffff16815260200190815260200160002060006101000a81548160ff0219169083151502179055508173ffffffffffffffffffffffffffffffffffffffff168373ffffffffffffffffffffffffffffffffffffffff167f17307eab39ab6107e8899845ad3d59bd9653f200f220920489ca2b5937696c318360405161273d9190614100565b60405180910390a3505050565b612755848484612101565b61276184848484612c38565b6127a0576040517f08c379a000000000000000000000000000000000000000000000000000000000815260040161279790614182565b60405180910390fd5b50505050565b606060008214156127ee576040518060400160405280600181526020017f3000000000000000000000000000000000000000000000000000000000000000815250905061294e565b600082905060005b6000821461282057808061280990614737565b915050600a826128199190614590565b91506127f6565b60008167ffffffffffffffff811115612862577f4e487b7100000000000000000000000000000000000000000000000000000000600052604160045260246000fd5b6040519080825280601f01601f1916602001820160405280156128945781602001600182028036833780820191505090505b5090505b60008514612947576001826128ad919061461b565b9150600a856128bc9190614780565b60306128c8919061453a565b60f81b818381518110612904577f4e487b7100000000000000000000000000000000000000000000000000000000600052603260045260246000fd5b60200101907effffffffffffffffffffffffffffffffffffffffffffffffffffffffffffff1916908160001a905350600a856129409190614590565b9450612898565b8093505050505b919050565b8273ffffffffffffffffffffffffffffffffffffffff1661297382611081565b73ffffffffffffffffffffffffffffffffffffffff16146129c9576040517f08c379a00000000000000000000000000000000000000000000000000000000081526004016129c0906142e2565b60405180910390fd5b600073ffffffffffffffffffffffffffffffffffffffff168273ffffffffffffffffffffffffffffffffffffffff161415612a39576040517f08c379a0000000000000000000000000000000000000000000000000000000008152600401612a30906141c2565b60405180910390fd5b612a44838383612c33565b612a4f600082611f6a565b6001600360008573ffffffffffffffffffffffffffffffffffffffff1673ffffffffffffffffffffffffffffffffffffffff1681526020019081526020016000206000828254612a9f919061461b565b925050819055506001600360008473ffffffffffffffffffffffffffffffffffffffff1673ffffffffffffffffffffffffffffffffffffffff1681526020019081526020016000206000828254612af6919061453a565b92505081905550816002600083815260200190815260200160002060006101000a81548173ffffffffffffffffffffffffffffffffffffffff021916908373ffffffffffffffffffffffffffffffffffffffff160217905550808273ffffffffffffffffffffffffffffffffffffffff168473ffffffffffffffffffffffffffffffffffffffff167fddf252ad1be2c89b69c2b068fc378daa952ba7f163c4a11628f55a4df523b3ef60405160405180910390a4505050565b612bb98383612dcf565b612bc66000848484612c38565b612c05576040517f08c379a0000000000000000000000000000000000000000000000000000000008152600401612bfc90614182565b60405180910390fd5b505050565b60008151905060006a636f6e736f6c652e6c6f679050602083016000808483855afa5050505050565b505050565b6000612c598473ffffffffffffffffffffffffffffffffffffffff16612f9d565b15612dc2578373ffffffffffffffffffffffffffffffffffffffff1663150b7a02612c82611f62565b8786866040518563ffffffff1660e01b8152600401612ca49493929190614092565b602060405180830381600087803b158015612cbe57600080fd5b505af1925050508015612cef57506040513d601f19601f82011682018060405250810190612cec91906133be565b60015b612d72573d8060008114612d1f576040519150601f19603f3d011682016040523d82523d6000602084013e612d24565b606091505b50600081511415612d6a576040517f08c379a0000000000000000000000000000000000000000000000000000000008152600401612d6190614182565b60405180910390fd5b805181602001fd5b63150b7a0260e01b7bffffffffffffffffffffffffffffffffffffffffffffffffffffffff1916817bffffffffffffffffffffffffffffffffffffffffffffffffffffffff191614915050612dc7565b600190505b949350505050565b600073ffffffffffffffffffffffffffffffffffffffff168273ffffffffffffffffffffffffffffffffffffffff161415612e3f576040517f08c379a0000000000000000000000000000000000000000000000000000000008152600401612e3690614282565b60405180910390fd5b612e4881611ef6565b15612e88576040517f08c379a0000000000000000000000000000000000000000000000000000000008152600401612e7f906141a2565b60405180910390fd5b612e9460008383612c33565b6001600360008473ffffffffffffffffffffffffffffffffffffffff1673ffffffffffffffffffffffffffffffffffffffff1681526020019081526020016000206000828254612ee4919061453a565b92505081905550816002600083815260200190815260200160002060006101000a81548173ffffffffffffffffffffffffffffffffffffffff021916908373ffffffffffffffffffffffffffffffffffffffff160217905550808273ffffffffffffffffffffffffffffffffffffffff16600073ffffffffffffffffffffffffffffffffffffffff167fddf252ad1be2c89b69c2b068fc378daa952ba7f163c4a11628f55a4df523b3ef60405160405180910390a45050565b600080823b905060008111915050919050565b828054612fbc90614705565b90600052602060002090601f016020900481019282612fde5760008555613025565b82601f10612ff757805160ff1916838001178555613025565b82800160010185558215613025579182015b82811115613024578251825591602001919060010190613009565b5b5090506130329190613098565b5090565b6040518060c0016040528060008152602001600081526020016060815260200160008152602001600073ffffffffffffffffffffffffffffffffffffffff168152602001600073ffffffffffffffffffffffffffffffffffffffff1681525090565b5b808211156130b1576000816000905550600101613099565b5090565b60006130c86130c384614438565b614407565b9050828152602081018484840111156130e057600080fd5b6130eb8482856146c3565b509392505050565b600061310661310184614468565b614407565b90508281526020810184848401111561311e57600080fd5b6131298482856146c3565b509392505050565b6000813590506131408161487e565b92915050565b60008135905061315581614895565b92915050565b60008135905061316a816148ac565b92915050565b60008151905061317f816148ac565b92915050565b600082601f83011261319657600080fd5b81356131a68482602086016130b5565b91505092915050565b600082601f8301126131c057600080fd5b81356131d08482602086016130f3565b91505092915050565b6000813590506131e8816148c3565b92915050565b60006020828403121561320057600080fd5b600061320e84828501613131565b91505092915050565b6000806040838503121561322a57600080fd5b600061323885828601613131565b925050602061324985828601613131565b9150509250929050565b60008060006060848603121561326857600080fd5b600061327686828701613131565b935050602061328786828701613131565b9250506040613298868287016131d9565b9150509250925092565b600080600080608085870312156132b857600080fd5b60006132c687828801613131565b94505060206132d787828801613131565b93505060406132e8878288016131d9565b925050606085013567ffffffffffffffff81111561330557600080fd5b61331187828801613185565b91505092959194509250565b6000806040838503121561333057600080fd5b600061333e85828601613131565b925050602061334f85828601613146565b9150509250929050565b6000806040838503121561336c57600080fd5b600061337a85828601613131565b925050602061338b858286016131d9565b9150509250929050565b6000602082840312156133a757600080fd5b60006133b58482850161315b565b91505092915050565b6000602082840312156133d057600080fd5b60006133de84828501613170565b91505092915050565b600080604083850312156133fa57600080fd5b600083013567ffffffffffffffff81111561341457600080fd5b613420858286016131af565b9250506020613431858286016131d9565b9150509250929050565b60006020828403121561344d57600080fd5b600061345b848285016131d9565b91505092915050565b6000806040838503121561347757600080fd5b6000613485858286016131d9565b9250506020613496858286016131d9565b9150509250929050565b60006134ac8383613e5f565b905092915050565b6134bd8161464f565b82525050565b6134cc8161464f565b82525050565b60006134dd826144bd565b6134e781856144eb565b9350836020820285016134f985614498565b8060005b85811015613535578484038952815161351685826134a0565b9450613521836144de565b925060208a019950506001810190506134fd565b50829750879550505050505092915050565b61355081614661565b82525050565b6000613561826144c8565b61356b81856144fc565b935061357b8185602086016146d2565b6135848161486d565b840191505092915050565b600061359a826144d3565b6135a4818561450d565b93506135b48185602086016146d2565b6135bd8161486d565b840191505092915050565b60006135d3826144d3565b6135dd818561451e565b93506135ed8185602086016146d2565b6135f68161486d565b840191505092915050565b600061360c826144d3565b613616818561452f565b93506136268185602086016146d2565b80840191505092915050565b6000815461363f81614705565b613649818661452f565b945060018216600081146136645760018114613675576136a8565b60ff198316865281860193506136a8565b61367e856144a8565b60005b838110156136a057815481890152600182019150602081019050613681565b838801955050505b50505092915050565b60006136be60058361452f565b91507f227d205d7d0000000000000000000000000000000000000000000000000000006000830152600582019050919050565b60006136fe60328361451e565b91507f4552433732313a207472616e7366657220746f206e6f6e20455243373231526560008301527f63656976657220696d706c656d656e74657200000000000000000000000000006020830152604082019050919050565b6000613764601c8361451e565b91507f4552433732313a20746f6b656e20616c7265616479206d696e746564000000006000830152602082019050919050565b60006137a460348361452f565b91507f222c20226465736372697074696f6e223a202254686973204e4654206973206160008301527f2074776565742e222c2022696d616765223a20220000000000000000000000006020830152603482019050919050565b600061380a60248361451e565b91507f4552433732313a207472616e7366657220746f20746865207a65726f2061646460008301527f72657373000000000000000000000000000000000000000000000000000000006020830152604082019050919050565b600061387060198361451e565b91507f4552433732313a20617070726f766520746f2063616c6c6572000000000000006000830152602082019050919050565b60006138b0602c8361451e565b91507f4552433732313a206f70657261746f7220717565727920666f72206e6f6e657860008301527f697374656e7420746f6b656e00000000000000000000000000000000000000006020830152604082019050919050565b6000613916600d8361452f565b91507f3c2f746578743e3c2f7376673e000000000000000000000000000000000000006000830152600d82019050919050565b600061395660388361451e565b91507f4552433732313a20617070726f76652063616c6c6572206973206e6f74206f7760008301527f6e6572206e6f7220617070726f76656420666f7220616c6c00000000000000006020830152604082019050919050565b60006139bc602a8361451e565b91507f4552433732313a2062616c616e636520717565727920666f7220746865207a6560008301527f726f2061646472657373000000000000000000000000000000000000000000006020830152604082019050919050565b6000613a2260298361451e565b91507f4552433732313a206f776e657220717565727920666f72206e6f6e657869737460008301527f656e7420746f6b656e00000000000000000000000000000000000000000000006020830152604082019050919050565b6000613a8860208361451e565b91507f4552433732313a206d696e7420746f20746865207a65726f20616464726573736000830152602082019050919050565b6000613ac860158361451e565b91507f547765657420646f6573206e6f742065786973747300000000000000000000006000830152602082019050919050565b6000613b0860138361452f565b91507f7b226e616d65223a20224e4654776565742023000000000000000000000000006000830152601382019050919050565b6000613b48602c8361451e565b91507f4552433732313a20617070726f76656420717565727920666f72206e6f6e657860008301527f697374656e7420746f6b656e00000000000000000000000000000000000000006020830152604082019050919050565b6000613bae60298361451e565b91507f4552433732313a207472616e73666572206f6620746f6b656e2074686174206960008301527f73206e6f74206f776e00000000000000000000000000000000000000000000006020830152604082019050919050565b6000613c1460408361452f565b91507f222c202261747472696275746573223a205b207b202274726169745f7479706560008301527f223a2022506172656e74205477656574204964222c202276616c7565223a20226020830152604082019050919050565b6000613c7a60218361451e565b91507f4552433732313a20617070726f76616c20746f2063757272656e74206f776e6560008301527f72000000000000000000000000000000000000000000000000000000000000006020830152604082019050919050565b6000613ce060298361452f565b91507f227d2c207b202274726169745f74797065223a2022436f6e74656e74222c202260008301527f76616c7565223a202200000000000000000000000000000000000000000000006020830152602982019050919050565b6000613d46601d8361452f565b91507f646174613a6170706c69636174696f6e2f6a736f6e3b6261736536342c0000006000830152601d82019050919050565b6000613d8660318361451e565b91507f4552433732313a207472616e736665722063616c6c6572206973206e6f74206f60008301527f776e6572206e6f7220617070726f7665640000000000000000000000000000006020830152604082019050919050565b6000613dec601b8361451e565b91507f506172656e7420747765657420646f6573206e6f7420657869737400000000006000830152602082019050919050565b6000613e2c601a8361452f565b91507f646174613a696d6167652f7376672b786d6c3b6261736536342c0000000000006000830152601a82019050919050565b600060c083016000830151613e776000860182613f71565b506020830151613e8a6020860182613f71565b5060408301518482036040860152613ea2828261358f565b9150506060830151613eb76060860182613f71565b506080830151613eca60808601826134b4565b5060a0830151613edd60a08601826134b4565b508091505092915050565b600060c083016000830151613f006000860182613f71565b506020830151613f136020860182613f71565b5060408301518482036040860152613f2b828261358f565b9150506060830151613f406060860182613f71565b506080830151613f5360808601826134b4565b5060a0830151613f6660a08601826134b4565b508091505092915050565b613f7a816146b9565b82525050565b613f89816146b9565b82525050565b6000613f9b8285613632565b9150613fa78284613632565b9150613fb282613909565b91508190509392505050565b6000613fc982613afb565b9150613fd58287613601565b9150613fe082613797565b9150613fec8286613601565b9150613ff782613c07565b91506140038285613601565b915061400e82613cd3565b915061401a8284613632565b9150614025826136b1565b915081905095945050505050565b600061403e82613d39565b915061404a8284613601565b915081905092915050565b600061406082613e1f565b915061406c8284613601565b915081905092915050565b600060208201905061408c60008301846134c3565b92915050565b60006080820190506140a760008301876134c3565b6140b460208301866134c3565b6140c16040830185613f80565b81810360608301526140d38184613556565b905095945050505050565b600060208201905081810360008301526140f881846134d2565b905092915050565b60006020820190506141156000830184613547565b92915050565b6000602082019050818103600083015261413581846135c8565b905092915050565b6000606082019050818103600083015261415781866135c8565b90506141666020830185613f80565b818103604083015261417881846135c8565b9050949350505050565b6000602082019050818103600083015261419b816136f1565b9050919050565b600060208201905081810360008301526141bb81613757565b9050919050565b600060208201905081810360008301526141db816137fd565b9050919050565b600060208201905081810360008301526141fb81613863565b9050919050565b6000602082019050818103600083015261421b816138a3565b9050919050565b6000602082019050818103600083015261423b81613949565b9050919050565b6000602082019050818103600083015261425b816139af565b9050919050565b6000602082019050818103600083015261427b81613a15565b9050919050565b6000602082019050818103600083015261429b81613a7b565b9050919050565b600060208201905081810360008301526142bb81613abb565b9050919050565b600060208201905081810360008301526142db81613b3b565b9050919050565b600060208201905081810360008301526142fb81613ba1565b9050919050565b6000602082019050818103600083015261431b81613c6d565b9050919050565b6000602082019050818103600083015261433b81613d79565b9050919050565b6000602082019050818103600083015261435b81613ddf565b9050919050565b6000602082019050818103600083015261437c8184613ee8565b905092915050565b60006020820190506143996000830184613f80565b92915050565b600060c0820190506143b46000830189613f80565b6143c16020830188613f80565b81810360408301526143d381876135c8565b90506143e26060830186613f80565b6143ef60808301856134c3565b6143fc60a08301846134c3565b979650505050505050565b6000604051905081810181811067ffffffffffffffff8211171561442e5761442d61483e565b5b8060405250919050565b600067ffffffffffffffff8211156144535761445261483e565b5b601f19601f8301169050602081019050919050565b600067ffffffffffffffff8211156144835761448261483e565b5b601f19601f8301169050602081019050919050565b6000819050602082019050919050565b60008190508160005260206000209050919050565b600081519050919050565b600081519050919050565b600081519050919050565b6000602082019050919050565b600082825260208201905092915050565b600082825260208201905092915050565b600082825260208201905092915050565b600082825260208201905092915050565b600081905092915050565b6000614545826146b9565b9150614550836146b9565b9250827fffffffffffffffffffffffffffffffffffffffffffffffffffffffffffffffff03821115614585576145846147b1565b5b828201905092915050565b600061459b826146b9565b91506145a6836146b9565b9250826145b6576145b56147e0565b5b828204905092915050565b60006145cc826146b9565b91506145d7836146b9565b9250817fffffffffffffffffffffffffffffffffffffffffffffffffffffffffffffffff04831182151516156146105761460f6147b1565b5b828202905092915050565b6000614626826146b9565b9150614631836146b9565b925082821015614644576146436147b1565b5b828203905092915050565b600061465a82614699565b9050919050565b60008115159050919050565b60007fffffffff0000000000000000000000000000000000000000000000000000000082169050919050565b600073ffffffffffffffffffffffffffffffffffffffff82169050919050565b6000819050919050565b82818337600083830152505050565b60005b838110156146f05780820151818401526020810190506146d5565b838111156146ff576000848401525b50505050565b6000600282049050600182168061471d57607f821691505b602082108114156147315761473061480f565b5b50919050565b6000614742826146b9565b91507fffffffffffffffffffffffffffffffffffffffffffffffffffffffffffffffff821415614775576147746147b1565b5b600182019050919050565b600061478b826146b9565b9150614796836146b9565b9250826147a6576147a56147e0565b5b828206905092915050565b7f4e487b7100000000000000000000000000000000000000000000000000000000600052601160045260246000fd5b7f4e487b7100000000000000000000000000000000000000000000000000000000600052601260045260246000fd5b7f4e487b7100000000000000000000000000000000000000000000000000000000600052602260045260246000fd5b7f4e487b7100000000000000000000000000000000000000000000000000000000600052604160045260246000fd5b6000601f19601f8301169050919050565b6148878161464f565b811461489257600080fd5b50565b61489e81614661565b81146148a957600080fd5b50565b6148b58161466d565b81146148c057600080fd5b50565b6148cc816146b9565b81146148d757600080fd5b5056fe4e6577207477656574207769746820706172656e74207477656574202573203a2025734142434445464748494a4b4c4d4e4f505152535455565758595a6162636465666768696a6b6c6d6e6f707172737475767778797a303132333435363738392b2fa2646970667358221220d133bf78c99c72912dd7a53f2ce54d8f79598f09e239bfac089353e81cdc540164736f6c634300080000333c73766720786d6c6e733d27687474703a2f2f7777772e77332e6f72672f323030302f73766727207072657365727665417370656374526174696f3d27784d696e594d696e206d656574272076696577426f783d273020302033353020333530273e3c7374796c653e2e62617365207b2066696c6c3a2077686974653b20666f6e742d66616d696c793a2073657269663b20666f6e742d73697a653a20323470783b207d3c2f7374796c653e3c726563742077696474683d273130302527206865696768743d2731303025272066696c6c3d27626c61636b27202f3e3c7465787420783d273530252720793d273530252720636c6173733d27626173652720646f6d696e616e742d626173656c696e653d276d6964646c652720746578742d616e63686f723d276d6964646c65273e",
  "linkReferences": {},
  "deployedLinkReferences": {}
}